{
  "contractName": "Hashes",
  "abi": [
    {
      "constant": true,
      "inputs": [
        {
          "name": "",
          "type": "uint256"
        }
      ],
      "name": "participants",
      "outputs": [
        {
          "name": "",
          "type": "address"
        }
      ],
      "payable": false,
      "stateMutability": "view",
      "type": "function",
      "signature": "0x35c1d349"
    },
    {
      "constant": true,
      "inputs": [
        {
          "name": "",
          "type": "uint256"
        }
      ],
      "name": "all_participants",
      "outputs": [
        {
          "name": "",
          "type": "address"
        }
      ],
      "payable": false,
      "stateMutability": "view",
      "type": "function",
      "signature": "0x8eee5546"
    },
    {
      "inputs": [
        {
          "name": "_minTokens",
          "type": "uint256"
        },
        {
          "name": "_myToken",
          "type": "address"
        },
        {
          "name": "_myTrophy",
          "type": "address"
        }
      ],
      "payable": false,
      "stateMutability": "nonpayable",
      "type": "constructor",
      "signature": "constructor"
    },
    {
      "constant": false,
      "inputs": [
        {
          "name": "_ipfsHash",
          "type": "string"
        },
        {
          "name": "_caption",
          "type": "string"
        },
        {
          "name": "_ipfsAddress",
          "type": "address"
        }
      ],
      "name": "addHash",
      "outputs": [],
      "payable": false,
      "stateMutability": "nonpayable",
      "type": "function",
      "signature": "0xfbccabd7"
    },
    {
      "constant": false,
      "inputs": [
        {
          "name": "candidate",
          "type": "address"
        }
      ],
      "name": "voteForCandidate",
      "outputs": [],
      "payable": false,
      "stateMutability": "nonpayable",
      "type": "function",
      "signature": "0x163046eb"
    },
    {
      "constant": false,
      "inputs": [
        {
          "name": "_name",
          "type": "string"
        },
        {
          "name": "_profileName",
          "type": "string"
        },
        {
          "name": "_ipfsHash",
          "type": "string"
        }
      ],
      "name": "registerAccount",
      "outputs": [],
      "payable": true,
      "stateMutability": "payable",
      "type": "function",
      "signature": "0x412fac67"
    },
    {
      "constant": true,
      "inputs": [],
      "name": "accountRegistered",
      "outputs": [
        {
          "name": "",
          "type": "bool"
        }
      ],
      "payable": false,
      "stateMutability": "view",
      "type": "function",
      "signature": "0xb9d31981"
    },
    {
      "constant": false,
      "inputs": [
        {
          "name": "candidate_index",
          "type": "uint256"
        }
      ],
      "name": "voteByIndex",
      "outputs": [],
      "payable": false,
      "stateMutability": "nonpayable",
      "type": "function",
      "signature": "0xcc4709f0"
    },
    {
      "constant": false,
      "inputs": [
        {
          "name": "candidates_indexes",
          "type": "uint256[]"
        }
      ],
      "name": "voteForListByIndex",
      "outputs": [],
      "payable": false,
      "stateMutability": "nonpayable",
      "type": "function",
      "signature": "0xbc5d8787"
    },
    {
      "constant": false,
      "inputs": [
        {
          "name": "b",
          "type": "bytes1"
        },
        {
          "name": "a",
          "type": "bytes1"
        }
      ],
      "name": "bitSet",
      "outputs": [
        {
          "name": "",
          "type": "bool"
        }
      ],
      "payable": false,
      "stateMutability": "nonpayable",
      "type": "function",
      "signature": "0x342f3fde"
    },
    {
      "constant": false,
      "inputs": [
        {
          "name": "n",
          "type": "uint256"
        },
        {
          "name": "shift",
          "type": "uint256"
        }
      ],
      "name": "voteForListByBitString",
      "outputs": [],
      "payable": false,
      "stateMutability": "nonpayable",
      "type": "function",
      "signature": "0xf9d52abe"
    },
    {
      "constant": true,
      "inputs": [],
      "name": "returnWinnerHash",
      "outputs": [
        {
          "name": "",
          "type": "string"
        }
      ],
      "payable": false,
      "stateMutability": "view",
      "type": "function",
      "signature": "0x2f8f7cf1"
    },
    {
      "constant": true,
      "inputs": [],
      "name": "returnWinnerAddress",
      "outputs": [
        {
          "name": "",
          "type": "address"
        }
      ],
      "payable": false,
      "stateMutability": "view",
      "type": "function",
      "signature": "0xbb0bd6e5"
    },
    {
      "constant": true,
      "inputs": [],
      "name": "returnWinnerCaption",
      "outputs": [
        {
          "name": "",
          "type": "string"
        }
      ],
      "payable": false,
      "stateMutability": "view",
      "type": "function",
      "signature": "0xfe90acf6"
    },
    {
      "constant": true,
      "inputs": [
        {
          "name": "x",
          "type": "uint256"
        }
      ],
      "name": "getList",
      "outputs": [
        {
          "name": "",
          "type": "string"
        }
      ],
      "payable": false,
      "stateMutability": "view",
      "type": "function",
      "signature": "0x1ab5b383"
    },
    {
      "constant": true,
      "inputs": [
        {
          "name": "_owner",
          "type": "address"
        },
        {
          "name": "index",
          "type": "uint256"
        }
      ],
      "name": "viewPhotos",
      "outputs": [
        {
          "name": "",
          "type": "string"
        }
      ],
      "payable": false,
      "stateMutability": "view",
      "type": "function",
      "signature": "0xc7689b0d"
    },
    {
      "constant": true,
      "inputs": [
        {
          "name": "_owner",
          "type": "address"
        },
        {
          "name": "index",
          "type": "uint256"
        }
      ],
      "name": "viewCaption",
      "outputs": [
        {
          "name": "",
          "type": "string"
        }
      ],
      "payable": false,
      "stateMutability": "view",
      "type": "function",
      "signature": "0x79c52b73"
    },
    {
      "constant": true,
      "inputs": [
        {
          "name": "x",
          "type": "address"
        }
      ],
      "name": "getListByAddress",
      "outputs": [
        {
          "name": "",
          "type": "string"
        }
      ],
      "payable": false,
      "stateMutability": "view",
      "type": "function",
      "signature": "0x8516ff33"
    },
    {
      "constant": true,
      "inputs": [
        {
          "name": "x",
          "type": "uint256"
        }
      ],
      "name": "getCaption",
      "outputs": [
        {
          "name": "",
          "type": "string"
        }
      ],
      "payable": false,
      "stateMutability": "view",
      "type": "function",
      "signature": "0x0257e249"
    },
    {
      "constant": true,
      "inputs": [
        {
          "name": "x",
          "type": "uint256"
        }
      ],
      "name": "getAddress",
      "outputs": [
        {
          "name": "",
          "type": "address"
        }
      ],
      "payable": false,
      "stateMutability": "view",
      "type": "function",
      "signature": "0xb93f9b0a"
    },
    {
      "constant": true,
      "inputs": [],
      "name": "returnTotalVotes",
      "outputs": [
        {
          "name": "",
          "type": "uint256"
        }
      ],
      "payable": false,
      "stateMutability": "view",
      "type": "function",
      "signature": "0xe36fccc9"
    },
    {
      "constant": true,
      "inputs": [],
      "name": "returnTotalPhotos",
      "outputs": [
        {
          "name": "",
          "type": "uint256"
        }
      ],
      "payable": false,
      "stateMutability": "view",
      "type": "function",
      "signature": "0xa7eb9e2e"
    },
    {
      "constant": true,
      "inputs": [
        {
          "name": "x",
          "type": "address"
        }
      ],
      "name": "totalVotesFor",
      "outputs": [
        {
          "name": "",
          "type": "uint256"
        }
      ],
      "payable": false,
      "stateMutability": "view",
      "type": "function",
      "signature": "0x4041ef54"
    },
    {
      "constant": true,
      "inputs": [],
      "name": "listLength",
      "outputs": [
        {
          "name": "",
          "type": "uint256"
        }
      ],
      "payable": false,
      "stateMutability": "view",
      "type": "function",
      "signature": "0xfb6f049f"
    },
    {
      "constant": true,
      "inputs": [],
      "name": "numParticipants",
      "outputs": [
        {
          "name": "",
          "type": "uint256"
        }
      ],
      "payable": false,
      "stateMutability": "view",
      "type": "function",
      "signature": "0x4e76a846"
    },
    {
      "constant": true,
      "inputs": [
        {
          "name": "x",
          "type": "address"
        }
      ],
      "name": "likedPhoto",
      "outputs": [
        {
          "name": "",
          "type": "bool"
        }
      ],
      "payable": false,
      "stateMutability": "view",
      "type": "function",
      "signature": "0x8177d11b"
    },
    {
      "constant": true,
      "inputs": [
        {
          "name": "x",
          "type": "uint256"
        }
      ],
      "name": "getParticipant",
      "outputs": [
        {
          "name": "",
          "type": "address"
        }
      ],
      "payable": false,
      "stateMutability": "view",
      "type": "function",
      "signature": "0x1b9db2ef"
    },
    {
      "constant": true,
      "inputs": [
        {
          "name": "x",
          "type": "uint256"
        }
      ],
      "name": "numActions",
      "outputs": [
        {
          "name": "",
          "type": "uint256"
        }
      ],
      "payable": false,
      "stateMutability": "view",
      "type": "function",
      "signature": "0x186d45ac"
    },
    {
      "constant": true,
      "inputs": [
        {
          "name": "x",
          "type": "address"
        }
      ],
      "name": "totalVotesReceived",
      "outputs": [
        {
          "name": "",
          "type": "uint256"
        }
      ],
      "payable": false,
      "stateMutability": "view",
      "type": "function",
      "signature": "0x287e0c8e"
    },
    {
      "constant": true,
      "inputs": [
        {
          "name": "x",
          "type": "address"
        }
      ],
      "name": "totalPhotosPosted",
      "outputs": [
        {
          "name": "",
          "type": "uint256"
        }
      ],
      "payable": false,
      "stateMutability": "view",
      "type": "function",
      "signature": "0x18359009"
    },
    {
      "constant": true,
      "inputs": [
        {
          "name": "x",
          "type": "address"
        }
      ],
      "name": "totalTrophies",
      "outputs": [
        {
          "name": "",
          "type": "uint256"
        }
      ],
      "payable": false,
      "stateMutability": "view",
      "type": "function",
      "signature": "0x5090d71d"
    },
    {
      "constant": true,
      "inputs": [
        {
          "name": "x",
          "type": "address"
        }
      ],
      "name": "getUserName",
      "outputs": [
        {
          "name": "",
          "type": "string"
        }
      ],
      "payable": false,
      "stateMutability": "view",
      "type": "function",
      "signature": "0xd84f55ee"
    },
    {
      "constant": true,
      "inputs": [
        {
          "name": "x",
          "type": "address"
        }
      ],
      "name": "getProfileName",
      "outputs": [
        {
          "name": "",
          "type": "string"
        }
      ],
      "payable": false,
      "stateMutability": "view",
      "type": "function",
      "signature": "0x33661b29"
    },
    {
      "constant": true,
      "inputs": [
        {
          "name": "x",
          "type": "address"
        }
      ],
      "name": "getProfileImage",
      "outputs": [
        {
          "name": "",
          "type": "string"
        }
      ],
      "payable": false,
      "stateMutability": "view",
      "type": "function",
      "signature": "0xd2c8dd35"
    },
    {
      "constant": true,
      "inputs": [
        {
          "name": "_name",
          "type": "string"
        }
      ],
      "name": "isNameTaken",
      "outputs": [
        {
          "name": "",
          "type": "bool"
        }
      ],
      "payable": false,
      "stateMutability": "view",
      "type": "function",
      "signature": "0xb3da4e34"
    },
    {
      "constant": true,
      "inputs": [
        {
          "name": "x",
          "type": "address"
        }
      ],
      "name": "alreadyPosted",
      "outputs": [
        {
          "name": "",
          "type": "bool"
        }
      ],
      "payable": false,
      "stateMutability": "view",
      "type": "function",
      "signature": "0xe06b4db7"
    },
    {
      "constant": true,
      "inputs": [],
      "name": "timeLocked",
      "outputs": [
        {
          "name": "",
          "type": "bool"
        }
      ],
      "payable": false,
      "stateMutability": "view",
      "type": "function",
      "signature": "0x649f7916"
    },
    {
      "constant": false,
      "inputs": [],
      "name": "newRound",
      "outputs": [],
      "payable": false,
      "stateMutability": "nonpayable",
      "type": "function",
      "signature": "0xc5b1d9aa"
    },
    {
      "constant": true,
      "inputs": [],
      "name": "getTime",
      "outputs": [
        {
          "name": "",
          "type": "uint256"
        }
      ],
      "payable": false,
      "stateMutability": "view",
      "type": "function",
      "signature": "0x557ed1ba"
    }
  ],
  "bytecode": "0x60806040523480156200001157600080fd5b5060405160608062004379833981018060405260608110156200003357600080fd5b810190808051906020019092919080519060200190929190805190602001909291905050508260078190555081600860006101000a81548173ffffffffffffffffffffffffffffffffffffffff021916908373ffffffffffffffffffffffffffffffffffffffff16021790555081600a60006101000a81548173ffffffffffffffffffffffffffffffffffffffff021916908373ffffffffffffffffffffffffffffffffffffffff160217905550600860009054906101000a900473ffffffffffffffffffffffffffffffffffffffff1673ffffffffffffffffffffffffffffffffffffffff1663e30081a0306040518263ffffffff167c0100000000000000000000000000000000000000000000000000000000028152600401808273ffffffffffffffffffffffffffffffffffffffff1673ffffffffffffffffffffffffffffffffffffffff168152602001915050600060405180830381600087803b1580156200019f57600080fd5b505af1158015620001b4573d6000803e3d6000fd5b5050505080600960006101000a81548173ffffffffffffffffffffffffffffffffffffffff021916908373ffffffffffffffffffffffffffffffffffffffff160217905550600960009054906101000a900473ffffffffffffffffffffffffffffffffffffffff1673ffffffffffffffffffffffffffffffffffffffff1663e30081a0306040518263ffffffff167c0100000000000000000000000000000000000000000000000000000000028152600401808273ffffffffffffffffffffffffffffffffffffffff1673ffffffffffffffffffffffffffffffffffffffff168152602001915050600060405180830381600087803b158015620002b757600080fd5b505af1158015620002cc573d6000803e3d6000fd5b5050505043600b8190555050505061408f80620002ea6000396000f3fe6080604052600436106101d8576000357c0100000000000000000000000000000000000000000000000000000000900463ffffffff1680630257e249146101dd578063163046eb1461029157806318359009146102e2578063186d45ac146103475780631ab5b383146103965780631b9db2ef1461044a578063287e0c8e146104c55780632f8f7cf11461052a57806333661b29146105ba578063342f3fde1461068457806335c1d349146107255780634041ef54146107a0578063412fac67146108055780634e76a846146109ee5780635090d71d14610a19578063557ed1ba14610a7e578063649f791614610aa957806379c52b7314610ad85780638177d11b14610bac5780638516ff3314610c155780638eee554614610cdf578063a7eb9e2e14610d5a578063b3da4e3414610d85578063b93f9b0a14610e65578063b9d3198114610ee0578063bb0bd6e514610f0f578063bc5d878714610f66578063c5b1d9aa1461102b578063c7689b0d14611042578063cc4709f014611116578063d2c8dd3514611151578063d84f55ee1461121b578063e06b4db7146112e5578063e36fccc91461134e578063f9d52abe14611379578063fb6f049f146113be578063fbccabd7146113e9578063fe90acf614611568575b600080fd5b3480156101e957600080fd5b506102166004803603602081101561020057600080fd5b81019080803590602001909291905050506115f8565b6040518080602001828103825283818151815260200191508051906020019080838360005b8381101561025657808201518184015260208101905061023b565b50505050905090810190601f1680156102835780820380516001836020036101000a031916815260200191505b509250505060405180910390f35b34801561029d57600080fd5b506102e0600480360360208110156102b457600080fd5b81019080803573ffffffffffffffffffffffffffffffffffffffff169060200190929190505050611718565b005b3480156102ee57600080fd5b506103316004803603602081101561030557600080fd5b81019080803573ffffffffffffffffffffffffffffffffffffffff169060200190929190505050611c5f565b6040518082815260200191505060405180910390f35b34801561035357600080fd5b506103806004803603602081101561036a57600080fd5b8101908080359060200190929190505050611cbd565b6040518082815260200191505060405180910390f35b3480156103a257600080fd5b506103cf600480360360208110156103b957600080fd5b8101908080359060200190929190505050611d54565b6040518080602001828103825283818151815260200191508051906020019080838360005b8381101561040f5780820151818401526020810190506103f4565b50505050905090810190601f16801561043c5780820380516001836020036101000a031916815260200191505b509250505060405180910390f35b34801561045657600080fd5b506104836004803603602081101561046d57600080fd5b8101908080359060200190929190505050611e74565b604051808273ffffffffffffffffffffffffffffffffffffffff1673ffffffffffffffffffffffffffffffffffffffff16815260200191505060405180910390f35b3480156104d157600080fd5b50610514600480360360208110156104e857600080fd5b81019080803573ffffffffffffffffffffffffffffffffffffffff169060200190929190505050611eb7565b6040518082815260200191505060405180910390f35b34801561053657600080fd5b5061053f611f15565b6040518080602001828103825283818151815260200191508051906020019080838360005b8381101561057f578082015181840152602081019050610564565b50505050905090810190601f1680156105ac5780820380516001836020036101000a031916815260200191505b509250505060405180910390f35b3480156105c657600080fd5b50610609600480360360208110156105dd57600080fd5b81019080803573ffffffffffffffffffffffffffffffffffffffff169060200190929190505050611fb7565b6040518080602001828103825283818151815260200191508051906020019080838360005b8381101561064957808201518184015260208101905061062e565b50505050905090810190601f1680156106765780820380516001836020036101000a031916815260200191505b509250505060405180910390f35b34801561069057600080fd5b5061070b600480360360408110156106a757600080fd5b8101908080357effffffffffffffffffffffffffffffffffffffffffffffffffffffffffffff1916906020019092919080357effffffffffffffffffffffffffffffffffffffffffffffffffffffffffffff1916906020019092919050505061209b565b604051808215151515815260200191505060405180910390f35b34801561073157600080fd5b5061075e6004803603602081101561074857600080fd5b81019080803590602001909291905050506120ee565b604051808273ffffffffffffffffffffffffffffffffffffffff1673ffffffffffffffffffffffffffffffffffffffff16815260200191505060405180910390f35b3480156107ac57600080fd5b506107ef600480360360208110156107c357600080fd5b81019080803573ffffffffffffffffffffffffffffffffffffffff16906020019092919050505061212c565b6040518082815260200191505060405180910390f35b6109ec6004803603606081101561081b57600080fd5b810190808035906020019064010000000081111561083857600080fd5b82018360208201111561084a57600080fd5b8035906020019184600183028401116401000000008311171561086c57600080fd5b91908080601f016020809104026020016040519081016040528093929190818152602001838380828437600081840152601f19601f820116905080830192505050505050509192919290803590602001906401000000008111156108cf57600080fd5b8201836020820111156108e157600080fd5b8035906020019184600183028401116401000000008311171561090357600080fd5b91908080601f016020809104026020016040519081016040528093929190818152602001838380828437600081840152601f19601f8201169050808301925050505050505091929192908035906020019064010000000081111561096657600080fd5b82018360208201111561097857600080fd5b8035906020019184600183028401116401000000008311171561099a57600080fd5b91908080601f016020809104026020016040519081016040528093929190818152602001838380828437600081840152601f19601f82011690508083019250505050505050919291929050505061218a565b005b3480156109fa57600080fd5b50610a0361265a565b6040518082815260200191505060405180910390f35b348015610a2557600080fd5b50610a6860048036036020811015610a3c57600080fd5b81019080803573ffffffffffffffffffffffffffffffffffffffff169060200190929190505050612667565b6040518082815260200191505060405180910390f35b348015610a8a57600080fd5b50610a93612766565b6040518082815260200191505060405180910390f35b348015610ab557600080fd5b50610abe61276e565b604051808215151515815260200191505060405180910390f35b348015610ae457600080fd5b50610b3160048036036040811015610afb57600080fd5b81019080803573ffffffffffffffffffffffffffffffffffffffff16906020019092919080359060200190929190505050612792565b6040518080602001828103825283818151815260200191508051906020019080838360005b83811015610b71578082015181840152602081019050610b56565b50505050905090810190601f168015610b9e5780820380516001836020036101000a031916815260200191505b509250505060405180910390f35b348015610bb857600080fd5b50610bfb60048036036020811015610bcf57600080fd5b81019080803573ffffffffffffffffffffffffffffffffffffffff16906020019092919050505061288b565b604051808215151515815260200191505060405180910390f35b348015610c2157600080fd5b50610c6460048036036020811015610c3857600080fd5b81019080803573ffffffffffffffffffffffffffffffffffffffff169060200190929190505050612986565b6040518080602001828103825283818151815260200191508051906020019080838360005b83811015610ca4578082015181840152602081019050610c89565b50505050905090810190601f168015610cd15780820380516001836020036101000a031916815260200191505b509250505060405180910390f35b348015610ceb57600080fd5b50610d1860048036036020811015610d0257600080fd5b8101908080359060200190929190505050612a6d565b604051808273ffffffffffffffffffffffffffffffffffffffff1673ffffffffffffffffffffffffffffffffffffffff16815260200191505060405180910390f35b348015610d6657600080fd5b50610d6f612aab565b6040518082815260200191505060405180910390f35b348015610d9157600080fd5b50610e4b60048036036020811015610da857600080fd5b8101908080359060200190640100000000811115610dc557600080fd5b820183602082011115610dd757600080fd5b80359060200191846001830284011164010000000083111715610df957600080fd5b91908080601f016020809104026020016040519081016040528093929190818152602001838380828437600081840152601f19601f820116905080830192505050505050509192919290505050612ac6565b604051808215151515815260200191505060405180910390f35b348015610e7157600080fd5b50610e9e60048036036020811015610e8857600080fd5b8101908080359060200190929190505050612b48565b604051808273ffffffffffffffffffffffffffffffffffffffff1673ffffffffffffffffffffffffffffffffffffffff16815260200191505060405180910390f35b348015610eec57600080fd5b50610ef5612bf0565b604051808215151515815260200191505060405180910390f35b348015610f1b57600080fd5b50610f24612c47565b604051808273ffffffffffffffffffffffffffffffffffffffff1673ffffffffffffffffffffffffffffffffffffffff16815260200191505060405180910390f35b348015610f7257600080fd5b5061102960048036036020811015610f8957600080fd5b8101908080359060200190640100000000811115610fa657600080fd5b820183602082011115610fb857600080fd5b80359060200191846020830284011164010000000083111715610fda57600080fd5b919080806020026020016040519081016040528093929190818152602001838360200280828437600081840152601f19601f820116905080830192505050505050509192919290505050612c70565b005b34801561103757600080fd5b50611040612e10565b005b34801561104e57600080fd5b5061109b6004803603604081101561106557600080fd5b81019080803573ffffffffffffffffffffffffffffffffffffffff16906020019092919080359060200190929190505050613025565b6040518080602001828103825283818151815260200191508051906020019080838360005b838110156110db5780820151818401526020810190506110c0565b50505050905090810190601f1680156111085780820380516001836020036101000a031916815260200191505b509250505060405180910390f35b34801561112257600080fd5b5061114f6004803603602081101561113957600080fd5b810190808035906020019092919050505061311e565b005b34801561115d57600080fd5b506111a06004803603602081101561117457600080fd5b81019080803573ffffffffffffffffffffffffffffffffffffffff1690602001909291905050506132e6565b6040518080602001828103825283818151815260200191508051906020019080838360005b838110156111e05780820151818401526020810190506111c5565b50505050905090810190601f16801561120d5780820380516001836020036101000a031916815260200191505b509250505060405180910390f35b34801561122757600080fd5b5061126a6004803603602081101561123e57600080fd5b81019080803573ffffffffffffffffffffffffffffffffffffffff1690602001909291905050506133ca565b6040518080602001828103825283818151815260200191508051906020019080838360005b838110156112aa57808201518184015260208101905061128f565b50505050905090810190601f1680156112d75780820380516001836020036101000a031916815260200191505b509250505060405180910390f35b3480156112f157600080fd5b506113346004803603602081101561130857600080fd5b81019080803573ffffffffffffffffffffffffffffffffffffffff1690602001909291905050506134ae565b604051808215151515815260200191505060405180910390f35b34801561135a57600080fd5b5061136361354b565b6040518082815260200191505060405180910390f35b34801561138557600080fd5b506113bc6004803603604081101561139c57600080fd5b810190808035906020019092919080359060200190929190505050613566565b005b3480156113ca57600080fd5b506113d361368f565b6040518082815260200191505060405180910390f35b3480156113f557600080fd5b506115666004803603606081101561140c57600080fd5b810190808035906020019064010000000081111561142957600080fd5b82018360208201111561143b57600080fd5b8035906020019184600183028401116401000000008311171561145d57600080fd5b91908080601f016020809104026020016040519081016040528093929190818152602001838380828437600081840152601f19601f820116905080830192505050505050509192919290803590602001906401000000008111156114c057600080fd5b8201836020820111156114d257600080fd5b803590602001918460018302840111640100000000831117156114f457600080fd5b91908080601f016020809104026020016040519081016040528093929190818152602001838380828437600081840152601f19601f820116905080830192505050505050509192919290803573ffffffffffffffffffffffffffffffffffffffff16906020019092919050505061369c565b005b34801561157457600080fd5b5061157d613c80565b6040518080602001828103825283818151815260200191508051906020019080838360005b838110156115bd5780820151818401526020810190506115a2565b50505050905090810190601f1680156115ea5780820380516001836020036101000a031916815260200191505b509250505060405180910390f35b60606003600060058481548110151561160d57fe5b9060005260206000200160009054906101000a900473ffffffffffffffffffffffffffffffffffffffff1673ffffffffffffffffffffffffffffffffffffffff1673ffffffffffffffffffffffffffffffffffffffff1681526020019081526020016000206004016001018054600181600116156101000203166002900480601f01602080910402602001604051908101604052809291908181526020018280546001816001161561010002031660029004801561170c5780601f106116e15761010080835404028352916020019161170c565b820191906000526020600020905b8154815290600101906020018083116116ef57829003601f168201915b50505050509050919050565b600754600860009054906101000a900473ffffffffffffffffffffffffffffffffffffffff1673ffffffffffffffffffffffffffffffffffffffff166370a08231336040518263ffffffff167c0100000000000000000000000000000000000000000000000000000000028152600401808273ffffffffffffffffffffffffffffffffffffffff1673ffffffffffffffffffffffffffffffffffffffff16815260200191505060206040518083038186803b1580156117d657600080fd5b505afa1580156117ea573d6000803e3d6000fd5b505050506040513d602081101561180057600080fd5b810190808051906020019092919050505011151561181d57600080fd5b600360003373ffffffffffffffffffffffffffffffffffffffff1673ffffffffffffffffffffffffffffffffffffffff16815260200190815260200160002060070160009054906101000a900460ff16151561187857600080fd5b80604051602001808273ffffffffffffffffffffffffffffffffffffffff1673ffffffffffffffffffffffffffffffffffffffff166c010000000000000000000000000281526014019150506040516020818303038152906040528051906020012033604051602001808273ffffffffffffffffffffffffffffffffffffffff1673ffffffffffffffffffffffffffffffffffffffff166c01000000000000000000000000028152601401915050604051602081830303815290604052805190602001201415151561194957600080fd5b60001515600360003373ffffffffffffffffffffffffffffffffffffffff1673ffffffffffffffffffffffffffffffffffffffff16815260200190815260200160002060090160008373ffffffffffffffffffffffffffffffffffffffff1673ffffffffffffffffffffffffffffffffffffffff1681526020019081526020016000206000600360008573ffffffffffffffffffffffffffffffffffffffff1673ffffffffffffffffffffffffffffffffffffffff16815260200190815260200160002060000160049054906101000a900461ffff1661ffff16815260200190815260200160002060009054906101000a900460ff161515141515611a4d57600080fd5b6001600360003373ffffffffffffffffffffffffffffffffffffffff1673ffffffffffffffffffffffffffffffffffffffff16815260200190815260200160002060090160008373ffffffffffffffffffffffffffffffffffffffff1673ffffffffffffffffffffffffffffffffffffffff1681526020019081526020016000206000600360008573ffffffffffffffffffffffffffffffffffffffff1673ffffffffffffffffffffffffffffffffffffffff16815260200190815260200160002060000160049054906101000a900461ffff1661ffff16815260200190815260200160002060006101000a81548160ff0219169083151502179055506001600360008373ffffffffffffffffffffffffffffffffffffffff1673ffffffffffffffffffffffffffffffffffffffff16815260200190815260200160002060000160008282829054906101000a900461ffff160192506101000a81548161ffff021916908361ffff1602179055506001600360003373ffffffffffffffffffffffffffffffffffffffff1673ffffffffffffffffffffffffffffffffffffffff16815260200190815260200160002060000160028282829054906101000a900461ffff160192506101000a81548161ffff021916908361ffff16021790555060016000808282829054906101000a900461ffff160192506101000a81548161ffff021916908361ffff16021790555050565b6000600360008373ffffffffffffffffffffffffffffffffffffffff1673ffffffffffffffffffffffffffffffffffffffff16815260200190815260200160002060000160049054906101000a900461ffff1661ffff169050919050565b600060036000600684815481101515611cd257fe5b9060005260206000200160009054906101000a900473ffffffffffffffffffffffffffffffffffffffff1673ffffffffffffffffffffffffffffffffffffffff1673ffffffffffffffffffffffffffffffffffffffff16815260200190815260200160002060000160029054906101000a900461ffff1661ffff169050919050565b606060036000600584815481101515611d6957fe5b9060005260206000200160009054906101000a900473ffffffffffffffffffffffffffffffffffffffff1673ffffffffffffffffffffffffffffffffffffffff1673ffffffffffffffffffffffffffffffffffffffff1681526020019081526020016000206004016000018054600181600116156101000203166002900480601f016020809104026020016040519081016040528092919081815260200182805460018160011615610100020316600290048015611e685780601f10611e3d57610100808354040283529160200191611e68565b820191906000526020600020905b815481529060010190602001808311611e4b57829003601f168201915b50505050509050919050565b6000600682815481101515611e8557fe5b9060005260206000200160009054906101000a900473ffffffffffffffffffffffffffffffffffffffff169050919050565b6000600360008373ffffffffffffffffffffffffffffffffffffffff1673ffffffffffffffffffffffffffffffffffffffff16815260200190815260200160002060000160009054906101000a900461ffff1661ffff169050919050565b606060018054600181600116156101000203166002900480601f016020809104026020016040519081016040528092919081815260200182805460018160011615610100020316600290048015611fad5780601f10611f8257610100808354040283529160200191611fad565b820191906000526020600020905b815481529060010190602001808311611f9057829003601f168201915b5050505050905090565b6060600360008373ffffffffffffffffffffffffffffffffffffffff1673ffffffffffffffffffffffffffffffffffffffff1681526020019081526020016000206002018054600181600116156101000203166002900480601f01602080910402602001604051908101604052809291908181526020018280546001816001161561010002031660029004801561208f5780601f106120645761010080835404028352916020019161208f565b820191906000526020600020905b81548152906001019060200180831161207257829003601f168201915b50505050509050919050565b6000817effffffffffffffffffffffffffffffffffffffffffffffffffffffffffffff19168284167effffffffffffffffffffffffffffffffffffffffffffffffffffffffffffff191614905092915050565b6005818154811015156120fd57fe5b906000526020600020016000915054906101000a900473ffffffffffffffffffffffffffffffffffffffff1681565b6000600360008373ffffffffffffffffffffffffffffffffffffffff1673ffffffffffffffffffffffffffffffffffffffff16815260200190815260200160002060000160009054906101000a900461ffff1661ffff169050919050565b600360003373ffffffffffffffffffffffffffffffffffffffff1673ffffffffffffffffffffffffffffffffffffffff16815260200190815260200160002060070160009054906101000a900460ff161515156121e657600080fd5b601983511015156121f657600080fd5b6014825110151561220657600080fd5b6004836040518082805190602001908083835b60208310151561223e5780518252602082019150602081019050602083039250612219565b6001836020036101000a038019825116818451168082178552505050505050905001915050908152602001604051809103902060009054906101000a900460ff1615151561228b57600080fd5b82600360003373ffffffffffffffffffffffffffffffffffffffff1673ffffffffffffffffffffffffffffffffffffffff16815260200190815260200160002060010190805190602001906122e1929190613eda565b5081600360003373ffffffffffffffffffffffffffffffffffffffff1673ffffffffffffffffffffffffffffffffffffffff1681526020019081526020016000206002019080519060200190612338929190613eda565b5080600360003373ffffffffffffffffffffffffffffffffffffffff1673ffffffffffffffffffffffffffffffffffffffff168152602001908152602001600020600301908051906020019061238f929190613eda565b5060016004846040518082805190602001908083835b6020831015156123ca57805182526020820191506020810190506020830392506123a5565b6001836020036101000a038019825116818451168082178552505050505050905001915050908152602001604051809103902060006101000a81548160ff0219169083151502179055506001600360003373ffffffffffffffffffffffffffffffffffffffff1673ffffffffffffffffffffffffffffffffffffffff16815260200190815260200160002060070160006101000a81548160ff02191690831515021790555060063390806001815401808255809150509060018203906000526020600020016000909192909190916101000a81548173ffffffffffffffffffffffffffffffffffffffff021916908373ffffffffffffffffffffffffffffffffffffffff16021790555050600860009054906101000a900473ffffffffffffffffffffffffffffffffffffffff1673ffffffffffffffffffffffffffffffffffffffff1663a6f2ae3a346040518263ffffffff167c01000000000000000000000000000000000000000000000000000000000281526004016000604051808303818588803b15801561255b57600080fd5b505af115801561256f573d6000803e3d6000fd5b5050505050600860009054906101000a900473ffffffffffffffffffffffffffffffffffffffff1673ffffffffffffffffffffffffffffffffffffffff1663a9059cbb336109c434026040518363ffffffff167c0100000000000000000000000000000000000000000000000000000000028152600401808373ffffffffffffffffffffffffffffffffffffffff1673ffffffffffffffffffffffffffffffffffffffff16815260200182815260200192505050600060405180830381600087803b15801561263d57600080fd5b505af1158015612651573d6000803e3d6000fd5b50505050505050565b6000600680549050905090565b6000600960009054906101000a900473ffffffffffffffffffffffffffffffffffffffff1673ffffffffffffffffffffffffffffffffffffffff166370a08231836040518263ffffffff167c0100000000000000000000000000000000000000000000000000000000028152600401808273ffffffffffffffffffffffffffffffffffffffff1673ffffffffffffffffffffffffffffffffffffffff16815260200191505060206040518083038186803b15801561272457600080fd5b505afa158015612738573d6000803e3d6000fd5b505050506040513d602081101561274e57600080fd5b81019080805190602001909291905050509050919050565b600043905090565b60008043600b54039050611b58811115801561278c57506117708110155b91505090565b6060600360008473ffffffffffffffffffffffffffffffffffffffff1673ffffffffffffffffffffffffffffffffffffffff16815260200190815260200160002060080160008381526020019081526020016000206001018054600181600116156101000203166002900480601f01602080910402602001604051908101604052809291908181526020018280546001816001161561010002031660029004801561287e5780601f106128535761010080835404028352916020019161287e565b820191906000526020600020905b81548152906001019060200180831161286157829003601f168201915b5050505050905092915050565b6000600360003373ffffffffffffffffffffffffffffffffffffffff1673ffffffffffffffffffffffffffffffffffffffff16815260200190815260200160002060090160008373ffffffffffffffffffffffffffffffffffffffff1673ffffffffffffffffffffffffffffffffffffffff1681526020019081526020016000206000600360008573ffffffffffffffffffffffffffffffffffffffff1673ffffffffffffffffffffffffffffffffffffffff16815260200190815260200160002060000160049054906101000a900461ffff1661ffff16815260200190815260200160002060009054906101000a900460ff169050919050565b6060600360008373ffffffffffffffffffffffffffffffffffffffff1673ffffffffffffffffffffffffffffffffffffffff1681526020019081526020016000206004016000018054600181600116156101000203166002900480601f016020809104026020016040519081016040528092919081815260200182805460018160011615610100020316600290048015612a615780601f10612a3657610100808354040283529160200191612a61565b820191906000526020600020905b815481529060010190602001808311612a4457829003601f168201915b50505050509050919050565b600681815481101515612a7c57fe5b906000526020600020016000915054906101000a900473ffffffffffffffffffffffffffffffffffffffff1681565b60008060029054906101000a900461ffff1661ffff16905090565b60006004826040518082805190602001908083835b602083101515612b005780518252602082019150602081019050602083039250612adb565b6001836020036101000a038019825116818451168082178552505050505050905001915050908152602001604051809103902060009054906101000a900460ff169050919050565b600060036000600584815481101515612b5d57fe5b9060005260206000200160009054906101000a900473ffffffffffffffffffffffffffffffffffffffff1673ffffffffffffffffffffffffffffffffffffffff1673ffffffffffffffffffffffffffffffffffffffff16815260200190815260200160002060040160020160009054906101000a900473ffffffffffffffffffffffffffffffffffffffff169050919050565b6000600360003373ffffffffffffffffffffffffffffffffffffffff1673ffffffffffffffffffffffffffffffffffffffff16815260200190815260200160002060070160009054906101000a900460ff16905090565b60008060049054906101000a900473ffffffffffffffffffffffffffffffffffffffff16905090565b600754600860009054906101000a900473ffffffffffffffffffffffffffffffffffffffff1673ffffffffffffffffffffffffffffffffffffffff166370a08231336040518263ffffffff167c0100000000000000000000000000000000000000000000000000000000028152600401808273ffffffffffffffffffffffffffffffffffffffff1673ffffffffffffffffffffffffffffffffffffffff16815260200191505060206040518083038186803b158015612d2e57600080fd5b505afa158015612d42573d6000803e3d6000fd5b505050506040513d6020811015612d5857600080fd5b8101908080519060200190929190505050111515612d7557600080fd5b600360003373ffffffffffffffffffffffffffffffffffffffff1673ffffffffffffffffffffffffffffffffffffffff16815260200190815260200160002060070160009054906101000a900460ff161515612dd057600080fd5b60008090505b8151811015612e0c57612dff8282815181101515612df057fe5b9060200190602002015161311e565b8080600101915050612dd6565b5050565b600043600b54039050611b588111151515612e2a57600080fd5b6117708110151515612e3b57600080fd5b612e43613d22565b600860009054906101000a900473ffffffffffffffffffffffffffffffffffffffff1673ffffffffffffffffffffffffffffffffffffffff1663be040fb06040518163ffffffff167c0100000000000000000000000000000000000000000000000000000000028152600401600060405180830381600087803b158015612ec957600080fd5b505af1158015612edd573d6000803e3d6000fd5b50505050612ee9613f5a565b60008090505b600580549050811015613009578160036000600584815481101515612f1057fe5b9060005260206000200160009054906101000a900473ffffffffffffffffffffffffffffffffffffffff1673ffffffffffffffffffffffffffffffffffffffff1673ffffffffffffffffffffffffffffffffffffffff1681526020019081526020016000206004016000820151816000019080519060200190612f94929190613f92565b506020820151816001019080519060200190612fb1929190613f92565b5060408201518160020160006101000a81548173ffffffffffffffffffffffffffffffffffffffff021916908373ffffffffffffffffffffffffffffffffffffffff1602179055509050508080600101915050612eef565b5060006005816130199190614012565b5043600b819055505050565b6060600360008473ffffffffffffffffffffffffffffffffffffffff1673ffffffffffffffffffffffffffffffffffffffff16815260200190815260200160002060080160008381526020019081526020016000206000018054600181600116156101000203166002900480601f0160208091040260200160405190810160405280929190818152602001828054600181600116156101000203166002900480156131115780601f106130e657610100808354040283529160200191613111565b820191906000526020600020905b8154815290600101906020018083116130f457829003601f168201915b5050505050905092915050565b600754600860009054906101000a900473ffffffffffffffffffffffffffffffffffffffff1673ffffffffffffffffffffffffffffffffffffffff166370a08231336040518263ffffffff167c0100000000000000000000000000000000000000000000000000000000028152600401808273ffffffffffffffffffffffffffffffffffffffff1673ffffffffffffffffffffffffffffffffffffffff16815260200191505060206040518083038186803b1580156131dc57600080fd5b505afa1580156131f0573d6000803e3d6000fd5b505050506040513d602081101561320657600080fd5b810190808051906020019092919050505011151561322357600080fd5b600360003373ffffffffffffffffffffffffffffffffffffffff1673ffffffffffffffffffffffffffffffffffffffff16815260200190815260200160002060070160009054906101000a900460ff16151561327e57600080fd5b6000811015151561328e57600080fd5b600580549050811015156132a157600080fd5b6132e36005828154811015156132b357fe5b9060005260206000200160009054906101000a900473ffffffffffffffffffffffffffffffffffffffff16611718565b50565b6060600360008373ffffffffffffffffffffffffffffffffffffffff1673ffffffffffffffffffffffffffffffffffffffff1681526020019081526020016000206003018054600181600116156101000203166002900480601f0160208091040260200160405190810160405280929190818152602001828054600181600116156101000203166002900480156133be5780601f10613393576101008083540402835291602001916133be565b820191906000526020600020905b8154815290600101906020018083116133a157829003601f168201915b50505050509050919050565b6060600360008373ffffffffffffffffffffffffffffffffffffffff1673ffffffffffffffffffffffffffffffffffffffff1681526020019081526020016000206001018054600181600116156101000203166002900480601f0160208091040260200160405190810160405280929190818152602001828054600181600116156101000203166002900480156134a25780601f10613477576101008083540402835291602001916134a2565b820191906000526020600020905b81548152906001019060200180831161348557829003601f168201915b50505050509050919050565b60008073ffffffffffffffffffffffffffffffffffffffff16600360003373ffffffffffffffffffffffffffffffffffffffff1673ffffffffffffffffffffffffffffffffffffffff16815260200190815260200160002060040160020160009054906101000a900473ffffffffffffffffffffffffffffffffffffffff1673ffffffffffffffffffffffffffffffffffffffff16149050919050565b60008060009054906101000a900461ffff1661ffff16905090565b6000811015151561357657600080fd5b6000821015151561358657600080fd5b600082600102905060008090505b602060ff1681101561368957600082826020811015156135b057fe5b1a7f01000000000000000000000000000000000000000000000000000000000000000290506000817f0100000000000000000000000000000000000000000000000000000000000000900460ff1614151561367b5760008090505b60088110156136795760008160020a90506000817f010000000000000000000000000000000000000000000000000000000000000002905061364d848261209b565b1561366a5761366961010088028487601f03600802010161311e565b5b5050808060010191505061360b565b505b508080600101915050613594565b50505050565b6000600580549050905090565b600754600860009054906101000a900473ffffffffffffffffffffffffffffffffffffffff1673ffffffffffffffffffffffffffffffffffffffff166370a08231336040518263ffffffff167c0100000000000000000000000000000000000000000000000000000000028152600401808273ffffffffffffffffffffffffffffffffffffffff1673ffffffffffffffffffffffffffffffffffffffff16815260200191505060206040518083038186803b15801561375a57600080fd5b505afa15801561376e573d6000803e3d6000fd5b505050506040513d602081101561378457600080fd5b81019080805190602001909291905050501115156137a157600080fd5b600360003373ffffffffffffffffffffffffffffffffffffffff1673ffffffffffffffffffffffffffffffffffffffff16815260200190815260200160002060070160009054906101000a900460ff1615156137fc57600080fd5b602e835114151561380c57600080fd5b6014825110151561381c57600080fd5b600073ffffffffffffffffffffffffffffffffffffffff16600360003373ffffffffffffffffffffffffffffffffffffffff1673ffffffffffffffffffffffffffffffffffffffff16815260200190815260200160002060040160020160009054906101000a900473ffffffffffffffffffffffffffffffffffffffff1673ffffffffffffffffffffffffffffffffffffffff161415156138bc57600080fd5b6138c4613f5a565b83816000018190525081816040019073ffffffffffffffffffffffffffffffffffffffff16908173ffffffffffffffffffffffffffffffffffffffff168152505082816020018190525080600360003373ffffffffffffffffffffffffffffffffffffffff1673ffffffffffffffffffffffffffffffffffffffff168152602001908152602001600020600401600082015181600001908051906020019061396d929190613f92565b50602082015181600101908051906020019061398a929190613f92565b5060408201518160020160006101000a81548173ffffffffffffffffffffffffffffffffffffffff021916908373ffffffffffffffffffffffffffffffffffffffff16021790555090505080600360003373ffffffffffffffffffffffffffffffffffffffff1673ffffffffffffffffffffffffffffffffffffffff1681526020019081526020016000206008016000600360003373ffffffffffffffffffffffffffffffffffffffff1673ffffffffffffffffffffffffffffffffffffffff16815260200190815260200160002060000160049054906101000a900461ffff1661ffff1681526020019081526020016000206000820151816000019080519060200190613a99929190613f92565b506020820151816001019080519060200190613ab6929190613f92565b5060408201518160020160006101000a81548173ffffffffffffffffffffffffffffffffffffffff021916908373ffffffffffffffffffffffffffffffffffffffff1602179055509050506001600060028282829054906101000a900461ffff160192506101000a81548161ffff021916908361ffff1602179055506001600360003373ffffffffffffffffffffffffffffffffffffffff1673ffffffffffffffffffffffffffffffffffffffff16815260200190815260200160002060000160048282829054906101000a900461ffff160192506101000a81548161ffff021916908361ffff1602179055506001600360003373ffffffffffffffffffffffffffffffffffffffff1673ffffffffffffffffffffffffffffffffffffffff16815260200190815260200160002060000160028282829054906101000a900461ffff160192506101000a81548161ffff021916908361ffff16021790555060053390806001815401808255809150509060018203906000526020600020016000909192909190916101000a81548173ffffffffffffffffffffffffffffffffffffffff021916908373ffffffffffffffffffffffffffffffffffffffff1602179055505050505050565b606060028054600181600116156101000203166002900480601f016020809104026020016040519081016040528092919081815260200182805460018160011615610100020316600290048015613d185780601f10613ced57610100808354040283529160200191613d18565b820191906000526020600020905b815481529060010190602001808311613cfb57829003601f168201915b5050505050905090565b60008060009054906101000a900461ffff1661ffff16434260405160200180828152602001915050604051602081830303815290604052805190602001206001900401811515613d6e57fe5b06905060008090506000809050600080905060008090505b60058054905081108015613d98575081155b15613e4c5760036000600583815481101515613db057fe5b9060005260206000200160009054906101000a900473ffffffffffffffffffffffffffffffffffffffff1673ffffffffffffffffffffffffffffffffffffffff1673ffffffffffffffffffffffffffffffffffffffff16815260200190815260200160002060000160009054906101000a900461ffff1661ffff168401935084841115613e3f57809250600191505b8080600101915050613d86565b50613e5682611d54565b60019080519060200190613e6b929190613eda565b50613e7582612b48565b600060046101000a81548173ffffffffffffffffffffffffffffffffffffffff021916908373ffffffffffffffffffffffffffffffffffffffff160217905550613ebe826115f8565b60029080519060200190613ed3929190613eda565b5050505050565b828054600181600116156101000203166002900490600052602060002090601f016020900481019282601f10613f1b57805160ff1916838001178555613f49565b82800160010185558215613f49579182015b82811115613f48578251825591602001919060010190613f2d565b5b509050613f56919061403e565b5090565b6060604051908101604052806060815260200160608152602001600073ffffffffffffffffffffffffffffffffffffffff1681525090565b828054600181600116156101000203166002900490600052602060002090601f016020900481019282601f10613fd357805160ff1916838001178555614001565b82800160010185558215614001579182015b82811115614000578251825591602001919060010190613fe5565b5b50905061400e919061403e565b5090565b81548183558181111561403957818360005260206000209182019101614038919061403e565b5b505050565b61406091905b8082111561405c576000816000905550600101614044565b5090565b9056fea165627a7a723058204733b53291f8a00b3cab9d9ccbce228be3128b65d7b3d7cb952b017a8eed72090029",
  "source": "pragma solidity ^0.5.0;\n// We have to specify what version of compiler this code will compile with\n\nimport \"../contracts/Token.sol\";\nimport \"../contracts/Trophies.sol\";\n\ncontract Hashes{\n\n  uint16 totalVotes;\n  uint16 totalPhotos;\n  address winnerAddress;\n  string winnerHash;\n  string winnerCaption;\n\n  struct hashes{\n         string hash;\n         string caption;\n         address addr;\n  }\n\n  struct properties{\n      uint16 votesReceived;\n      uint16 actionsDone;\n      uint16 photosPosted;\n      string name;\n      string profileName;\n      string profileImage;\n      hashes registry;\n      bool participated;\n      mapping(uint256 => hashes) allPosts;\n      mapping(address => mapping (uint256 => bool)) votedFor;\n  }\n\n  mapping(address => properties) address_properties;\n  mapping(string => bool) nameTaken;\n  address[] public participants;\n  address[] public all_participants;\n  uint minTokens;\n  MyToken token;\n  MyTrophy trophy;\n  address payable token_address;\n  uint pastBlockNumber;\n  uint rewardScalar;\n\n\n\n\n\n  constructor(uint _minTokens, address payable _myToken, address _myTrophy) public{\n    minTokens = _minTokens;\n    token = MyToken(_myToken);\n    token_address = _myToken;\n    token.setAddress(address(this));\n    trophy = MyTrophy(_myTrophy);\n    trophy.setAddress(address(this));\n    pastBlockNumber = block.number;\n\n  }\n\n  function addHash(string memory _ipfsHash, string memory _caption, address _ipfsAddress) public enoughCoins validAccount{\n     require (bytes(_ipfsHash).length == 46);\n     require (bytes(_caption).length < 20);\n     require (address_properties[msg.sender].registry.addr == address(0));\n     hashes memory myHash;\n     myHash.hash = _ipfsHash;\n     myHash.addr = _ipfsAddress;\n     myHash.caption = _caption;\n     address_properties[msg.sender].registry = myHash;\n     address_properties[msg.sender].allPosts[address_properties[msg.sender].photosPosted] = myHash;\n     totalPhotos += 1;\n     address_properties[msg.sender].photosPosted += 1;\n     address_properties[msg.sender].actionsDone += 1;\n     participants.push(msg.sender);\n  }\n\n  modifier enoughCoins() {\n\t\tif (!(token.balanceOf(msg.sender) > minTokens)) revert();\n\t\t_;\n\t}\n\n  modifier validAccount() {\n\t\tif (!(address_properties[msg.sender].participated)) revert();\n\t\t_;\n\t}\n\n  function voteForCandidate(address candidate) public enoughCoins validAccount{\n  \trequire (keccak256(abi.encodePacked(msg.sender)) != keccak256(abi.encodePacked(candidate)));\n    require (address_properties[msg.sender].votedFor[candidate][address_properties[candidate].photosPosted] == false);\n    address_properties[msg.sender].votedFor[candidate][address_properties[candidate].photosPosted] = true;\n    address_properties[candidate].votesReceived += 1;\n    address_properties[msg.sender].actionsDone += 1;\n  \ttotalVotes += 1;\n\n  }\n\n  function registerAccount(string memory _name, string memory _profileName, string memory _ipfsHash) public payable{\n     require (!address_properties[msg.sender].participated);\n     require (bytes(_name).length < 25);\n     require (bytes(_profileName).length < 20);\n     require (!nameTaken[_name]);\n     //require (bytes(_ipfsHash).length == 46);\n     address_properties[msg.sender].name = _name;\n     address_properties[msg.sender].profileName = _profileName;\n     address_properties[msg.sender].profileImage = _ipfsHash;\n     nameTaken[_name] = true;\n     address_properties[msg.sender].participated = true;\n     all_participants.push(msg.sender);\n     token.buy.value(msg.value)();\n     token.transfer(msg.sender, msg.value*2500);\n\n  }\n\n  function accountRegistered() public view returns (bool){\n    return (address_properties[msg.sender].participated);\n  }\n\n  function voteByIndex(uint candidate_index) public enoughCoins validAccount{\n    require(candidate_index >= 0);\n    require(candidate_index < participants.length);\n  \tvoteForCandidate(participants[candidate_index]);\n  }\n\n  function voteForListByIndex(uint[] memory candidates_indexes) public enoughCoins validAccount{\n    for (uint i = 0; i < candidates_indexes.length; i++){\n        voteByIndex(candidates_indexes[i]);\n    }\n  }\n\n  function bitSet(byte b, byte a) public returns (bool){\n    return (b & a == a);\n  }\n\n  function voteForListByBitString(uint n, uint shift) public{\n    require(shift >= 0);\n    require(n >= 0);\n\n    bytes32 byteArray = bytes32(n);\n    for (uint i = 0; i < byteArray.length; i++){\n        byte temp = byteArray[i];\n        if (uint8(temp) != 0){\n            for (uint j = 0; j < 8; j++){\n              uint8 num = uint8(2 ** j);\n              byte value = byte(num);\n              if (bitSet(temp, value)){\n                voteByIndex(8*(31 - i)+j+shift*256);\n              }\n            }\n        }\n    }\n  }\n\n\n  function getWinner() internal {\n    uint random = uint((uint(keccak256(abi.encodePacked((block.timestamp)))) + block.number) % totalVotes);\n    uint num = 0;\n    uint winnerIndex = 0;\n    bool done = false;\n\n    for (uint i = 0; i < participants.length && !done; i++){\n      num += (address_properties[participants[i]].votesReceived);\n      if (num > random){\n        winnerIndex = i;\n        done = true;\n      }\n    }\n    winnerHash = getList(winnerIndex);\n    winnerAddress = getAddress(winnerIndex);\n    winnerCaption = getCaption(winnerIndex);\n\n  }\n\n  function returnWinnerHash() public view returns (string memory){\n  \treturn winnerHash;\n  }\n\n  function returnWinnerAddress() public view returns (address){\n  \treturn winnerAddress;\n  }\n\n  function returnWinnerCaption() public view returns (string memory){\n  \treturn winnerCaption;\n  }\n\n\n  function getList(uint x) public view returns (string memory){\n  \treturn address_properties[participants[x]].registry.hash;\n  }\n\n  function viewPhotos(address _owner, uint index) public view returns (string memory){\n  \treturn address_properties[_owner].allPosts[index].hash;\n  }\n\n  function viewCaption(address _owner, uint index) public view returns (string memory){\n    return address_properties[_owner].allPosts[index].caption;\n  }\n\n  function getListByAddress(address x) public view returns (string memory){\n  \treturn address_properties[x].registry.hash;\n  }\n\n  function getCaption(uint x) public view returns (string memory){\n    return address_properties[participants[x]].registry.caption;\n  }\n\n  function getAddress(uint x) public view returns (address){\n  \treturn address_properties[participants[x]].registry.addr;\n  }\n\n  function returnTotalVotes() public view returns (uint){\n    return totalVotes;\n  }\n\n  function returnTotalPhotos() public view returns (uint){\n    return totalPhotos;\n  }\n\n  function totalVotesFor(address x) public view returns(uint){\n  \treturn address_properties[x].votesReceived;\n  }\n\n  function listLength() public view returns (uint){\n  \treturn participants.length;\n  }\n\n  function numParticipants() public view returns (uint){\n    return all_participants.length;\n  }\n\n  function likedPhoto(address x) public view returns (bool){\n    return address_properties[msg.sender].votedFor[x][address_properties[x].photosPosted];\n  }\n\n  function getParticipant(uint x) public view returns (address){\n    return all_participants[x];\n  }\n\n  function numActions(uint x) public view returns (uint){\n    return address_properties[all_participants[x]].actionsDone;\n  }\n\n  function totalVotesReceived(address x) public view returns(uint){\n    return address_properties[x].votesReceived;\n  }\n\n  function totalPhotosPosted(address x) public view returns(uint){\n    return address_properties[x].photosPosted;\n  }\n\n  function totalTrophies(address x) public view returns(uint){\n    return trophy.balanceOf(x);\n  }\n\n  function getUserName (address x) public view returns(string memory){\n    return address_properties[x].name;\n  }\n  function getProfileName (address x) public view returns(string memory){\n    return address_properties[x].profileName;\n  }\n  function getProfileImage (address x) public view returns(string memory){\n    return address_properties[x].profileImage;\n  }\n  function isNameTaken (string memory _name) public view returns(bool){\n    return (nameTaken[_name]);\n  }\n  function alreadyPosted (address x) public view returns(bool){\n    return (address_properties[msg.sender].registry.addr == address(0));\n  }\n\n  function timeLocked() public view returns(bool){\n    uint timeSince = pastBlockNumber - block.number;\n    return (timeSince <= 7000 && timeSince >= 6000);\n  }\n\n  function newRound() public{\n    uint timeSince = pastBlockNumber - block.number;\n    require(timeSince <= 7000);\n    require(timeSince >= 6000);\n\n    getWinner();\n    token.redeem();\n    hashes memory myHash;\n    for (uint i = 0; i < participants.length; i++){\n      address_properties[participants[i]].registry = myHash;\n    }\n    participants.length = 0;\n      pastBlockNumber = block.number;\n  }\n\n\n    function getTime() public view returns(uint) {\n      //This function should be deleted before production\n\n      return block.number;\n    }\n\n}\n",
  "sourcePath": "/Users/ryachen/Desktop/Quest/eth-chain/app/contracts/Hashes.sol",
  "compiler": {
    "name": "solc",
    "version": "0.5.0+commit.1d4f565a.Emscripten.clang"
  },
  "schemaVersion": "3.0.6",
  "updatedAt": "2019-05-15T16:51:24.458Z",
  "devdoc": {
    "methods": {}
  },
  "userdoc": {
    "methods": {}
  }
}