{
  "contractName": "Hashes",
  "abi": [
    {
      "constant": true,
      "inputs": [
        {
          "name": "",
          "type": "uint256"
        }
      ],
      "name": "participants",
      "outputs": [
        {
          "name": "",
          "type": "address"
        }
      ],
      "payable": false,
      "stateMutability": "view",
      "type": "function"
    },
    {
      "constant": true,
      "inputs": [
        {
          "name": "",
          "type": "uint256"
        }
      ],
      "name": "all_participants",
      "outputs": [
        {
          "name": "",
          "type": "address"
        }
      ],
      "payable": false,
      "stateMutability": "view",
      "type": "function"
    },
    {
      "inputs": [
        {
          "name": "_minTokens",
          "type": "uint256"
        },
        {
          "name": "_myToken",
          "type": "address"
        },
        {
          "name": "_myTrophy",
          "type": "address"
        }
      ],
      "payable": false,
      "stateMutability": "nonpayable",
      "type": "constructor"
    },
    {
      "constant": false,
      "inputs": [
        {
          "name": "_ipfsHash",
          "type": "string"
        },
        {
          "name": "_caption",
          "type": "string"
        },
        {
          "name": "_ipfsAddress",
          "type": "address"
        }
      ],
      "name": "addHash",
      "outputs": [],
      "payable": false,
      "stateMutability": "nonpayable",
      "type": "function"
    },
    {
      "constant": false,
      "inputs": [
        {
          "name": "candidate",
          "type": "address"
        }
      ],
      "name": "voteForCandidate",
      "outputs": [],
      "payable": false,
      "stateMutability": "nonpayable",
      "type": "function"
    },
    {
      "constant": false,
      "inputs": [
        {
          "name": "_name",
          "type": "string"
        },
        {
          "name": "_profileName",
          "type": "string"
        },
        {
          "name": "_ipfsHash",
          "type": "string"
        }
      ],
      "name": "registerAccount",
      "outputs": [],
      "payable": true,
      "stateMutability": "payable",
      "type": "function"
    },
    {
      "constant": true,
      "inputs": [],
      "name": "accountRegistered",
      "outputs": [
        {
          "name": "",
          "type": "bool"
        }
      ],
      "payable": false,
      "stateMutability": "view",
      "type": "function"
    },
    {
      "constant": false,
      "inputs": [
        {
          "name": "candidate_index",
          "type": "uint256"
        }
      ],
      "name": "voteByIndex",
      "outputs": [],
      "payable": false,
      "stateMutability": "nonpayable",
      "type": "function"
    },
    {
      "constant": false,
      "inputs": [
        {
          "name": "candidates_indexes",
          "type": "uint256[]"
        }
      ],
      "name": "voteForListByIndex",
      "outputs": [],
      "payable": false,
      "stateMutability": "nonpayable",
      "type": "function"
    },
    {
      "constant": false,
      "inputs": [
        {
          "name": "b",
          "type": "bytes1"
        },
        {
          "name": "a",
          "type": "bytes1"
        }
      ],
      "name": "bitSet",
      "outputs": [
        {
          "name": "",
          "type": "bool"
        }
      ],
      "payable": false,
      "stateMutability": "nonpayable",
      "type": "function"
    },
    {
      "constant": false,
      "inputs": [
        {
          "name": "n",
          "type": "uint256"
        },
        {
          "name": "shift",
          "type": "uint256"
        }
      ],
      "name": "voteForListByBitString",
      "outputs": [],
      "payable": false,
      "stateMutability": "nonpayable",
      "type": "function"
    },
    {
      "constant": true,
      "inputs": [],
      "name": "returnWinnerHash",
      "outputs": [
        {
          "name": "",
          "type": "string"
        }
      ],
      "payable": false,
      "stateMutability": "view",
      "type": "function"
    },
    {
      "constant": true,
      "inputs": [],
      "name": "returnWinnerAddress",
      "outputs": [
        {
          "name": "",
          "type": "address"
        }
      ],
      "payable": false,
      "stateMutability": "view",
      "type": "function"
    },
    {
      "constant": true,
      "inputs": [],
      "name": "returnWinnerCaption",
      "outputs": [
        {
          "name": "",
          "type": "string"
        }
      ],
      "payable": false,
      "stateMutability": "view",
      "type": "function"
    },
    {
      "constant": true,
      "inputs": [
        {
          "name": "x",
          "type": "uint256"
        }
      ],
      "name": "getList",
      "outputs": [
        {
          "name": "",
          "type": "string"
        }
      ],
      "payable": false,
      "stateMutability": "view",
      "type": "function"
    },
    {
      "constant": true,
      "inputs": [
        {
          "name": "_owner",
          "type": "address"
        },
        {
          "name": "index",
          "type": "uint256"
        }
      ],
      "name": "viewPhotos",
      "outputs": [
        {
          "name": "",
          "type": "string"
        }
      ],
      "payable": false,
      "stateMutability": "view",
      "type": "function"
    },
    {
      "constant": true,
      "inputs": [
        {
          "name": "_owner",
          "type": "address"
        },
        {
          "name": "index",
          "type": "uint256"
        }
      ],
      "name": "viewCaption",
      "outputs": [
        {
          "name": "",
          "type": "string"
        }
      ],
      "payable": false,
      "stateMutability": "view",
      "type": "function"
    },
    {
      "constant": true,
      "inputs": [
        {
          "name": "x",
          "type": "address"
        }
      ],
      "name": "getListByAddress",
      "outputs": [
        {
          "name": "",
          "type": "string"
        }
      ],
      "payable": false,
      "stateMutability": "view",
      "type": "function"
    },
    {
      "constant": true,
      "inputs": [
        {
          "name": "x",
          "type": "uint256"
        }
      ],
      "name": "getCaption",
      "outputs": [
        {
          "name": "",
          "type": "string"
        }
      ],
      "payable": false,
      "stateMutability": "view",
      "type": "function"
    },
    {
      "constant": true,
      "inputs": [
        {
          "name": "x",
          "type": "uint256"
        }
      ],
      "name": "getAddress",
      "outputs": [
        {
          "name": "",
          "type": "address"
        }
      ],
      "payable": false,
      "stateMutability": "view",
      "type": "function"
    },
    {
      "constant": true,
      "inputs": [],
      "name": "returnTotalVotes",
      "outputs": [
        {
          "name": "",
          "type": "uint256"
        }
      ],
      "payable": false,
      "stateMutability": "view",
      "type": "function"
    },
    {
      "constant": true,
      "inputs": [],
      "name": "returnTotalPhotos",
      "outputs": [
        {
          "name": "",
          "type": "uint256"
        }
      ],
      "payable": false,
      "stateMutability": "view",
      "type": "function"
    },
    {
      "constant": true,
      "inputs": [
        {
          "name": "x",
          "type": "address"
        }
      ],
      "name": "totalVotesFor",
      "outputs": [
        {
          "name": "",
          "type": "uint256"
        }
      ],
      "payable": false,
      "stateMutability": "view",
      "type": "function"
    },
    {
      "constant": true,
      "inputs": [],
      "name": "listLength",
      "outputs": [
        {
          "name": "",
          "type": "uint256"
        }
      ],
      "payable": false,
      "stateMutability": "view",
      "type": "function"
    },
    {
      "constant": true,
      "inputs": [],
      "name": "numParticipants",
      "outputs": [
        {
          "name": "",
          "type": "uint256"
        }
      ],
      "payable": false,
      "stateMutability": "view",
      "type": "function"
    },
    {
      "constant": true,
      "inputs": [
        {
          "name": "x",
          "type": "address"
        }
      ],
      "name": "likedPhoto",
      "outputs": [
        {
          "name": "",
          "type": "bool"
        }
      ],
      "payable": false,
      "stateMutability": "view",
      "type": "function"
    },
    {
      "constant": true,
      "inputs": [
        {
          "name": "x",
          "type": "uint256"
        }
      ],
      "name": "getParticipant",
      "outputs": [
        {
          "name": "",
          "type": "address"
        }
      ],
      "payable": false,
      "stateMutability": "view",
      "type": "function"
    },
    {
      "constant": true,
      "inputs": [
        {
          "name": "x",
          "type": "uint256"
        }
      ],
      "name": "numActions",
      "outputs": [
        {
          "name": "",
          "type": "uint256"
        }
      ],
      "payable": false,
      "stateMutability": "view",
      "type": "function"
    },
    {
      "constant": true,
      "inputs": [
        {
          "name": "x",
          "type": "address"
        }
      ],
      "name": "totalVotesReceived",
      "outputs": [
        {
          "name": "",
          "type": "uint256"
        }
      ],
      "payable": false,
      "stateMutability": "view",
      "type": "function"
    },
    {
      "constant": true,
      "inputs": [
        {
          "name": "x",
          "type": "address"
        }
      ],
      "name": "totalPhotosPosted",
      "outputs": [
        {
          "name": "",
          "type": "uint256"
        }
      ],
      "payable": false,
      "stateMutability": "view",
      "type": "function"
    },
    {
      "constant": true,
      "inputs": [
        {
          "name": "x",
          "type": "address"
        }
      ],
      "name": "getUserName",
      "outputs": [
        {
          "name": "",
          "type": "string"
        }
      ],
      "payable": false,
      "stateMutability": "view",
      "type": "function"
    },
    {
      "constant": true,
      "inputs": [
        {
          "name": "x",
          "type": "address"
        }
      ],
      "name": "getProfileName",
      "outputs": [
        {
          "name": "",
          "type": "string"
        }
      ],
      "payable": false,
      "stateMutability": "view",
      "type": "function"
    },
    {
      "constant": true,
      "inputs": [
        {
          "name": "x",
          "type": "address"
        }
      ],
      "name": "getProfileImage",
      "outputs": [
        {
          "name": "",
          "type": "string"
        }
      ],
      "payable": false,
      "stateMutability": "view",
      "type": "function"
    },
    {
      "constant": true,
      "inputs": [
        {
          "name": "_name",
          "type": "string"
        }
      ],
      "name": "isNameTaken",
      "outputs": [
        {
          "name": "",
          "type": "bool"
        }
      ],
      "payable": false,
      "stateMutability": "view",
      "type": "function"
    },
    {
      "constant": true,
      "inputs": [
        {
          "name": "x",
          "type": "address"
        }
      ],
      "name": "alreadyPosted",
      "outputs": [
        {
          "name": "",
          "type": "bool"
        }
      ],
      "payable": false,
      "stateMutability": "view",
      "type": "function"
    },
    {
      "constant": false,
      "inputs": [],
      "name": "newRound",
      "outputs": [],
      "payable": false,
      "stateMutability": "nonpayable",
      "type": "function"
    },
    {
      "constant": true,
      "inputs": [],
      "name": "getTime",
      "outputs": [
        {
          "name": "",
          "type": "uint256"
        }
      ],
      "payable": false,
      "stateMutability": "view",
      "type": "function"
    }
  ],
  "bytecode": "0x60806040523480156200001157600080fd5b5060405160608062004099833981018060405260608110156200003357600080fd5b810190808051906020019092919080519060200190929190805190602001909291905050508260078190555081600860006101000a81548173ffffffffffffffffffffffffffffffffffffffff021916908373ffffffffffffffffffffffffffffffffffffffff16021790555081600960006101000a81548173ffffffffffffffffffffffffffffffffffffffff021916908373ffffffffffffffffffffffffffffffffffffffff160217905550600860009054906101000a900473ffffffffffffffffffffffffffffffffffffffff1673ffffffffffffffffffffffffffffffffffffffff1663e30081a0306040518263ffffffff167c0100000000000000000000000000000000000000000000000000000000028152600401808273ffffffffffffffffffffffffffffffffffffffff1673ffffffffffffffffffffffffffffffffffffffff168152602001915050600060405180830381600087803b1580156200019f57600080fd5b505af1158015620001b4573d6000803e3d6000fd5b5050505043600a81905550505050613ec780620001d26000396000f3fe6080604052600436106101c2576000357c0100000000000000000000000000000000000000000000000000000000900463ffffffff1680630257e249146101c7578063163046eb1461027b57806318359009146102cc578063186d45ac146103315780631ab5b383146103805780631b9db2ef14610434578063287e0c8e146104af5780632f8f7cf11461051457806333661b29146105a4578063342f3fde1461066e57806335c1d3491461070f5780634041ef541461078a578063412fac67146107ef5780634e76a846146109d8578063557ed1ba14610a0357806379c52b7314610a2e5780638177d11b14610b025780638516ff3314610b6b5780638eee554614610c35578063a7eb9e2e14610cb0578063b3da4e3414610cdb578063b93f9b0a14610dbb578063b9d3198114610e36578063bb0bd6e514610e65578063bc5d878714610ebc578063c5b1d9aa14610f81578063c7689b0d14610f98578063cc4709f01461106c578063d2c8dd35146110a7578063d84f55ee14611171578063e06b4db71461123b578063e36fccc9146112a4578063f9d52abe146112cf578063fb6f049f14611314578063fbccabd71461133f578063fe90acf6146114be575b600080fd5b3480156101d357600080fd5b50610200600480360360208110156101ea57600080fd5b810190808035906020019092919050505061154e565b6040518080602001828103825283818151815260200191508051906020019080838360005b83811015610240578082015181840152602081019050610225565b50505050905090810190601f16801561026d5780820380516001836020036101000a031916815260200191505b509250505060405180910390f35b34801561028757600080fd5b506102ca6004803603602081101561029e57600080fd5b81019080803573ffffffffffffffffffffffffffffffffffffffff16906020019092919050505061166e565b005b3480156102d857600080fd5b5061031b600480360360208110156102ef57600080fd5b81019080803573ffffffffffffffffffffffffffffffffffffffff169060200190929190505050611bb5565b6040518082815260200191505060405180910390f35b34801561033d57600080fd5b5061036a6004803603602081101561035457600080fd5b8101908080359060200190929190505050611c13565b6040518082815260200191505060405180910390f35b34801561038c57600080fd5b506103b9600480360360208110156103a357600080fd5b8101908080359060200190929190505050611caa565b6040518080602001828103825283818151815260200191508051906020019080838360005b838110156103f95780820151818401526020810190506103de565b50505050905090810190601f1680156104265780820380516001836020036101000a031916815260200191505b509250505060405180910390f35b34801561044057600080fd5b5061046d6004803603602081101561045757600080fd5b8101908080359060200190929190505050611dca565b604051808273ffffffffffffffffffffffffffffffffffffffff1673ffffffffffffffffffffffffffffffffffffffff16815260200191505060405180910390f35b3480156104bb57600080fd5b506104fe600480360360208110156104d257600080fd5b81019080803573ffffffffffffffffffffffffffffffffffffffff169060200190929190505050611e0d565b6040518082815260200191505060405180910390f35b34801561052057600080fd5b50610529611e6b565b6040518080602001828103825283818151815260200191508051906020019080838360005b8381101561056957808201518184015260208101905061054e565b50505050905090810190601f1680156105965780820380516001836020036101000a031916815260200191505b509250505060405180910390f35b3480156105b057600080fd5b506105f3600480360360208110156105c757600080fd5b81019080803573ffffffffffffffffffffffffffffffffffffffff169060200190929190505050611f0d565b6040518080602001828103825283818151815260200191508051906020019080838360005b83811015610633578082015181840152602081019050610618565b50505050905090810190601f1680156106605780820380516001836020036101000a031916815260200191505b509250505060405180910390f35b34801561067a57600080fd5b506106f56004803603604081101561069157600080fd5b8101908080357effffffffffffffffffffffffffffffffffffffffffffffffffffffffffffff1916906020019092919080357effffffffffffffffffffffffffffffffffffffffffffffffffffffffffffff19169060200190929190505050611ff1565b604051808215151515815260200191505060405180910390f35b34801561071b57600080fd5b506107486004803603602081101561073257600080fd5b8101908080359060200190929190505050612044565b604051808273ffffffffffffffffffffffffffffffffffffffff1673ffffffffffffffffffffffffffffffffffffffff16815260200191505060405180910390f35b34801561079657600080fd5b506107d9600480360360208110156107ad57600080fd5b81019080803573ffffffffffffffffffffffffffffffffffffffff169060200190929190505050612082565b6040518082815260200191505060405180910390f35b6109d66004803603606081101561080557600080fd5b810190808035906020019064010000000081111561082257600080fd5b82018360208201111561083457600080fd5b8035906020019184600183028401116401000000008311171561085657600080fd5b91908080601f016020809104026020016040519081016040528093929190818152602001838380828437600081840152601f19601f820116905080830192505050505050509192919290803590602001906401000000008111156108b957600080fd5b8201836020820111156108cb57600080fd5b803590602001918460018302840111640100000000831117156108ed57600080fd5b91908080601f016020809104026020016040519081016040528093929190818152602001838380828437600081840152601f19601f8201169050808301925050505050505091929192908035906020019064010000000081111561095057600080fd5b82018360208201111561096257600080fd5b8035906020019184600183028401116401000000008311171561098457600080fd5b91908080601f016020809104026020016040519081016040528093929190818152602001838380828437600081840152601f19601f8201169050808301925050505050505091929192905050506120e0565b005b3480156109e457600080fd5b506109ed6125b0565b6040518082815260200191505060405180910390f35b348015610a0f57600080fd5b50610a186125bd565b6040518082815260200191505060405180910390f35b348015610a3a57600080fd5b50610a8760048036036040811015610a5157600080fd5b81019080803573ffffffffffffffffffffffffffffffffffffffff169060200190929190803590602001909291905050506125c9565b6040518080602001828103825283818151815260200191508051906020019080838360005b83811015610ac7578082015181840152602081019050610aac565b50505050905090810190601f168015610af45780820380516001836020036101000a031916815260200191505b509250505060405180910390f35b348015610b0e57600080fd5b50610b5160048036036020811015610b2557600080fd5b81019080803573ffffffffffffffffffffffffffffffffffffffff1690602001909291905050506126c2565b604051808215151515815260200191505060405180910390f35b348015610b7757600080fd5b50610bba60048036036020811015610b8e57600080fd5b81019080803573ffffffffffffffffffffffffffffffffffffffff1690602001909291905050506127bd565b6040518080602001828103825283818151815260200191508051906020019080838360005b83811015610bfa578082015181840152602081019050610bdf565b50505050905090810190601f168015610c275780820380516001836020036101000a031916815260200191505b509250505060405180910390f35b348015610c4157600080fd5b50610c6e60048036036020811015610c5857600080fd5b81019080803590602001909291905050506128a4565b604051808273ffffffffffffffffffffffffffffffffffffffff1673ffffffffffffffffffffffffffffffffffffffff16815260200191505060405180910390f35b348015610cbc57600080fd5b50610cc56128e2565b6040518082815260200191505060405180910390f35b348015610ce757600080fd5b50610da160048036036020811015610cfe57600080fd5b8101908080359060200190640100000000811115610d1b57600080fd5b820183602082011115610d2d57600080fd5b80359060200191846001830284011164010000000083111715610d4f57600080fd5b91908080601f016020809104026020016040519081016040528093929190818152602001838380828437600081840152601f19601f8201169050808301925050505050505091929192905050506128fd565b604051808215151515815260200191505060405180910390f35b348015610dc757600080fd5b50610df460048036036020811015610dde57600080fd5b810190808035906020019092919050505061297f565b604051808273ffffffffffffffffffffffffffffffffffffffff1673ffffffffffffffffffffffffffffffffffffffff16815260200191505060405180910390f35b348015610e4257600080fd5b50610e4b612a27565b604051808215151515815260200191505060405180910390f35b348015610e7157600080fd5b50610e7a612a7e565b604051808273ffffffffffffffffffffffffffffffffffffffff1673ffffffffffffffffffffffffffffffffffffffff16815260200191505060405180910390f35b348015610ec857600080fd5b50610f7f60048036036020811015610edf57600080fd5b8101908080359060200190640100000000811115610efc57600080fd5b820183602082011115610f0e57600080fd5b80359060200191846020830284011164010000000083111715610f3057600080fd5b919080806020026020016040519081016040528093929190818152602001838360200280828437600081840152601f19601f820116905080830192505050505050509192919290505050612aa7565b005b348015610f8d57600080fd5b50610f96612c47565b005b348015610fa457600080fd5b50610ff160048036036040811015610fbb57600080fd5b81019080803573ffffffffffffffffffffffffffffffffffffffff16906020019092919080359060200190929190505050612e5d565b6040518080602001828103825283818151815260200191508051906020019080838360005b83811015611031578082015181840152602081019050611016565b50505050905090810190601f16801561105e5780820380516001836020036101000a031916815260200191505b509250505060405180910390f35b34801561107857600080fd5b506110a56004803603602081101561108f57600080fd5b8101908080359060200190929190505050612f56565b005b3480156110b357600080fd5b506110f6600480360360208110156110ca57600080fd5b81019080803573ffffffffffffffffffffffffffffffffffffffff16906020019092919050505061311e565b6040518080602001828103825283818151815260200191508051906020019080838360005b8381101561113657808201518184015260208101905061111b565b50505050905090810190601f1680156111635780820380516001836020036101000a031916815260200191505b509250505060405180910390f35b34801561117d57600080fd5b506111c06004803603602081101561119457600080fd5b81019080803573ffffffffffffffffffffffffffffffffffffffff169060200190929190505050613202565b6040518080602001828103825283818151815260200191508051906020019080838360005b838110156112005780820151818401526020810190506111e5565b50505050905090810190601f16801561122d5780820380516001836020036101000a031916815260200191505b509250505060405180910390f35b34801561124757600080fd5b5061128a6004803603602081101561125e57600080fd5b81019080803573ffffffffffffffffffffffffffffffffffffffff1690602001909291905050506132e6565b604051808215151515815260200191505060405180910390f35b3480156112b057600080fd5b506112b9613383565b6040518082815260200191505060405180910390f35b3480156112db57600080fd5b50611312600480360360408110156112f257600080fd5b81019080803590602001909291908035906020019092919050505061339e565b005b34801561132057600080fd5b506113296134c7565b6040518082815260200191505060405180910390f35b34801561134b57600080fd5b506114bc6004803603606081101561136257600080fd5b810190808035906020019064010000000081111561137f57600080fd5b82018360208201111561139157600080fd5b803590602001918460018302840111640100000000831117156113b357600080fd5b91908080601f016020809104026020016040519081016040528093929190818152602001838380828437600081840152601f19601f8201169050808301925050505050505091929192908035906020019064010000000081111561141657600080fd5b82018360208201111561142857600080fd5b8035906020019184600183028401116401000000008311171561144a57600080fd5b91908080601f016020809104026020016040519081016040528093929190818152602001838380828437600081840152601f19601f820116905080830192505050505050509192919290803573ffffffffffffffffffffffffffffffffffffffff1690602001909291905050506134d4565b005b3480156114ca57600080fd5b506114d3613ab8565b6040518080602001828103825283818151815260200191508051906020019080838360005b838110156115135780820151818401526020810190506114f8565b50505050905090810190601f1680156115405780820380516001836020036101000a031916815260200191505b509250505060405180910390f35b60606003600060058481548110151561156357fe5b9060005260206000200160009054906101000a900473ffffffffffffffffffffffffffffffffffffffff1673ffffffffffffffffffffffffffffffffffffffff1673ffffffffffffffffffffffffffffffffffffffff1681526020019081526020016000206004016001018054600181600116156101000203166002900480601f0160208091040260200160405190810160405280929190818152602001828054600181600116156101000203166002900480156116625780601f1061163757610100808354040283529160200191611662565b820191906000526020600020905b81548152906001019060200180831161164557829003601f168201915b50505050509050919050565b600754600860009054906101000a900473ffffffffffffffffffffffffffffffffffffffff1673ffffffffffffffffffffffffffffffffffffffff166370a08231336040518263ffffffff167c0100000000000000000000000000000000000000000000000000000000028152600401808273ffffffffffffffffffffffffffffffffffffffff1673ffffffffffffffffffffffffffffffffffffffff16815260200191505060206040518083038186803b15801561172c57600080fd5b505afa158015611740573d6000803e3d6000fd5b505050506040513d602081101561175657600080fd5b810190808051906020019092919050505011151561177357600080fd5b600360003373ffffffffffffffffffffffffffffffffffffffff1673ffffffffffffffffffffffffffffffffffffffff16815260200190815260200160002060070160009054906101000a900460ff1615156117ce57600080fd5b80604051602001808273ffffffffffffffffffffffffffffffffffffffff1673ffffffffffffffffffffffffffffffffffffffff166c010000000000000000000000000281526014019150506040516020818303038152906040528051906020012033604051602001808273ffffffffffffffffffffffffffffffffffffffff1673ffffffffffffffffffffffffffffffffffffffff166c01000000000000000000000000028152601401915050604051602081830303815290604052805190602001201415151561189f57600080fd5b60001515600360003373ffffffffffffffffffffffffffffffffffffffff1673ffffffffffffffffffffffffffffffffffffffff16815260200190815260200160002060090160008373ffffffffffffffffffffffffffffffffffffffff1673ffffffffffffffffffffffffffffffffffffffff1681526020019081526020016000206000600360008573ffffffffffffffffffffffffffffffffffffffff1673ffffffffffffffffffffffffffffffffffffffff16815260200190815260200160002060000160049054906101000a900461ffff1661ffff16815260200190815260200160002060009054906101000a900460ff1615151415156119a357600080fd5b6001600360003373ffffffffffffffffffffffffffffffffffffffff1673ffffffffffffffffffffffffffffffffffffffff16815260200190815260200160002060090160008373ffffffffffffffffffffffffffffffffffffffff1673ffffffffffffffffffffffffffffffffffffffff1681526020019081526020016000206000600360008573ffffffffffffffffffffffffffffffffffffffff1673ffffffffffffffffffffffffffffffffffffffff16815260200190815260200160002060000160049054906101000a900461ffff1661ffff16815260200190815260200160002060006101000a81548160ff0219169083151502179055506001600360008373ffffffffffffffffffffffffffffffffffffffff1673ffffffffffffffffffffffffffffffffffffffff16815260200190815260200160002060000160008282829054906101000a900461ffff160192506101000a81548161ffff021916908361ffff1602179055506001600360003373ffffffffffffffffffffffffffffffffffffffff1673ffffffffffffffffffffffffffffffffffffffff16815260200190815260200160002060000160028282829054906101000a900461ffff160192506101000a81548161ffff021916908361ffff16021790555060016000808282829054906101000a900461ffff160192506101000a81548161ffff021916908361ffff16021790555050565b6000600360008373ffffffffffffffffffffffffffffffffffffffff1673ffffffffffffffffffffffffffffffffffffffff16815260200190815260200160002060000160049054906101000a900461ffff1661ffff169050919050565b600060036000600684815481101515611c2857fe5b9060005260206000200160009054906101000a900473ffffffffffffffffffffffffffffffffffffffff1673ffffffffffffffffffffffffffffffffffffffff1673ffffffffffffffffffffffffffffffffffffffff16815260200190815260200160002060000160029054906101000a900461ffff1661ffff169050919050565b606060036000600584815481101515611cbf57fe5b9060005260206000200160009054906101000a900473ffffffffffffffffffffffffffffffffffffffff1673ffffffffffffffffffffffffffffffffffffffff1673ffffffffffffffffffffffffffffffffffffffff1681526020019081526020016000206004016000018054600181600116156101000203166002900480601f016020809104026020016040519081016040528092919081815260200182805460018160011615610100020316600290048015611dbe5780601f10611d9357610100808354040283529160200191611dbe565b820191906000526020600020905b815481529060010190602001808311611da157829003601f168201915b50505050509050919050565b6000600682815481101515611ddb57fe5b9060005260206000200160009054906101000a900473ffffffffffffffffffffffffffffffffffffffff169050919050565b6000600360008373ffffffffffffffffffffffffffffffffffffffff1673ffffffffffffffffffffffffffffffffffffffff16815260200190815260200160002060000160009054906101000a900461ffff1661ffff169050919050565b606060018054600181600116156101000203166002900480601f016020809104026020016040519081016040528092919081815260200182805460018160011615610100020316600290048015611f035780601f10611ed857610100808354040283529160200191611f03565b820191906000526020600020905b815481529060010190602001808311611ee657829003601f168201915b5050505050905090565b6060600360008373ffffffffffffffffffffffffffffffffffffffff1673ffffffffffffffffffffffffffffffffffffffff1681526020019081526020016000206002018054600181600116156101000203166002900480601f016020809104026020016040519081016040528092919081815260200182805460018160011615610100020316600290048015611fe55780601f10611fba57610100808354040283529160200191611fe5565b820191906000526020600020905b815481529060010190602001808311611fc857829003601f168201915b50505050509050919050565b6000817effffffffffffffffffffffffffffffffffffffffffffffffffffffffffffff19168284167effffffffffffffffffffffffffffffffffffffffffffffffffffffffffffff191614905092915050565b60058181548110151561205357fe5b906000526020600020016000915054906101000a900473ffffffffffffffffffffffffffffffffffffffff1681565b6000600360008373ffffffffffffffffffffffffffffffffffffffff1673ffffffffffffffffffffffffffffffffffffffff16815260200190815260200160002060000160009054906101000a900461ffff1661ffff169050919050565b600360003373ffffffffffffffffffffffffffffffffffffffff1673ffffffffffffffffffffffffffffffffffffffff16815260200190815260200160002060070160009054906101000a900460ff1615151561213c57600080fd5b6019835110151561214c57600080fd5b6014825110151561215c57600080fd5b6004836040518082805190602001908083835b602083101515612194578051825260208201915060208101905060208303925061216f565b6001836020036101000a038019825116818451168082178552505050505050905001915050908152602001604051809103902060009054906101000a900460ff161515156121e157600080fd5b82600360003373ffffffffffffffffffffffffffffffffffffffff1673ffffffffffffffffffffffffffffffffffffffff1681526020019081526020016000206001019080519060200190612237929190613d12565b5081600360003373ffffffffffffffffffffffffffffffffffffffff1673ffffffffffffffffffffffffffffffffffffffff168152602001908152602001600020600201908051906020019061228e929190613d12565b5080600360003373ffffffffffffffffffffffffffffffffffffffff1673ffffffffffffffffffffffffffffffffffffffff16815260200190815260200160002060030190805190602001906122e5929190613d12565b5060016004846040518082805190602001908083835b60208310151561232057805182526020820191506020810190506020830392506122fb565b6001836020036101000a038019825116818451168082178552505050505050905001915050908152602001604051809103902060006101000a81548160ff0219169083151502179055506001600360003373ffffffffffffffffffffffffffffffffffffffff1673ffffffffffffffffffffffffffffffffffffffff16815260200190815260200160002060070160006101000a81548160ff02191690831515021790555060063390806001815401808255809150509060018203906000526020600020016000909192909190916101000a81548173ffffffffffffffffffffffffffffffffffffffff021916908373ffffffffffffffffffffffffffffffffffffffff16021790555050600860009054906101000a900473ffffffffffffffffffffffffffffffffffffffff1673ffffffffffffffffffffffffffffffffffffffff1663a6f2ae3a346040518263ffffffff167c01000000000000000000000000000000000000000000000000000000000281526004016000604051808303818588803b1580156124b157600080fd5b505af11580156124c5573d6000803e3d6000fd5b5050505050600860009054906101000a900473ffffffffffffffffffffffffffffffffffffffff1673ffffffffffffffffffffffffffffffffffffffff1663a9059cbb336107d034026040518363ffffffff167c0100000000000000000000000000000000000000000000000000000000028152600401808373ffffffffffffffffffffffffffffffffffffffff1673ffffffffffffffffffffffffffffffffffffffff16815260200182815260200192505050600060405180830381600087803b15801561259357600080fd5b505af11580156125a7573d6000803e3d6000fd5b50505050505050565b6000600680549050905090565b6000600a544303905090565b6060600360008473ffffffffffffffffffffffffffffffffffffffff1673ffffffffffffffffffffffffffffffffffffffff16815260200190815260200160002060080160008381526020019081526020016000206001018054600181600116156101000203166002900480601f0160208091040260200160405190810160405280929190818152602001828054600181600116156101000203166002900480156126b55780601f1061268a576101008083540402835291602001916126b5565b820191906000526020600020905b81548152906001019060200180831161269857829003601f168201915b5050505050905092915050565b6000600360003373ffffffffffffffffffffffffffffffffffffffff1673ffffffffffffffffffffffffffffffffffffffff16815260200190815260200160002060090160008373ffffffffffffffffffffffffffffffffffffffff1673ffffffffffffffffffffffffffffffffffffffff1681526020019081526020016000206000600360008573ffffffffffffffffffffffffffffffffffffffff1673ffffffffffffffffffffffffffffffffffffffff16815260200190815260200160002060000160049054906101000a900461ffff1661ffff16815260200190815260200160002060009054906101000a900460ff169050919050565b6060600360008373ffffffffffffffffffffffffffffffffffffffff1673ffffffffffffffffffffffffffffffffffffffff1681526020019081526020016000206004016000018054600181600116156101000203166002900480601f0160208091040260200160405190810160405280929190818152602001828054600181600116156101000203166002900480156128985780601f1061286d57610100808354040283529160200191612898565b820191906000526020600020905b81548152906001019060200180831161287b57829003601f168201915b50505050509050919050565b6006818154811015156128b357fe5b906000526020600020016000915054906101000a900473ffffffffffffffffffffffffffffffffffffffff1681565b60008060029054906101000a900461ffff1661ffff16905090565b60006004826040518082805190602001908083835b6020831015156129375780518252602082019150602081019050602083039250612912565b6001836020036101000a038019825116818451168082178552505050505050905001915050908152602001604051809103902060009054906101000a900460ff169050919050565b60006003600060058481548110151561299457fe5b9060005260206000200160009054906101000a900473ffffffffffffffffffffffffffffffffffffffff1673ffffffffffffffffffffffffffffffffffffffff1673ffffffffffffffffffffffffffffffffffffffff16815260200190815260200160002060040160020160009054906101000a900473ffffffffffffffffffffffffffffffffffffffff169050919050565b6000600360003373ffffffffffffffffffffffffffffffffffffffff1673ffffffffffffffffffffffffffffffffffffffff16815260200190815260200160002060070160009054906101000a900460ff16905090565b60008060049054906101000a900473ffffffffffffffffffffffffffffffffffffffff16905090565b600754600860009054906101000a900473ffffffffffffffffffffffffffffffffffffffff1673ffffffffffffffffffffffffffffffffffffffff166370a08231336040518263ffffffff167c0100000000000000000000000000000000000000000000000000000000028152600401808273ffffffffffffffffffffffffffffffffffffffff1673ffffffffffffffffffffffffffffffffffffffff16815260200191505060206040518083038186803b158015612b6557600080fd5b505afa158015612b79573d6000803e3d6000fd5b505050506040513d6020811015612b8f57600080fd5b8101908080519060200190929190505050111515612bac57600080fd5b600360003373ffffffffffffffffffffffffffffffffffffffff1673ffffffffffffffffffffffffffffffffffffffff16815260200190815260200160002060070160009054906101000a900460ff161515612c0757600080fd5b60008090505b8151811015612c4357612c368282815181101515612c2757fe5b90602001906020020151612f56565b8080600101915050612c0d565b5050565b6000612c516125bd565b905060008110151515612c6357600080fd5b60c88111151515612c7357600080fd5b612c7b613b5a565b600860009054906101000a900473ffffffffffffffffffffffffffffffffffffffff1673ffffffffffffffffffffffffffffffffffffffff1663be040fb06040518163ffffffff167c0100000000000000000000000000000000000000000000000000000000028152600401600060405180830381600087803b158015612d0157600080fd5b505af1158015612d15573d6000803e3d6000fd5b50505050612d21613d92565b60008090505b600580549050811015612e41578160036000600584815481101515612d4857fe5b9060005260206000200160009054906101000a900473ffffffffffffffffffffffffffffffffffffffff1673ffffffffffffffffffffffffffffffffffffffff1673ffffffffffffffffffffffffffffffffffffffff1681526020019081526020016000206004016000820151816000019080519060200190612dcc929190613dca565b506020820151816001019080519060200190612de9929190613dca565b5060408201518160020160006101000a81548173ffffffffffffffffffffffffffffffffffffffff021916908373ffffffffffffffffffffffffffffffffffffffff1602179055509050508080600101915050612d27565b506000600581612e519190613e4a565b5043600a819055505050565b6060600360008473ffffffffffffffffffffffffffffffffffffffff1673ffffffffffffffffffffffffffffffffffffffff16815260200190815260200160002060080160008381526020019081526020016000206000018054600181600116156101000203166002900480601f016020809104026020016040519081016040528092919081815260200182805460018160011615610100020316600290048015612f495780601f10612f1e57610100808354040283529160200191612f49565b820191906000526020600020905b815481529060010190602001808311612f2c57829003601f168201915b5050505050905092915050565b600754600860009054906101000a900473ffffffffffffffffffffffffffffffffffffffff1673ffffffffffffffffffffffffffffffffffffffff166370a08231336040518263ffffffff167c0100000000000000000000000000000000000000000000000000000000028152600401808273ffffffffffffffffffffffffffffffffffffffff1673ffffffffffffffffffffffffffffffffffffffff16815260200191505060206040518083038186803b15801561301457600080fd5b505afa158015613028573d6000803e3d6000fd5b505050506040513d602081101561303e57600080fd5b810190808051906020019092919050505011151561305b57600080fd5b600360003373ffffffffffffffffffffffffffffffffffffffff1673ffffffffffffffffffffffffffffffffffffffff16815260200190815260200160002060070160009054906101000a900460ff1615156130b657600080fd5b600081101515156130c657600080fd5b600580549050811015156130d957600080fd5b61311b6005828154811015156130eb57fe5b9060005260206000200160009054906101000a900473ffffffffffffffffffffffffffffffffffffffff1661166e565b50565b6060600360008373ffffffffffffffffffffffffffffffffffffffff1673ffffffffffffffffffffffffffffffffffffffff1681526020019081526020016000206003018054600181600116156101000203166002900480601f0160208091040260200160405190810160405280929190818152602001828054600181600116156101000203166002900480156131f65780601f106131cb576101008083540402835291602001916131f6565b820191906000526020600020905b8154815290600101906020018083116131d957829003601f168201915b50505050509050919050565b6060600360008373ffffffffffffffffffffffffffffffffffffffff1673ffffffffffffffffffffffffffffffffffffffff1681526020019081526020016000206001018054600181600116156101000203166002900480601f0160208091040260200160405190810160405280929190818152602001828054600181600116156101000203166002900480156132da5780601f106132af576101008083540402835291602001916132da565b820191906000526020600020905b8154815290600101906020018083116132bd57829003601f168201915b50505050509050919050565b60008073ffffffffffffffffffffffffffffffffffffffff16600360003373ffffffffffffffffffffffffffffffffffffffff1673ffffffffffffffffffffffffffffffffffffffff16815260200190815260200160002060040160020160009054906101000a900473ffffffffffffffffffffffffffffffffffffffff1673ffffffffffffffffffffffffffffffffffffffff16149050919050565b60008060009054906101000a900461ffff1661ffff16905090565b600081101515156133ae57600080fd5b600082101515156133be57600080fd5b600082600102905060008090505b602060ff168110156134c157600082826020811015156133e857fe5b1a7f01000000000000000000000000000000000000000000000000000000000000000290506000817f0100000000000000000000000000000000000000000000000000000000000000900460ff161415156134b35760008090505b60088110156134b15760008160020a90506000817f01000000000000000000000000000000000000000000000000000000000000000290506134858482611ff1565b156134a2576134a161010088028487601f036008020101612f56565b5b50508080600101915050613443565b505b5080806001019150506133cc565b50505050565b6000600580549050905090565b600754600860009054906101000a900473ffffffffffffffffffffffffffffffffffffffff1673ffffffffffffffffffffffffffffffffffffffff166370a08231336040518263ffffffff167c0100000000000000000000000000000000000000000000000000000000028152600401808273ffffffffffffffffffffffffffffffffffffffff1673ffffffffffffffffffffffffffffffffffffffff16815260200191505060206040518083038186803b15801561359257600080fd5b505afa1580156135a6573d6000803e3d6000fd5b505050506040513d60208110156135bc57600080fd5b81019080805190602001909291905050501115156135d957600080fd5b600360003373ffffffffffffffffffffffffffffffffffffffff1673ffffffffffffffffffffffffffffffffffffffff16815260200190815260200160002060070160009054906101000a900460ff16151561363457600080fd5b602e835114151561364457600080fd5b6014825110151561365457600080fd5b600073ffffffffffffffffffffffffffffffffffffffff16600360003373ffffffffffffffffffffffffffffffffffffffff1673ffffffffffffffffffffffffffffffffffffffff16815260200190815260200160002060040160020160009054906101000a900473ffffffffffffffffffffffffffffffffffffffff1673ffffffffffffffffffffffffffffffffffffffff161415156136f457600080fd5b6136fc613d92565b83816000018190525081816040019073ffffffffffffffffffffffffffffffffffffffff16908173ffffffffffffffffffffffffffffffffffffffff168152505082816020018190525080600360003373ffffffffffffffffffffffffffffffffffffffff1673ffffffffffffffffffffffffffffffffffffffff16815260200190815260200160002060040160008201518160000190805190602001906137a5929190613dca565b5060208201518160010190805190602001906137c2929190613dca565b5060408201518160020160006101000a81548173ffffffffffffffffffffffffffffffffffffffff021916908373ffffffffffffffffffffffffffffffffffffffff16021790555090505080600360003373ffffffffffffffffffffffffffffffffffffffff1673ffffffffffffffffffffffffffffffffffffffff1681526020019081526020016000206008016000600360003373ffffffffffffffffffffffffffffffffffffffff1673ffffffffffffffffffffffffffffffffffffffff16815260200190815260200160002060000160049054906101000a900461ffff1661ffff16815260200190815260200160002060008201518160000190805190602001906138d1929190613dca565b5060208201518160010190805190602001906138ee929190613dca565b5060408201518160020160006101000a81548173ffffffffffffffffffffffffffffffffffffffff021916908373ffffffffffffffffffffffffffffffffffffffff1602179055509050506001600060028282829054906101000a900461ffff160192506101000a81548161ffff021916908361ffff1602179055506001600360003373ffffffffffffffffffffffffffffffffffffffff1673ffffffffffffffffffffffffffffffffffffffff16815260200190815260200160002060000160048282829054906101000a900461ffff160192506101000a81548161ffff021916908361ffff1602179055506001600360003373ffffffffffffffffffffffffffffffffffffffff1673ffffffffffffffffffffffffffffffffffffffff16815260200190815260200160002060000160028282829054906101000a900461ffff160192506101000a81548161ffff021916908361ffff16021790555060053390806001815401808255809150509060018203906000526020600020016000909192909190916101000a81548173ffffffffffffffffffffffffffffffffffffffff021916908373ffffffffffffffffffffffffffffffffffffffff1602179055505050505050565b606060028054600181600116156101000203166002900480601f016020809104026020016040519081016040528092919081815260200182805460018160011615610100020316600290048015613b505780601f10613b2557610100808354040283529160200191613b50565b820191906000526020600020905b815481529060010190602001808311613b3357829003601f168201915b5050505050905090565b60008060009054906101000a900461ffff1661ffff16434260405160200180828152602001915050604051602081830303815290604052805190602001206001900401811515613ba657fe5b06905060008090506000809050600080905060008090505b60058054905081108015613bd0575081155b15613c845760036000600583815481101515613be857fe5b9060005260206000200160009054906101000a900473ffffffffffffffffffffffffffffffffffffffff1673ffffffffffffffffffffffffffffffffffffffff1673ffffffffffffffffffffffffffffffffffffffff16815260200190815260200160002060000160009054906101000a900461ffff1661ffff168401935084841115613c7757809250600191505b8080600101915050613bbe565b50613c8e82611caa565b60019080519060200190613ca3929190613d12565b50613cad8261297f565b600060046101000a81548173ffffffffffffffffffffffffffffffffffffffff021916908373ffffffffffffffffffffffffffffffffffffffff160217905550613cf68261154e565b60029080519060200190613d0b929190613d12565b5050505050565b828054600181600116156101000203166002900490600052602060002090601f016020900481019282601f10613d5357805160ff1916838001178555613d81565b82800160010185558215613d81579182015b82811115613d80578251825591602001919060010190613d65565b5b509050613d8e9190613e76565b5090565b6060604051908101604052806060815260200160608152602001600073ffffffffffffffffffffffffffffffffffffffff1681525090565b828054600181600116156101000203166002900490600052602060002090601f016020900481019282601f10613e0b57805160ff1916838001178555613e39565b82800160010185558215613e39579182015b82811115613e38578251825591602001919060010190613e1d565b5b509050613e469190613e76565b5090565b815481835581811115613e7157818360005260206000209182019101613e709190613e76565b5b505050565b613e9891905b80821115613e94576000816000905550600101613e7c565b5090565b9056fea165627a7a723058200c2d5dbfd1cb07e44e7de8d98542402765c74010d40c93c5eabdcd4cde9780890029",
  "source": "pragma solidity ^0.5.0;\n// We have to specify what version of compiler this code will compile with\n\nimport \"../contracts/Token.sol\";\nimport \"../contracts/Trophies.sol\";\n\ncontract Hashes{\n\n  uint16 totalVotes;\n  uint16 totalPhotos;\n  address winnerAddress;\n  string winnerHash;\n  string winnerCaption;\n\n  struct hashes{\n         string hash;\n         string caption;\n         address addr;\n  }\n\n  struct properties{\n      uint16 votesReceived;\n      uint16 actionsDone;\n      uint16 photosPosted;\n      string name;\n      string profileName;\n      string profileImage;\n      hashes registry;\n      bool participated;\n      mapping(uint256 => hashes) allPosts;\n      mapping(address => mapping (uint256 => bool)) votedFor;\n  }\n\n  mapping(address => properties) address_properties;\n  mapping(string => bool) nameTaken;\n  address[] public participants;\n  address[] public all_participants;\n  uint minTokens;\n  MyToken token;\n  //MyTrophy trophy;\n  address payable token_address;\n  uint pastBlockNumber;\n  uint rewardScalar;\n\n\n\n\n\n  constructor(uint _minTokens, address payable _myToken, address _myTrophy) public{\n    minTokens = _minTokens;\n    token = MyToken(_myToken);\n    token_address = _myToken;\n    token.setAddress(address(this));\n    //trophy = MyTrophy(_myTrophy);\n    //trophy.setAddress(address(this));\n    pastBlockNumber = block.number;\n\n  }\n\n  function addHash(string memory _ipfsHash, string memory _caption, address _ipfsAddress) public enoughCoins validAccount{\n     require (bytes(_ipfsHash).length == 46);\n     require (bytes(_caption).length < 20);\n     require (address_properties[msg.sender].registry.addr == address(0));\n     hashes memory myHash;\n     myHash.hash = _ipfsHash;\n     myHash.addr = _ipfsAddress;\n     myHash.caption = _caption;\n     address_properties[msg.sender].registry = myHash;\n     address_properties[msg.sender].allPosts[address_properties[msg.sender].photosPosted] = myHash;\n     totalPhotos += 1;\n     address_properties[msg.sender].photosPosted += 1;\n     address_properties[msg.sender].actionsDone += 1;\n     participants.push(msg.sender);\n  }\n\n  modifier enoughCoins() {\n\t\tif (!(token.balanceOf(msg.sender) > minTokens)) revert();\n\t\t_;\n\t}\n\n  modifier validAccount() {\n\t\tif (!(address_properties[msg.sender].participated)) revert();\n\t\t_;\n\t}\n\n  function voteForCandidate(address candidate) public enoughCoins validAccount{\n  \trequire (keccak256(abi.encodePacked(msg.sender)) != keccak256(abi.encodePacked(candidate)));\n    require (address_properties[msg.sender].votedFor[candidate][address_properties[candidate].photosPosted] == false);\n    address_properties[msg.sender].votedFor[candidate][address_properties[candidate].photosPosted] = true;\n    address_properties[candidate].votesReceived += 1;\n    address_properties[msg.sender].actionsDone += 1;\n  \ttotalVotes += 1;\n\n  }\n\n  function registerAccount(string memory _name, string memory _profileName, string memory _ipfsHash) public payable{\n     require (!address_properties[msg.sender].participated);\n     require (bytes(_name).length < 25);\n     require (bytes(_profileName).length < 20);\n     require (!nameTaken[_name]);\n     //require (bytes(_ipfsHash).length == 46);\n     address_properties[msg.sender].name = _name;\n     address_properties[msg.sender].profileName = _profileName;\n     address_properties[msg.sender].profileImage = _ipfsHash;\n     nameTaken[_name] = true;\n     address_properties[msg.sender].participated = true;\n     all_participants.push(msg.sender);\n     token.buy.value(msg.value)();\n     token.transfer(msg.sender, msg.value*2000);\n\n  }\n\n  function accountRegistered() public view returns (bool){\n    return (address_properties[msg.sender].participated);\n  }\n\n  function voteByIndex(uint candidate_index) public enoughCoins validAccount{\n    require(candidate_index >= 0);\n    require(candidate_index < participants.length);\n  \tvoteForCandidate(participants[candidate_index]);\n  }\n\n  function voteForListByIndex(uint[] memory candidates_indexes) public enoughCoins validAccount{\n    for (uint i = 0; i < candidates_indexes.length; i++){\n        voteByIndex(candidates_indexes[i]);\n    }\n  }\n\n  function bitSet(byte b, byte a) public returns (bool){\n    return (b & a == a);\n  }\n\n  function voteForListByBitString(uint n, uint shift) public{\n    require(shift >= 0);\n    require(n >= 0);\n\n    bytes32 byteArray = bytes32(n);\n    for (uint i = 0; i < byteArray.length; i++){\n        byte temp = byteArray[i];\n        if (uint8(temp) != 0){\n            for (uint j = 0; j < 8; j++){\n              uint8 num = uint8(2 ** j);\n              byte value = byte(num);\n              if (bitSet(temp, value)){\n                voteByIndex(8*(31 - i)+j+shift*256);\n              }\n            }\n        }\n    }\n  }\n\n\n  function getWinner() internal {\n    uint random = uint((uint(keccak256(abi.encodePacked((block.timestamp)))) + block.number) % totalVotes);\n    uint num = 0;\n    uint winnerIndex = 0;\n    bool done = false;\n\n    for (uint i = 0; i < participants.length && !done; i++){\n      num += (address_properties[participants[i]].votesReceived);\n      if (num > random){\n        winnerIndex = i;\n        done = true;\n      }\n    }\n    winnerHash = getList(winnerIndex);\n    winnerAddress = getAddress(winnerIndex);\n    winnerCaption = getCaption(winnerIndex);\n\n  }\n\n  function returnWinnerHash() public view returns (string memory){\n  \treturn winnerHash;\n  }\n\n  function returnWinnerAddress() public view returns (address){\n  \treturn winnerAddress;\n  }\n\n  function returnWinnerCaption() public view returns (string memory){\n  \treturn winnerCaption;\n  }\n\n\n  function getList(uint x) public view returns (string memory){\n  \treturn address_properties[participants[x]].registry.hash;\n  }\n\n  function viewPhotos(address _owner, uint index) public view returns (string memory){\n  \treturn address_properties[_owner].allPosts[index].hash;\n  }\n\n  function viewCaption(address _owner, uint index) public view returns (string memory){\n    return address_properties[_owner].allPosts[index].caption;\n  }\n\n  function getListByAddress(address x) public view returns (string memory){\n  \treturn address_properties[x].registry.hash;\n  }\n\n  function getCaption(uint x) public view returns (string memory){\n    return address_properties[participants[x]].registry.caption;\n  }\n\n  function getAddress(uint x) public view returns (address){\n  \treturn address_properties[participants[x]].registry.addr;\n  }\n\n  function returnTotalVotes() public view returns (uint){\n    return totalVotes;\n  }\n\n  function returnTotalPhotos() public view returns (uint){\n    return totalPhotos;\n  }\n\n  function totalVotesFor(address x) public view returns(uint){\n  \treturn address_properties[x].votesReceived;\n  }\n\n  function listLength() public view returns (uint){\n  \treturn participants.length;\n  }\n\n  function numParticipants() public view returns (uint){\n    return all_participants.length;\n  }\n\n  function likedPhoto(address x) public view returns (bool){\n    return address_properties[msg.sender].votedFor[x][address_properties[x].photosPosted];\n  }\n\n  function getParticipant(uint x) public view returns (address){\n    return all_participants[x];\n  }\n\n  function numActions(uint x) public view returns (uint){\n    return address_properties[all_participants[x]].actionsDone;\n  }\n\n  function totalVotesReceived(address x) public view returns(uint){\n    return address_properties[x].votesReceived;\n  }\n\n  function totalPhotosPosted(address x) public view returns(uint){\n    return address_properties[x].photosPosted;\n  }\n\n  /* function totalTrophies(address x) public view returns(uint){\n    return trophy.balanceOf(x);\n  } */\n\n  function getUserName (address x) public view returns(string memory){\n    return address_properties[x].name;\n  }\n  function getProfileName (address x) public view returns(string memory){\n    return address_properties[x].profileName;\n  }\n  function getProfileImage (address x) public view returns(string memory){\n    return address_properties[x].profileImage;\n  }\n  function isNameTaken (string memory _name) public view returns(bool){\n    return (nameTaken[_name]);\n  }\n  function alreadyPosted (address x) public view returns(bool){\n    return (address_properties[msg.sender].registry.addr == address(0));\n  }\n\n  function newRound() public{\n    uint timeSince = getTime();\n\n    require(timeSince >= 0);\n    require(timeSince <= 200);\n\n    getWinner();\n    token.redeem();\n    hashes memory myHash;\n    for (uint i = 0; i < participants.length; i++){\n      address_properties[participants[i]].registry = myHash;\n    }\n    participants.length = 0;\n    pastBlockNumber = block.number;\n  }\n\n  function getTime() public view returns(uint){\n    return (block.number - pastBlockNumber);\n  }\n\n\n}\n",
  "sourcePath": "/Users/ryachen/Desktop/Quest/eth-chain/app/contracts/Hashes.sol",
  "compiler": {
    "name": "solc",
    "version": "0.5.0+commit.1d4f565a.Emscripten.clang"
  },
  "schemaVersion": "3.0.9",
  "updatedAt": "2019-05-20T01:53:13.532Z",
  "devdoc": {
    "methods": {}
  },
  "userdoc": {
    "methods": {}
  }
}