{
  "contractName": "Hashes",
  "abi": [
    {
      "constant": true,
      "inputs": [
        {
          "name": "",
          "type": "uint256"
        }
      ],
      "name": "participants",
      "outputs": [
        {
          "name": "",
          "type": "address"
        }
      ],
      "payable": false,
      "stateMutability": "view",
      "type": "function",
      "signature": "0x35c1d349"
    },
    {
      "constant": true,
      "inputs": [
        {
          "name": "",
          "type": "uint256"
        }
      ],
      "name": "all_participants",
      "outputs": [
        {
          "name": "",
          "type": "address"
        }
      ],
      "payable": false,
      "stateMutability": "view",
      "type": "function",
      "signature": "0x8eee5546"
    },
    {
      "inputs": [
        {
          "name": "_minTokens",
          "type": "uint256"
        },
        {
          "name": "_myToken",
          "type": "address"
        },
        {
          "name": "_myTrophy",
          "type": "address"
        }
      ],
      "payable": false,
      "stateMutability": "nonpayable",
      "type": "constructor",
      "signature": "constructor"
    },
    {
      "constant": false,
      "inputs": [
        {
          "name": "_ipfsHash",
          "type": "string"
        },
        {
          "name": "_caption",
          "type": "string"
        },
        {
          "name": "_ipfsAddress",
          "type": "address"
        }
      ],
      "name": "addHash",
      "outputs": [],
      "payable": false,
      "stateMutability": "nonpayable",
      "type": "function",
      "signature": "0xfbccabd7"
    },
    {
      "constant": false,
      "inputs": [
        {
          "name": "candidate",
          "type": "address"
        }
      ],
      "name": "voteForCandidate",
      "outputs": [],
      "payable": false,
      "stateMutability": "nonpayable",
      "type": "function",
      "signature": "0x163046eb"
    },
    {
      "constant": false,
      "inputs": [
        {
          "name": "_name",
          "type": "string"
        },
        {
          "name": "_profileName",
          "type": "string"
        },
        {
          "name": "_ipfsHash",
          "type": "string"
        }
      ],
      "name": "registerAccount",
      "outputs": [],
      "payable": true,
      "stateMutability": "payable",
      "type": "function",
      "signature": "0x412fac67"
    },
    {
      "constant": true,
      "inputs": [],
      "name": "accountRegistered",
      "outputs": [
        {
          "name": "",
          "type": "bool"
        }
      ],
      "payable": false,
      "stateMutability": "view",
      "type": "function",
      "signature": "0xb9d31981"
    },
    {
      "constant": false,
      "inputs": [
        {
          "name": "candidate_index",
          "type": "uint256"
        }
      ],
      "name": "voteByIndex",
      "outputs": [],
      "payable": false,
      "stateMutability": "nonpayable",
      "type": "function",
      "signature": "0xcc4709f0"
    },
    {
      "constant": false,
      "inputs": [
        {
          "name": "candidates_indexes",
          "type": "uint256[]"
        }
      ],
      "name": "voteForListByIndex",
      "outputs": [],
      "payable": false,
      "stateMutability": "nonpayable",
      "type": "function",
      "signature": "0xbc5d8787"
    },
    {
      "constant": false,
      "inputs": [
        {
          "name": "b",
          "type": "bytes1"
        },
        {
          "name": "a",
          "type": "bytes1"
        }
      ],
      "name": "bitSet",
      "outputs": [
        {
          "name": "",
          "type": "bool"
        }
      ],
      "payable": false,
      "stateMutability": "nonpayable",
      "type": "function",
      "signature": "0x342f3fde"
    },
    {
      "constant": false,
      "inputs": [
        {
          "name": "n",
          "type": "uint256"
        },
        {
          "name": "shift",
          "type": "uint256"
        }
      ],
      "name": "voteForListByBitString",
      "outputs": [],
      "payable": false,
      "stateMutability": "nonpayable",
      "type": "function",
      "signature": "0xf9d52abe"
    },
    {
      "constant": true,
      "inputs": [],
      "name": "returnWinnerHash",
      "outputs": [
        {
          "name": "",
          "type": "string"
        }
      ],
      "payable": false,
      "stateMutability": "view",
      "type": "function",
      "signature": "0x2f8f7cf1"
    },
    {
      "constant": true,
      "inputs": [],
      "name": "returnWinnerAddress",
      "outputs": [
        {
          "name": "",
          "type": "address"
        }
      ],
      "payable": false,
      "stateMutability": "view",
      "type": "function",
      "signature": "0xbb0bd6e5"
    },
    {
      "constant": true,
      "inputs": [
        {
          "name": "x",
          "type": "uint256"
        }
      ],
      "name": "getList",
      "outputs": [
        {
          "name": "",
          "type": "string"
        }
      ],
      "payable": false,
      "stateMutability": "view",
      "type": "function",
      "signature": "0x1ab5b383"
    },
    {
      "constant": true,
      "inputs": [
        {
          "name": "_owner",
          "type": "address"
        },
        {
          "name": "index",
          "type": "uint256"
        }
      ],
      "name": "viewPhotos",
      "outputs": [
        {
          "name": "",
          "type": "string"
        }
      ],
      "payable": false,
      "stateMutability": "view",
      "type": "function",
      "signature": "0xc7689b0d"
    },
    {
      "constant": true,
      "inputs": [
        {
          "name": "_owner",
          "type": "address"
        },
        {
          "name": "index",
          "type": "uint256"
        }
      ],
      "name": "viewCaption",
      "outputs": [
        {
          "name": "",
          "type": "string"
        }
      ],
      "payable": false,
      "stateMutability": "view",
      "type": "function",
      "signature": "0x79c52b73"
    },
    {
      "constant": true,
      "inputs": [
        {
          "name": "x",
          "type": "address"
        }
      ],
      "name": "getListByAddress",
      "outputs": [
        {
          "name": "",
          "type": "string"
        }
      ],
      "payable": false,
      "stateMutability": "view",
      "type": "function",
      "signature": "0x8516ff33"
    },
    {
      "constant": true,
      "inputs": [
        {
          "name": "x",
          "type": "uint256"
        }
      ],
      "name": "getCaption",
      "outputs": [
        {
          "name": "",
          "type": "string"
        }
      ],
      "payable": false,
      "stateMutability": "view",
      "type": "function",
      "signature": "0x0257e249"
    },
    {
      "constant": true,
      "inputs": [
        {
          "name": "x",
          "type": "uint256"
        }
      ],
      "name": "getAddress",
      "outputs": [
        {
          "name": "",
          "type": "address"
        }
      ],
      "payable": false,
      "stateMutability": "view",
      "type": "function",
      "signature": "0xb93f9b0a"
    },
    {
      "constant": true,
      "inputs": [],
      "name": "returnTotalVotes",
      "outputs": [
        {
          "name": "",
          "type": "uint256"
        }
      ],
      "payable": false,
      "stateMutability": "view",
      "type": "function",
      "signature": "0xe36fccc9"
    },
    {
      "constant": true,
      "inputs": [],
      "name": "returnTotalPhotos",
      "outputs": [
        {
          "name": "",
          "type": "uint256"
        }
      ],
      "payable": false,
      "stateMutability": "view",
      "type": "function",
      "signature": "0xa7eb9e2e"
    },
    {
      "constant": true,
      "inputs": [
        {
          "name": "x",
          "type": "address"
        }
      ],
      "name": "totalVotesFor",
      "outputs": [
        {
          "name": "",
          "type": "uint256"
        }
      ],
      "payable": false,
      "stateMutability": "view",
      "type": "function",
      "signature": "0x4041ef54"
    },
    {
      "constant": true,
      "inputs": [],
      "name": "listLength",
      "outputs": [
        {
          "name": "",
          "type": "uint256"
        }
      ],
      "payable": false,
      "stateMutability": "view",
      "type": "function",
      "signature": "0xfb6f049f"
    },
    {
      "constant": true,
      "inputs": [],
      "name": "numParticipants",
      "outputs": [
        {
          "name": "",
          "type": "uint256"
        }
      ],
      "payable": false,
      "stateMutability": "view",
      "type": "function",
      "signature": "0x4e76a846"
    },
    {
      "constant": true,
      "inputs": [
        {
          "name": "x",
          "type": "address"
        },
        {
          "name": "index",
          "type": "uint256"
        }
      ],
      "name": "likedPhoto",
      "outputs": [
        {
          "name": "",
          "type": "bool"
        }
      ],
      "payable": false,
      "stateMutability": "view",
      "type": "function",
      "signature": "0xa3ebaf10"
    },
    {
      "constant": true,
      "inputs": [
        {
          "name": "x",
          "type": "uint256"
        }
      ],
      "name": "getParticipant",
      "outputs": [
        {
          "name": "",
          "type": "address"
        }
      ],
      "payable": false,
      "stateMutability": "view",
      "type": "function",
      "signature": "0x1b9db2ef"
    },
    {
      "constant": true,
      "inputs": [
        {
          "name": "x",
          "type": "uint256"
        }
      ],
      "name": "numActions",
      "outputs": [
        {
          "name": "",
          "type": "uint256"
        }
      ],
      "payable": false,
      "stateMutability": "view",
      "type": "function",
      "signature": "0x186d45ac"
    },
    {
      "constant": true,
      "inputs": [
        {
          "name": "x",
          "type": "address"
        }
      ],
      "name": "totalVotesReceived",
      "outputs": [
        {
          "name": "",
          "type": "uint256"
        }
      ],
      "payable": false,
      "stateMutability": "view",
      "type": "function",
      "signature": "0x287e0c8e"
    },
    {
      "constant": true,
      "inputs": [
        {
          "name": "x",
          "type": "address"
        }
      ],
      "name": "totalPhotosPosted",
      "outputs": [
        {
          "name": "",
          "type": "uint256"
        }
      ],
      "payable": false,
      "stateMutability": "view",
      "type": "function",
      "signature": "0x18359009"
    },
    {
      "constant": true,
      "inputs": [
        {
          "name": "x",
          "type": "address"
        }
      ],
      "name": "totalTrophies",
      "outputs": [
        {
          "name": "",
          "type": "uint256"
        }
      ],
      "payable": false,
      "stateMutability": "view",
      "type": "function",
      "signature": "0x5090d71d"
    },
    {
      "constant": true,
      "inputs": [
        {
          "name": "x",
          "type": "address"
        }
      ],
      "name": "getUserName",
      "outputs": [
        {
          "name": "",
          "type": "string"
        }
      ],
      "payable": false,
      "stateMutability": "view",
      "type": "function",
      "signature": "0xd84f55ee"
    },
    {
      "constant": true,
      "inputs": [
        {
          "name": "x",
          "type": "address"
        }
      ],
      "name": "getProfileName",
      "outputs": [
        {
          "name": "",
          "type": "string"
        }
      ],
      "payable": false,
      "stateMutability": "view",
      "type": "function",
      "signature": "0x33661b29"
    },
    {
      "constant": true,
      "inputs": [
        {
          "name": "x",
          "type": "address"
        }
      ],
      "name": "getProfileImage",
      "outputs": [
        {
          "name": "",
          "type": "string"
        }
      ],
      "payable": false,
      "stateMutability": "view",
      "type": "function",
      "signature": "0xd2c8dd35"
    },
    {
      "constant": true,
      "inputs": [
        {
          "name": "_name",
          "type": "string"
        }
      ],
      "name": "isNameTaken",
      "outputs": [
        {
          "name": "",
          "type": "bool"
        }
      ],
      "payable": false,
      "stateMutability": "view",
      "type": "function",
      "signature": "0xb3da4e34"
    },
    {
      "constant": true,
      "inputs": [
        {
          "name": "x",
          "type": "address"
        }
      ],
      "name": "alreadyPosted",
      "outputs": [
        {
          "name": "",
          "type": "bool"
        }
      ],
      "payable": false,
      "stateMutability": "view",
      "type": "function",
      "signature": "0xe06b4db7"
    },
    {
      "constant": false,
      "inputs": [],
      "name": "newRound",
      "outputs": [],
      "payable": false,
      "stateMutability": "nonpayable",
      "type": "function",
      "signature": "0xc5b1d9aa"
    }
  ],
  "bytecode": "0x60806040523480156200001157600080fd5b5060405160608062004152833981018060405260608110156200003357600080fd5b810190808051906020019092919080519060200190929190805190602001909291905050508260068190555081600760006101000a81548173ffffffffffffffffffffffffffffffffffffffff021916908373ffffffffffffffffffffffffffffffffffffffff16021790555081600960006101000a81548173ffffffffffffffffffffffffffffffffffffffff021916908373ffffffffffffffffffffffffffffffffffffffff160217905550600760009054906101000a900473ffffffffffffffffffffffffffffffffffffffff1673ffffffffffffffffffffffffffffffffffffffff1663e30081a0306040518263ffffffff167c0100000000000000000000000000000000000000000000000000000000028152600401808273ffffffffffffffffffffffffffffffffffffffff1673ffffffffffffffffffffffffffffffffffffffff168152602001915050600060405180830381600087803b1580156200019f57600080fd5b505af1158015620001b4573d6000803e3d6000fd5b5050505080600860006101000a81548173ffffffffffffffffffffffffffffffffffffffff021916908373ffffffffffffffffffffffffffffffffffffffff160217905550600860009054906101000a900473ffffffffffffffffffffffffffffffffffffffff1673ffffffffffffffffffffffffffffffffffffffff1663e30081a0306040518263ffffffff167c0100000000000000000000000000000000000000000000000000000000028152600401808273ffffffffffffffffffffffffffffffffffffffff1673ffffffffffffffffffffffffffffffffffffffff168152602001915050600060405180830381600087803b158015620002b757600080fd5b505af1158015620002cc573d6000803e3d6000fd5b50505050505050613e6f80620002e36000396000f3fe6080604052600436106101b7576000357c0100000000000000000000000000000000000000000000000000000000900463ffffffff1680630257e249146101bc578063163046eb1461027057806318359009146102c1578063186d45ac146103265780631ab5b383146103755780631b9db2ef14610429578063287e0c8e146104a45780632f8f7cf11461050957806333661b2914610599578063342f3fde1461066357806335c1d349146107045780634041ef541461077f578063412fac67146107e45780634e76a846146109cd5780635090d71d146109f857806379c52b7314610a5d5780638516ff3314610b315780638eee554614610bfb578063a3ebaf1014610c76578063a7eb9e2e14610ce9578063b3da4e3414610d14578063b93f9b0a14610df4578063b9d3198114610e6f578063bb0bd6e514610e9e578063bc5d878714610ef5578063c5b1d9aa14610fba578063c7689b0d14610fd1578063cc4709f0146110a5578063d2c8dd35146110e0578063d84f55ee146111aa578063e06b4db714611274578063e36fccc9146112dd578063f9d52abe14611308578063fb6f049f1461134d578063fbccabd714611378575b600080fd5b3480156101c857600080fd5b506101f5600480360360208110156101df57600080fd5b81019080803590602001909291905050506114f7565b6040518080602001828103825283818151815260200191508051906020019080838360005b8381101561023557808201518184015260208101905061021a565b50505050905090810190601f1680156102625780820380516001836020036101000a031916815260200191505b509250505060405180910390f35b34801561027c57600080fd5b506102bf6004803603602081101561029357600080fd5b81019080803573ffffffffffffffffffffffffffffffffffffffff169060200190929190505050611617565b005b3480156102cd57600080fd5b50610310600480360360208110156102e457600080fd5b81019080803573ffffffffffffffffffffffffffffffffffffffff169060200190929190505050611b5e565b6040518082815260200191505060405180910390f35b34801561033257600080fd5b5061035f6004803603602081101561034957600080fd5b8101908080359060200190929190505050611bbc565b6040518082815260200191505060405180910390f35b34801561038157600080fd5b506103ae6004803603602081101561039857600080fd5b8101908080359060200190929190505050611c53565b6040518080602001828103825283818151815260200191508051906020019080838360005b838110156103ee5780820151818401526020810190506103d3565b50505050905090810190601f16801561041b5780820380516001836020036101000a031916815260200191505b509250505060405180910390f35b34801561043557600080fd5b506104626004803603602081101561044c57600080fd5b8101908080359060200190929190505050611d73565b604051808273ffffffffffffffffffffffffffffffffffffffff1673ffffffffffffffffffffffffffffffffffffffff16815260200191505060405180910390f35b3480156104b057600080fd5b506104f3600480360360208110156104c757600080fd5b81019080803573ffffffffffffffffffffffffffffffffffffffff169060200190929190505050611db6565b6040518082815260200191505060405180910390f35b34801561051557600080fd5b5061051e611e14565b6040518080602001828103825283818151815260200191508051906020019080838360005b8381101561055e578082015181840152602081019050610543565b50505050905090810190601f16801561058b5780820380516001836020036101000a031916815260200191505b509250505060405180910390f35b3480156105a557600080fd5b506105e8600480360360208110156105bc57600080fd5b81019080803573ffffffffffffffffffffffffffffffffffffffff169060200190929190505050611eb6565b6040518080602001828103825283818151815260200191508051906020019080838360005b8381101561062857808201518184015260208101905061060d565b50505050905090810190601f1680156106555780820380516001836020036101000a031916815260200191505b509250505060405180910390f35b34801561066f57600080fd5b506106ea6004803603604081101561068657600080fd5b8101908080357effffffffffffffffffffffffffffffffffffffffffffffffffffffffffffff1916906020019092919080357effffffffffffffffffffffffffffffffffffffffffffffffffffffffffffff19169060200190929190505050611f9a565b604051808215151515815260200191505060405180910390f35b34801561071057600080fd5b5061073d6004803603602081101561072757600080fd5b8101908080359060200190929190505050611fed565b604051808273ffffffffffffffffffffffffffffffffffffffff1673ffffffffffffffffffffffffffffffffffffffff16815260200191505060405180910390f35b34801561078b57600080fd5b506107ce600480360360208110156107a257600080fd5b81019080803573ffffffffffffffffffffffffffffffffffffffff16906020019092919050505061202b565b6040518082815260200191505060405180910390f35b6109cb600480360360608110156107fa57600080fd5b810190808035906020019064010000000081111561081757600080fd5b82018360208201111561082957600080fd5b8035906020019184600183028401116401000000008311171561084b57600080fd5b91908080601f016020809104026020016040519081016040528093929190818152602001838380828437600081840152601f19601f820116905080830192505050505050509192919290803590602001906401000000008111156108ae57600080fd5b8201836020820111156108c057600080fd5b803590602001918460018302840111640100000000831117156108e257600080fd5b91908080601f016020809104026020016040519081016040528093929190818152602001838380828437600081840152601f19601f8201169050808301925050505050505091929192908035906020019064010000000081111561094557600080fd5b82018360208201111561095757600080fd5b8035906020019184600183028401116401000000008311171561097957600080fd5b91908080601f016020809104026020016040519081016040528093929190818152602001838380828437600081840152601f19601f820116905080830192505050505050509192919290505050612089565b005b3480156109d957600080fd5b506109e2612559565b6040518082815260200191505060405180910390f35b348015610a0457600080fd5b50610a4760048036036020811015610a1b57600080fd5b81019080803573ffffffffffffffffffffffffffffffffffffffff169060200190929190505050612566565b6040518082815260200191505060405180910390f35b348015610a6957600080fd5b50610ab660048036036040811015610a8057600080fd5b81019080803573ffffffffffffffffffffffffffffffffffffffff16906020019092919080359060200190929190505050612665565b6040518080602001828103825283818151815260200191508051906020019080838360005b83811015610af6578082015181840152602081019050610adb565b50505050905090810190601f168015610b235780820380516001836020036101000a031916815260200191505b509250505060405180910390f35b348015610b3d57600080fd5b50610b8060048036036020811015610b5457600080fd5b81019080803573ffffffffffffffffffffffffffffffffffffffff16906020019092919050505061275e565b6040518080602001828103825283818151815260200191508051906020019080838360005b83811015610bc0578082015181840152602081019050610ba5565b50505050905090810190601f168015610bed5780820380516001836020036101000a031916815260200191505b509250505060405180910390f35b348015610c0757600080fd5b50610c3460048036036020811015610c1e57600080fd5b8101908080359060200190929190505050612845565b604051808273ffffffffffffffffffffffffffffffffffffffff1673ffffffffffffffffffffffffffffffffffffffff16815260200191505060405180910390f35b348015610c8257600080fd5b50610ccf60048036036040811015610c9957600080fd5b81019080803573ffffffffffffffffffffffffffffffffffffffff16906020019092919080359060200190929190505050612883565b604051808215151515815260200191505060405180910390f35b348015610cf557600080fd5b50610cfe61297f565b6040518082815260200191505060405180910390f35b348015610d2057600080fd5b50610dda60048036036020811015610d3757600080fd5b8101908080359060200190640100000000811115610d5457600080fd5b820183602082011115610d6657600080fd5b80359060200191846001830284011164010000000083111715610d8857600080fd5b91908080601f016020809104026020016040519081016040528093929190818152602001838380828437600081840152601f19601f82011690508083019250505050505050919291929050505061299a565b604051808215151515815260200191505060405180910390f35b348015610e0057600080fd5b50610e2d60048036036020811015610e1757600080fd5b8101908080359060200190929190505050612a1c565b604051808273ffffffffffffffffffffffffffffffffffffffff1673ffffffffffffffffffffffffffffffffffffffff16815260200191505060405180910390f35b348015610e7b57600080fd5b50610e84612ac4565b604051808215151515815260200191505060405180910390f35b348015610eaa57600080fd5b50610eb3612b1b565b604051808273ffffffffffffffffffffffffffffffffffffffff1673ffffffffffffffffffffffffffffffffffffffff16815260200191505060405180910390f35b348015610f0157600080fd5b50610fb860048036036020811015610f1857600080fd5b8101908080359060200190640100000000811115610f3557600080fd5b820183602082011115610f4757600080fd5b80359060200191846020830284011164010000000083111715610f6957600080fd5b919080806020026020016040519081016040528093929190818152602001838360200280828437600081840152601f19601f820116905080830192505050505050509192919290505050612b44565b005b348015610fc657600080fd5b50610fcf612ce4565b005b348015610fdd57600080fd5b5061102a60048036036040811015610ff457600080fd5b81019080803573ffffffffffffffffffffffffffffffffffffffff16906020019092919080359060200190929190505050612ec6565b6040518080602001828103825283818151815260200191508051906020019080838360005b8381101561106a57808201518184015260208101905061104f565b50505050905090810190601f1680156110975780820380516001836020036101000a031916815260200191505b509250505060405180910390f35b3480156110b157600080fd5b506110de600480360360208110156110c857600080fd5b8101908080359060200190929190505050612fbf565b005b3480156110ec57600080fd5b5061112f6004803603602081101561110357600080fd5b81019080803573ffffffffffffffffffffffffffffffffffffffff169060200190929190505050613187565b6040518080602001828103825283818151815260200191508051906020019080838360005b8381101561116f578082015181840152602081019050611154565b50505050905090810190601f16801561119c5780820380516001836020036101000a031916815260200191505b509250505060405180910390f35b3480156111b657600080fd5b506111f9600480360360208110156111cd57600080fd5b81019080803573ffffffffffffffffffffffffffffffffffffffff16906020019092919050505061326b565b6040518080602001828103825283818151815260200191508051906020019080838360005b8381101561123957808201518184015260208101905061121e565b50505050905090810190601f1680156112665780820380516001836020036101000a031916815260200191505b509250505060405180910390f35b34801561128057600080fd5b506112c36004803603602081101561129757600080fd5b81019080803573ffffffffffffffffffffffffffffffffffffffff16906020019092919050505061334f565b604051808215151515815260200191505060405180910390f35b3480156112e957600080fd5b506112f26133ec565b6040518082815260200191505060405180910390f35b34801561131457600080fd5b5061134b6004803603604081101561132b57600080fd5b810190808035906020019092919080359060200190929190505050613407565b005b34801561135957600080fd5b50611362613530565b6040518082815260200191505060405180910390f35b34801561138457600080fd5b506114f56004803603606081101561139b57600080fd5b81019080803590602001906401000000008111156113b857600080fd5b8201836020820111156113ca57600080fd5b803590602001918460018302840111640100000000831117156113ec57600080fd5b91908080601f016020809104026020016040519081016040528093929190818152602001838380828437600081840152601f19601f8201169050808301925050505050505091929192908035906020019064010000000081111561144f57600080fd5b82018360208201111561146157600080fd5b8035906020019184600183028401116401000000008311171561148357600080fd5b91908080601f016020809104026020016040519081016040528093929190818152602001838380828437600081840152601f19601f820116905080830192505050505050509192919290803573ffffffffffffffffffffffffffffffffffffffff16906020019092919050505061353d565b005b60606002600060048481548110151561150c57fe5b9060005260206000200160009054906101000a900473ffffffffffffffffffffffffffffffffffffffff1673ffffffffffffffffffffffffffffffffffffffff1673ffffffffffffffffffffffffffffffffffffffff1681526020019081526020016000206004016001018054600181600116156101000203166002900480601f01602080910402602001604051908101604052809291908181526020018280546001816001161561010002031660029004801561160b5780601f106115e05761010080835404028352916020019161160b565b820191906000526020600020905b8154815290600101906020018083116115ee57829003601f168201915b50505050509050919050565b600654600760009054906101000a900473ffffffffffffffffffffffffffffffffffffffff1673ffffffffffffffffffffffffffffffffffffffff166370a08231336040518263ffffffff167c0100000000000000000000000000000000000000000000000000000000028152600401808273ffffffffffffffffffffffffffffffffffffffff1673ffffffffffffffffffffffffffffffffffffffff16815260200191505060206040518083038186803b1580156116d557600080fd5b505afa1580156116e9573d6000803e3d6000fd5b505050506040513d60208110156116ff57600080fd5b810190808051906020019092919050505011151561171c57600080fd5b600260003373ffffffffffffffffffffffffffffffffffffffff1673ffffffffffffffffffffffffffffffffffffffff16815260200190815260200160002060070160009054906101000a900460ff16151561177757600080fd5b80604051602001808273ffffffffffffffffffffffffffffffffffffffff1673ffffffffffffffffffffffffffffffffffffffff166c010000000000000000000000000281526014019150506040516020818303038152906040528051906020012033604051602001808273ffffffffffffffffffffffffffffffffffffffff1673ffffffffffffffffffffffffffffffffffffffff166c01000000000000000000000000028152601401915050604051602081830303815290604052805190602001201415151561184857600080fd5b60001515600260003373ffffffffffffffffffffffffffffffffffffffff1673ffffffffffffffffffffffffffffffffffffffff16815260200190815260200160002060090160008373ffffffffffffffffffffffffffffffffffffffff1673ffffffffffffffffffffffffffffffffffffffff1681526020019081526020016000206000600260008573ffffffffffffffffffffffffffffffffffffffff1673ffffffffffffffffffffffffffffffffffffffff16815260200190815260200160002060000160049054906101000a900461ffff1661ffff16815260200190815260200160002060009054906101000a900460ff16151514151561194c57600080fd5b6001600260003373ffffffffffffffffffffffffffffffffffffffff1673ffffffffffffffffffffffffffffffffffffffff16815260200190815260200160002060090160008373ffffffffffffffffffffffffffffffffffffffff1673ffffffffffffffffffffffffffffffffffffffff1681526020019081526020016000206000600260008573ffffffffffffffffffffffffffffffffffffffff1673ffffffffffffffffffffffffffffffffffffffff16815260200190815260200160002060000160049054906101000a900461ffff1661ffff16815260200190815260200160002060006101000a81548160ff0219169083151502179055506001600260008373ffffffffffffffffffffffffffffffffffffffff1673ffffffffffffffffffffffffffffffffffffffff16815260200190815260200160002060000160008282829054906101000a900461ffff160192506101000a81548161ffff021916908361ffff1602179055506001600260003373ffffffffffffffffffffffffffffffffffffffff1673ffffffffffffffffffffffffffffffffffffffff16815260200190815260200160002060000160028282829054906101000a900461ffff160192506101000a81548161ffff021916908361ffff16021790555060016000808282829054906101000a900461ffff160192506101000a81548161ffff021916908361ffff16021790555050565b6000600260008373ffffffffffffffffffffffffffffffffffffffff1673ffffffffffffffffffffffffffffffffffffffff16815260200190815260200160002060000160049054906101000a900461ffff1661ffff169050919050565b600060026000600584815481101515611bd157fe5b9060005260206000200160009054906101000a900473ffffffffffffffffffffffffffffffffffffffff1673ffffffffffffffffffffffffffffffffffffffff1673ffffffffffffffffffffffffffffffffffffffff16815260200190815260200160002060000160029054906101000a900461ffff1661ffff169050919050565b606060026000600484815481101515611c6857fe5b9060005260206000200160009054906101000a900473ffffffffffffffffffffffffffffffffffffffff1673ffffffffffffffffffffffffffffffffffffffff1673ffffffffffffffffffffffffffffffffffffffff1681526020019081526020016000206004016000018054600181600116156101000203166002900480601f016020809104026020016040519081016040528092919081815260200182805460018160011615610100020316600290048015611d675780601f10611d3c57610100808354040283529160200191611d67565b820191906000526020600020905b815481529060010190602001808311611d4a57829003601f168201915b50505050509050919050565b6000600582815481101515611d8457fe5b9060005260206000200160009054906101000a900473ffffffffffffffffffffffffffffffffffffffff169050919050565b6000600260008373ffffffffffffffffffffffffffffffffffffffff1673ffffffffffffffffffffffffffffffffffffffff16815260200190815260200160002060000160009054906101000a900461ffff1661ffff169050919050565b606060018054600181600116156101000203166002900480601f016020809104026020016040519081016040528092919081815260200182805460018160011615610100020316600290048015611eac5780601f10611e8157610100808354040283529160200191611eac565b820191906000526020600020905b815481529060010190602001808311611e8f57829003601f168201915b5050505050905090565b6060600260008373ffffffffffffffffffffffffffffffffffffffff1673ffffffffffffffffffffffffffffffffffffffff1681526020019081526020016000206002018054600181600116156101000203166002900480601f016020809104026020016040519081016040528092919081815260200182805460018160011615610100020316600290048015611f8e5780601f10611f6357610100808354040283529160200191611f8e565b820191906000526020600020905b815481529060010190602001808311611f7157829003601f168201915b50505050509050919050565b6000817effffffffffffffffffffffffffffffffffffffffffffffffffffffffffffff19168284167effffffffffffffffffffffffffffffffffffffffffffffffffffffffffffff191614905092915050565b600481815481101515611ffc57fe5b906000526020600020016000915054906101000a900473ffffffffffffffffffffffffffffffffffffffff1681565b6000600260008373ffffffffffffffffffffffffffffffffffffffff1673ffffffffffffffffffffffffffffffffffffffff16815260200190815260200160002060000160009054906101000a900461ffff1661ffff169050919050565b600260003373ffffffffffffffffffffffffffffffffffffffff1673ffffffffffffffffffffffffffffffffffffffff16815260200190815260200160002060070160009054906101000a900460ff161515156120e557600080fd5b601983511015156120f557600080fd5b6014825110151561210557600080fd5b6003836040518082805190602001908083835b60208310151561213d5780518252602082019150602081019050602083039250612118565b6001836020036101000a038019825116818451168082178552505050505050905001915050908152602001604051809103902060009054906101000a900460ff1615151561218a57600080fd5b82600260003373ffffffffffffffffffffffffffffffffffffffff1673ffffffffffffffffffffffffffffffffffffffff16815260200190815260200160002060010190805190602001906121e0929190613cba565b5081600260003373ffffffffffffffffffffffffffffffffffffffff1673ffffffffffffffffffffffffffffffffffffffff1681526020019081526020016000206002019080519060200190612237929190613cba565b5080600260003373ffffffffffffffffffffffffffffffffffffffff1673ffffffffffffffffffffffffffffffffffffffff168152602001908152602001600020600301908051906020019061228e929190613cba565b5060016003846040518082805190602001908083835b6020831015156122c957805182526020820191506020810190506020830392506122a4565b6001836020036101000a038019825116818451168082178552505050505050905001915050908152602001604051809103902060006101000a81548160ff0219169083151502179055506001600260003373ffffffffffffffffffffffffffffffffffffffff1673ffffffffffffffffffffffffffffffffffffffff16815260200190815260200160002060070160006101000a81548160ff02191690831515021790555060053390806001815401808255809150509060018203906000526020600020016000909192909190916101000a81548173ffffffffffffffffffffffffffffffffffffffff021916908373ffffffffffffffffffffffffffffffffffffffff16021790555050600760009054906101000a900473ffffffffffffffffffffffffffffffffffffffff1673ffffffffffffffffffffffffffffffffffffffff1663a6f2ae3a346040518263ffffffff167c01000000000000000000000000000000000000000000000000000000000281526004016000604051808303818588803b15801561245a57600080fd5b505af115801561246e573d6000803e3d6000fd5b5050505050600760009054906101000a900473ffffffffffffffffffffffffffffffffffffffff1673ffffffffffffffffffffffffffffffffffffffff1663a9059cbb336101f434026040518363ffffffff167c0100000000000000000000000000000000000000000000000000000000028152600401808373ffffffffffffffffffffffffffffffffffffffff1673ffffffffffffffffffffffffffffffffffffffff16815260200182815260200192505050600060405180830381600087803b15801561253c57600080fd5b505af1158015612550573d6000803e3d6000fd5b50505050505050565b6000600580549050905090565b6000600860009054906101000a900473ffffffffffffffffffffffffffffffffffffffff1673ffffffffffffffffffffffffffffffffffffffff166370a08231836040518263ffffffff167c0100000000000000000000000000000000000000000000000000000000028152600401808273ffffffffffffffffffffffffffffffffffffffff1673ffffffffffffffffffffffffffffffffffffffff16815260200191505060206040518083038186803b15801561262357600080fd5b505afa158015612637573d6000803e3d6000fd5b505050506040513d602081101561264d57600080fd5b81019080805190602001909291905050509050919050565b6060600260008473ffffffffffffffffffffffffffffffffffffffff1673ffffffffffffffffffffffffffffffffffffffff16815260200190815260200160002060080160008381526020019081526020016000206001018054600181600116156101000203166002900480601f0160208091040260200160405190810160405280929190818152602001828054600181600116156101000203166002900480156127515780601f1061272657610100808354040283529160200191612751565b820191906000526020600020905b81548152906001019060200180831161273457829003601f168201915b5050505050905092915050565b6060600260008373ffffffffffffffffffffffffffffffffffffffff1673ffffffffffffffffffffffffffffffffffffffff1681526020019081526020016000206004016000018054600181600116156101000203166002900480601f0160208091040260200160405190810160405280929190818152602001828054600181600116156101000203166002900480156128395780601f1061280e57610100808354040283529160200191612839565b820191906000526020600020905b81548152906001019060200180831161281c57829003601f168201915b50505050509050919050565b60058181548110151561285457fe5b906000526020600020016000915054906101000a900473ffffffffffffffffffffffffffffffffffffffff1681565b6000600260003373ffffffffffffffffffffffffffffffffffffffff1673ffffffffffffffffffffffffffffffffffffffff16815260200190815260200160002060090160008473ffffffffffffffffffffffffffffffffffffffff1673ffffffffffffffffffffffffffffffffffffffff1681526020019081526020016000206000600260008673ffffffffffffffffffffffffffffffffffffffff1673ffffffffffffffffffffffffffffffffffffffff16815260200190815260200160002060000160049054906101000a900461ffff1661ffff16815260200190815260200160002060009054906101000a900460ff16905092915050565b60008060029054906101000a900461ffff1661ffff16905090565b60006003826040518082805190602001908083835b6020831015156129d457805182526020820191506020810190506020830392506129af565b6001836020036101000a038019825116818451168082178552505050505050905001915050908152602001604051809103902060009054906101000a900460ff169050919050565b600060026000600484815481101515612a3157fe5b9060005260206000200160009054906101000a900473ffffffffffffffffffffffffffffffffffffffff1673ffffffffffffffffffffffffffffffffffffffff1673ffffffffffffffffffffffffffffffffffffffff16815260200190815260200160002060040160020160009054906101000a900473ffffffffffffffffffffffffffffffffffffffff169050919050565b6000600260003373ffffffffffffffffffffffffffffffffffffffff1673ffffffffffffffffffffffffffffffffffffffff16815260200190815260200160002060070160009054906101000a900460ff16905090565b60008060049054906101000a900473ffffffffffffffffffffffffffffffffffffffff16905090565b600654600760009054906101000a900473ffffffffffffffffffffffffffffffffffffffff1673ffffffffffffffffffffffffffffffffffffffff166370a08231336040518263ffffffff167c0100000000000000000000000000000000000000000000000000000000028152600401808273ffffffffffffffffffffffffffffffffffffffff1673ffffffffffffffffffffffffffffffffffffffff16815260200191505060206040518083038186803b158015612c0257600080fd5b505afa158015612c16573d6000803e3d6000fd5b505050506040513d6020811015612c2c57600080fd5b8101908080519060200190929190505050111515612c4957600080fd5b600260003373ffffffffffffffffffffffffffffffffffffffff1673ffffffffffffffffffffffffffffffffffffffff16815260200190815260200160002060070160009054906101000a900460ff161515612ca457600080fd5b60008090505b8151811015612ce057612cd38282815181101515612cc457fe5b90602001906020020151612fbf565b8080600101915050612caa565b5050565b612cec613b21565b600760009054906101000a900473ffffffffffffffffffffffffffffffffffffffff1673ffffffffffffffffffffffffffffffffffffffff1663be040fb06040518163ffffffff167c0100000000000000000000000000000000000000000000000000000000028152600401600060405180830381600087803b158015612d7257600080fd5b505af1158015612d86573d6000803e3d6000fd5b50505050612d92613d3a565b60008090505b600480549050811015612eb2578160026000600484815481101515612db957fe5b9060005260206000200160009054906101000a900473ffffffffffffffffffffffffffffffffffffffff1673ffffffffffffffffffffffffffffffffffffffff1673ffffffffffffffffffffffffffffffffffffffff1681526020019081526020016000206004016000820151816000019080519060200190612e3d929190613d72565b506020820151816001019080519060200190612e5a929190613d72565b5060408201518160020160006101000a81548173ffffffffffffffffffffffffffffffffffffffff021916908373ffffffffffffffffffffffffffffffffffffffff1602179055509050508080600101915050612d98565b506000600481612ec29190613df2565b5050565b6060600260008473ffffffffffffffffffffffffffffffffffffffff1673ffffffffffffffffffffffffffffffffffffffff16815260200190815260200160002060080160008381526020019081526020016000206000018054600181600116156101000203166002900480601f016020809104026020016040519081016040528092919081815260200182805460018160011615610100020316600290048015612fb25780601f10612f8757610100808354040283529160200191612fb2565b820191906000526020600020905b815481529060010190602001808311612f9557829003601f168201915b5050505050905092915050565b600654600760009054906101000a900473ffffffffffffffffffffffffffffffffffffffff1673ffffffffffffffffffffffffffffffffffffffff166370a08231336040518263ffffffff167c0100000000000000000000000000000000000000000000000000000000028152600401808273ffffffffffffffffffffffffffffffffffffffff1673ffffffffffffffffffffffffffffffffffffffff16815260200191505060206040518083038186803b15801561307d57600080fd5b505afa158015613091573d6000803e3d6000fd5b505050506040513d60208110156130a757600080fd5b81019080805190602001909291905050501115156130c457600080fd5b600260003373ffffffffffffffffffffffffffffffffffffffff1673ffffffffffffffffffffffffffffffffffffffff16815260200190815260200160002060070160009054906101000a900460ff16151561311f57600080fd5b6000811015151561312f57600080fd5b6004805490508110151561314257600080fd5b61318460048281548110151561315457fe5b9060005260206000200160009054906101000a900473ffffffffffffffffffffffffffffffffffffffff16611617565b50565b6060600260008373ffffffffffffffffffffffffffffffffffffffff1673ffffffffffffffffffffffffffffffffffffffff1681526020019081526020016000206003018054600181600116156101000203166002900480601f01602080910402602001604051908101604052809291908181526020018280546001816001161561010002031660029004801561325f5780601f106132345761010080835404028352916020019161325f565b820191906000526020600020905b81548152906001019060200180831161324257829003601f168201915b50505050509050919050565b6060600260008373ffffffffffffffffffffffffffffffffffffffff1673ffffffffffffffffffffffffffffffffffffffff1681526020019081526020016000206001018054600181600116156101000203166002900480601f0160208091040260200160405190810160405280929190818152602001828054600181600116156101000203166002900480156133435780601f1061331857610100808354040283529160200191613343565b820191906000526020600020905b81548152906001019060200180831161332657829003601f168201915b50505050509050919050565b60008073ffffffffffffffffffffffffffffffffffffffff16600260003373ffffffffffffffffffffffffffffffffffffffff1673ffffffffffffffffffffffffffffffffffffffff16815260200190815260200160002060040160020160009054906101000a900473ffffffffffffffffffffffffffffffffffffffff1673ffffffffffffffffffffffffffffffffffffffff16149050919050565b60008060009054906101000a900461ffff1661ffff16905090565b6000811015151561341757600080fd5b6000821015151561342757600080fd5b600082600102905060008090505b602060ff1681101561352a576000828260208110151561345157fe5b1a7f01000000000000000000000000000000000000000000000000000000000000000290506000817f0100000000000000000000000000000000000000000000000000000000000000900460ff1614151561351c5760008090505b600881101561351a5760008160020a90506000817f01000000000000000000000000000000000000000000000000000000000000000290506134ee8482611f9a565b1561350b5761350a61010088028487601f036008020101612fbf565b5b505080806001019150506134ac565b505b508080600101915050613435565b50505050565b6000600480549050905090565b600654600760009054906101000a900473ffffffffffffffffffffffffffffffffffffffff1673ffffffffffffffffffffffffffffffffffffffff166370a08231336040518263ffffffff167c0100000000000000000000000000000000000000000000000000000000028152600401808273ffffffffffffffffffffffffffffffffffffffff1673ffffffffffffffffffffffffffffffffffffffff16815260200191505060206040518083038186803b1580156135fb57600080fd5b505afa15801561360f573d6000803e3d6000fd5b505050506040513d602081101561362557600080fd5b810190808051906020019092919050505011151561364257600080fd5b600260003373ffffffffffffffffffffffffffffffffffffffff1673ffffffffffffffffffffffffffffffffffffffff16815260200190815260200160002060070160009054906101000a900460ff16151561369d57600080fd5b602e83511415156136ad57600080fd5b606482511015156136bd57600080fd5b600073ffffffffffffffffffffffffffffffffffffffff16600260003373ffffffffffffffffffffffffffffffffffffffff1673ffffffffffffffffffffffffffffffffffffffff16815260200190815260200160002060040160020160009054906101000a900473ffffffffffffffffffffffffffffffffffffffff1673ffffffffffffffffffffffffffffffffffffffff1614151561375d57600080fd5b613765613d3a565b83816000018190525081816040019073ffffffffffffffffffffffffffffffffffffffff16908173ffffffffffffffffffffffffffffffffffffffff168152505082816020018190525080600260003373ffffffffffffffffffffffffffffffffffffffff1673ffffffffffffffffffffffffffffffffffffffff168152602001908152602001600020600401600082015181600001908051906020019061380e929190613d72565b50602082015181600101908051906020019061382b929190613d72565b5060408201518160020160006101000a81548173ffffffffffffffffffffffffffffffffffffffff021916908373ffffffffffffffffffffffffffffffffffffffff16021790555090505080600260003373ffffffffffffffffffffffffffffffffffffffff1673ffffffffffffffffffffffffffffffffffffffff1681526020019081526020016000206008016000600260003373ffffffffffffffffffffffffffffffffffffffff1673ffffffffffffffffffffffffffffffffffffffff16815260200190815260200160002060000160049054906101000a900461ffff1661ffff168152602001908152602001600020600082015181600001908051906020019061393a929190613d72565b506020820151816001019080519060200190613957929190613d72565b5060408201518160020160006101000a81548173ffffffffffffffffffffffffffffffffffffffff021916908373ffffffffffffffffffffffffffffffffffffffff1602179055509050506001600060028282829054906101000a900461ffff160192506101000a81548161ffff021916908361ffff1602179055506001600260003373ffffffffffffffffffffffffffffffffffffffff1673ffffffffffffffffffffffffffffffffffffffff16815260200190815260200160002060000160048282829054906101000a900461ffff160192506101000a81548161ffff021916908361ffff1602179055506001600260003373ffffffffffffffffffffffffffffffffffffffff1673ffffffffffffffffffffffffffffffffffffffff16815260200190815260200160002060000160028282829054906101000a900461ffff160192506101000a81548161ffff021916908361ffff16021790555060043390806001815401808255809150509060018203906000526020600020016000909192909190916101000a81548173ffffffffffffffffffffffffffffffffffffffff021916908373ffffffffffffffffffffffffffffffffffffffff1602179055505050505050565b60008060009054906101000a900461ffff1661ffff16434260405160200180828152602001915050604051602081830303815290604052805190602001206001900401811515613b6d57fe5b06905060008090506000809050600080905060008090505b60048054905081108015613b97575081155b15613c4b5760026000600483815481101515613baf57fe5b9060005260206000200160009054906101000a900473ffffffffffffffffffffffffffffffffffffffff1673ffffffffffffffffffffffffffffffffffffffff1673ffffffffffffffffffffffffffffffffffffffff16815260200190815260200160002060000160009054906101000a900461ffff1661ffff168401935084841115613c3e57809250600191505b8080600101915050613b85565b50613c5582611c53565b60019080519060200190613c6a929190613cba565b50613c7482612a1c565b600060046101000a81548173ffffffffffffffffffffffffffffffffffffffff021916908373ffffffffffffffffffffffffffffffffffffffff16021790555050505050565b828054600181600116156101000203166002900490600052602060002090601f016020900481019282601f10613cfb57805160ff1916838001178555613d29565b82800160010185558215613d29579182015b82811115613d28578251825591602001919060010190613d0d565b5b509050613d369190613e1e565b5090565b6060604051908101604052806060815260200160608152602001600073ffffffffffffffffffffffffffffffffffffffff1681525090565b828054600181600116156101000203166002900490600052602060002090601f016020900481019282601f10613db357805160ff1916838001178555613de1565b82800160010185558215613de1579182015b82811115613de0578251825591602001919060010190613dc5565b5b509050613dee9190613e1e565b5090565b815481835581811115613e1957818360005260206000209182019101613e189190613e1e565b5b505050565b613e4091905b80821115613e3c576000816000905550600101613e24565b5090565b9056fea165627a7a72305820d7753f2168296b7191d0dc5953d93f00eca5d6ded1ac90ad8834ad7a46e482000029",
  "source": "pragma solidity ^0.5.0;\n// We have to specify what version of compiler this code will compile with\n\nimport \"../contracts/Token.sol\";\nimport \"../contracts/Trophies.sol\";\n\ncontract Hashes{\n\n  uint16 totalVotes;\n  uint16 totalPhotos;\n  address winnerAddress;\n  string winnerHash;\n\n  struct hashes{\n         string hash;\n         string caption;\n         address addr;\n  }\n\n  struct properties{\n      uint16 votesReceived;\n      uint16 actionsDone;\n      uint16 photosPosted;\n      string name;\n      string profileName;\n      string profileImage;\n      hashes registry;\n      bool participated;\n      mapping(uint256 => hashes) allPosts;\n      mapping(address => mapping (uint256 => bool)) votedFor;\n  }\n\n  mapping(address => properties) address_properties;\n  mapping(string => bool) nameTaken;\n  address[] public participants;\n  address[] public all_participants;\n  uint minTokens;\n  MyToken token;\n  MyTrophy trophy;\n  address payable token_address;\n\n\n\n\n\n  constructor(uint _minTokens, address payable _myToken, address _myTrophy) public{\n    minTokens = _minTokens;\n    token = MyToken(_myToken);\n    token_address = _myToken;\n    token.setAddress(address(this));\n    trophy = MyTrophy(_myTrophy);\n    trophy.setAddress(address(this));\n\n  }\n\n  function addHash(string memory _ipfsHash, string memory _caption, address _ipfsAddress) public enoughCoins validAccount{\n     require (bytes(_ipfsHash).length == 46);\n     require (bytes(_caption).length < 100);\n     require (address_properties[msg.sender].registry.addr == address(0));\n     hashes memory myHash;\n     myHash.hash = _ipfsHash;\n     myHash.addr = _ipfsAddress;\n     myHash.caption = _caption;\n     address_properties[msg.sender].registry = myHash;\n     address_properties[msg.sender].allPosts[address_properties[msg.sender].photosPosted] = myHash;\n     totalPhotos += 1;\n     address_properties[msg.sender].photosPosted += 1;\n     address_properties[msg.sender].actionsDone += 1;\n     participants.push(msg.sender);\n  }\n\n  modifier enoughCoins() {\n\t\tif (!(token.balanceOf(msg.sender) > minTokens)) revert();\n\t\t_;\n\t}\n\n  modifier validAccount() {\n\t\tif (!(address_properties[msg.sender].participated)) revert();\n\t\t_;\n\t}\n\n  function voteForCandidate(address candidate) public enoughCoins validAccount{\n  \trequire (keccak256(abi.encodePacked(msg.sender)) != keccak256(abi.encodePacked(candidate)));\n    require (address_properties[msg.sender].votedFor[candidate][address_properties[candidate].photosPosted] == false);\n    address_properties[msg.sender].votedFor[candidate][address_properties[candidate].photosPosted] = true;\n    address_properties[candidate].votesReceived += 1;\n    address_properties[msg.sender].actionsDone += 1;\n  \ttotalVotes += 1;\n\n  }\n\n  function registerAccount(string memory _name, string memory _profileName, string memory _ipfsHash) public payable{\n     require (!address_properties[msg.sender].participated);\n     require (bytes(_name).length < 25);\n     require (bytes(_profileName).length < 20);\n     require (!nameTaken[_name]);\n     //require (bytes(_ipfsHash).length == 46);\n     address_properties[msg.sender].name = _name;\n     address_properties[msg.sender].profileName = _profileName;\n     address_properties[msg.sender].profileImage = _ipfsHash;\n     nameTaken[_name] = true;\n     address_properties[msg.sender].participated = true;\n     all_participants.push(msg.sender);\n     token.buy.value(msg.value)();\n     token.transfer(msg.sender, msg.value*500);\n\n  }\n\n  function accountRegistered() public view returns (bool){\n    return (address_properties[msg.sender].participated);\n  }\n\n  function voteByIndex(uint candidate_index) public enoughCoins validAccount{\n\n    require(candidate_index >= 0);\n    require(candidate_index < participants.length);\n  \tvoteForCandidate(participants[candidate_index]);\n  }\n\n  function voteForListByIndex(uint[] memory candidates_indexes) public enoughCoins validAccount{\n\n    for (uint i = 0; i < candidates_indexes.length; i++){\n        voteByIndex(candidates_indexes[i]);\n    }\n  }\n\n  function bitSet(byte b, byte a) public returns (bool){\n    return (b & a == a);\n  }\n\n  function voteForListByBitString(uint n, uint shift) public{\n\n    require(shift >= 0);\n    require(n >= 0);\n\n    bytes32 byteArray = bytes32(n);\n    for (uint i = 0; i < byteArray.length; i++){\n        byte temp = byteArray[i];\n        if (uint8(temp) != 0){\n            for (uint j = 0; j < 8; j++){\n              uint8 num = uint8(2 ** j);\n              byte value = byte(num);\n              if (bitSet(temp, value)){\n                voteByIndex(8*(31 - i)+j+shift*256);\n              }\n            }\n        }\n    }\n  }\n\n\n  function getWinner() internal {\n    uint random = uint((uint(keccak256(abi.encodePacked((block.timestamp)))) + block.number) % totalVotes);\n    uint num = 0;\n    uint winnerIndex = 0;\n    bool done = false;\n\n    for (uint i = 0; i < participants.length && !done; i++){\n      num += (address_properties[participants[i]].votesReceived);\n      if (num > random){\n        winnerIndex = i;\n        done = true;\n      }\n    }\n    winnerHash = getList(winnerIndex);\n    winnerAddress = getAddress(winnerIndex);\n\n  }\n\n  function returnWinnerHash() public view returns (string memory){\n  \treturn winnerHash;\n  }\n\n  function returnWinnerAddress() public view returns (address){\n  \treturn winnerAddress;\n  }\n\n  function getList(uint x) public view returns (string memory){\n  \treturn address_properties[participants[x]].registry.hash;\n  }\n\n  function viewPhotos(address _owner, uint index) public view returns (string memory){\n  \treturn address_properties[_owner].allPosts[index].hash;\n  }\n\n  function viewCaption(address _owner, uint index) public view returns (string memory){\n    return address_properties[_owner].allPosts[index].caption;\n  }\n\n  function getListByAddress(address x) public view returns (string memory){\n  \treturn address_properties[x].registry.hash;\n  }\n\n  function getCaption(uint x) public view returns (string memory){\n    return address_properties[participants[x]].registry.caption;\n  }\n\n  function getAddress(uint x) public view returns (address){\n  \treturn address_properties[participants[x]].registry.addr;\n  }\n\n  function returnTotalVotes() public view returns (uint){\n    return totalVotes;\n  }\n\n  function returnTotalPhotos() public view returns (uint){\n    return totalPhotos;\n  }\n\n  function totalVotesFor(address x) public view returns(uint){\n  \treturn address_properties[x].votesReceived;\n  }\n\n  function listLength() public view returns (uint){\n  \treturn participants.length;\n  }\n\n  function numParticipants() public view returns (uint){\n    return all_participants.length;\n  }\n\n  function likedPhoto(address x, uint index) public view returns (bool){\n    return address_properties[msg.sender].votedFor[x][address_properties[x].photosPosted];\n  }\n\n  function getParticipant(uint x) public view returns (address){\n    return all_participants[x];\n  }\n\n  function numActions(uint x) public view returns (uint){\n    return address_properties[all_participants[x]].actionsDone;\n  }\n\n  function totalVotesReceived(address x) public view returns(uint){\n    return address_properties[x].votesReceived;\n  }\n\n  function totalPhotosPosted(address x) public view returns(uint){\n    return address_properties[x].photosPosted;\n  }\n\n  function totalTrophies(address x) public view returns(uint){\n    return trophy.balanceOf(x);\n  }\n\n  function getUserName (address x) public view returns(string memory){\n    return address_properties[x].name;\n  }\n  function getProfileName (address x) public view returns(string memory){\n    return address_properties[x].profileName;\n  }\n  function getProfileImage (address x) public view returns(string memory){\n    return address_properties[x].profileImage;\n  }\n  function isNameTaken (string memory _name) public view returns(bool){\n    return (nameTaken[_name]);\n  }\n  function alreadyPosted (address x) public view returns(bool){\n    return (address_properties[msg.sender].registry.addr == address(0));\n  }\n\n  function newRound() public{\n    getWinner();\n    token.redeem();\n    hashes memory myHash;\n    for (uint i = 0; i < participants.length; i++){\n      address_properties[participants[i]].registry = myHash;\n    }\n    participants.length = 0;\n  }\n\n}\n",
  "sourcePath": "/Users/ryachen/Desktop/Quest/eth-chain/app/contracts/Hashes.sol",
  "compiler": {
    "name": "solc",
    "version": "0.5.0+commit.1d4f565a.Emscripten.clang"
  },
  "schemaVersion": "3.0.6",
  "updatedAt": "2019-04-16T23:09:48.493Z",
  "devdoc": {
    "methods": {}
  },
  "userdoc": {
    "methods": {}
  }
}