{
  "contractName": "Hashes",
  "abi": [
    {
      "constant": true,
      "inputs": [
        {
          "name": "",
          "type": "uint256"
        }
      ],
      "name": "participants",
      "outputs": [
        {
          "name": "",
          "type": "address"
        }
      ],
      "payable": false,
      "stateMutability": "view",
      "type": "function"
    },
    {
      "constant": true,
      "inputs": [
        {
          "name": "",
          "type": "uint256"
        }
      ],
      "name": "all_participants",
      "outputs": [
        {
          "name": "",
          "type": "address"
        }
      ],
      "payable": false,
      "stateMutability": "view",
      "type": "function"
    },
    {
      "inputs": [
        {
          "name": "_minTokens",
          "type": "uint256"
        },
        {
          "name": "_myToken",
          "type": "address"
        }
      ],
      "payable": false,
      "stateMutability": "nonpayable",
      "type": "constructor"
    },
    {
      "constant": false,
      "inputs": [
        {
          "name": "_ipfsHash",
          "type": "string"
        },
        {
          "name": "_caption",
          "type": "string"
        },
        {
          "name": "_ipfsAddress",
          "type": "address"
        }
      ],
      "name": "addHash",
      "outputs": [],
      "payable": false,
      "stateMutability": "nonpayable",
      "type": "function"
    },
    {
      "constant": false,
      "inputs": [
        {
          "name": "candidate",
          "type": "address"
        }
      ],
      "name": "voteForCandidate",
      "outputs": [],
      "payable": false,
      "stateMutability": "nonpayable",
      "type": "function"
    },
    {
      "constant": false,
      "inputs": [
        {
          "name": "_name",
          "type": "string"
        },
        {
          "name": "_profileName",
          "type": "string"
        },
        {
          "name": "_ipfsHash",
          "type": "string"
        }
      ],
      "name": "registerAccount",
      "outputs": [],
      "payable": true,
      "stateMutability": "payable",
      "type": "function"
    },
    {
      "constant": true,
      "inputs": [],
      "name": "accountRegistered",
      "outputs": [
        {
          "name": "",
          "type": "bool"
        }
      ],
      "payable": false,
      "stateMutability": "view",
      "type": "function"
    },
    {
      "constant": false,
      "inputs": [
        {
          "name": "candidate_index",
          "type": "uint256"
        }
      ],
      "name": "voteByIndex",
      "outputs": [],
      "payable": false,
      "stateMutability": "nonpayable",
      "type": "function"
    },
    {
      "constant": false,
      "inputs": [
        {
          "name": "candidates_indexes",
          "type": "uint256[]"
        }
      ],
      "name": "voteForListByIndex",
      "outputs": [],
      "payable": false,
      "stateMutability": "nonpayable",
      "type": "function"
    },
    {
      "constant": false,
      "inputs": [
        {
          "name": "b",
          "type": "bytes1"
        },
        {
          "name": "a",
          "type": "bytes1"
        }
      ],
      "name": "bitSet",
      "outputs": [
        {
          "name": "",
          "type": "bool"
        }
      ],
      "payable": false,
      "stateMutability": "nonpayable",
      "type": "function"
    },
    {
      "constant": false,
      "inputs": [
        {
          "name": "n",
          "type": "uint256"
        },
        {
          "name": "shift",
          "type": "uint256"
        }
      ],
      "name": "voteForListByBitString",
      "outputs": [],
      "payable": false,
      "stateMutability": "nonpayable",
      "type": "function"
    },
    {
      "constant": true,
      "inputs": [],
      "name": "returnWinnerHash",
      "outputs": [
        {
          "name": "",
          "type": "string"
        }
      ],
      "payable": false,
      "stateMutability": "view",
      "type": "function"
    },
    {
      "constant": true,
      "inputs": [],
      "name": "returnWinnerAddress",
      "outputs": [
        {
          "name": "",
          "type": "address"
        }
      ],
      "payable": false,
      "stateMutability": "view",
      "type": "function"
    },
    {
      "constant": true,
      "inputs": [],
      "name": "returnWinnerCaption",
      "outputs": [
        {
          "name": "",
          "type": "string"
        }
      ],
      "payable": false,
      "stateMutability": "view",
      "type": "function"
    },
    {
      "constant": true,
      "inputs": [
        {
          "name": "x",
          "type": "uint256"
        }
      ],
      "name": "getList",
      "outputs": [
        {
          "name": "",
          "type": "string"
        }
      ],
      "payable": false,
      "stateMutability": "view",
      "type": "function"
    },
    {
      "constant": true,
      "inputs": [
        {
          "name": "_owner",
          "type": "address"
        },
        {
          "name": "index",
          "type": "uint256"
        }
      ],
      "name": "viewPhotos",
      "outputs": [
        {
          "name": "",
          "type": "string"
        }
      ],
      "payable": false,
      "stateMutability": "view",
      "type": "function"
    },
    {
      "constant": true,
      "inputs": [
        {
          "name": "_owner",
          "type": "address"
        },
        {
          "name": "index",
          "type": "uint256"
        }
      ],
      "name": "viewCaption",
      "outputs": [
        {
          "name": "",
          "type": "string"
        }
      ],
      "payable": false,
      "stateMutability": "view",
      "type": "function"
    },
    {
      "constant": true,
      "inputs": [
        {
          "name": "x",
          "type": "address"
        }
      ],
      "name": "getListByAddress",
      "outputs": [
        {
          "name": "",
          "type": "string"
        }
      ],
      "payable": false,
      "stateMutability": "view",
      "type": "function"
    },
    {
      "constant": true,
      "inputs": [
        {
          "name": "x",
          "type": "uint256"
        }
      ],
      "name": "getCaption",
      "outputs": [
        {
          "name": "",
          "type": "string"
        }
      ],
      "payable": false,
      "stateMutability": "view",
      "type": "function"
    },
    {
      "constant": true,
      "inputs": [
        {
          "name": "x",
          "type": "uint256"
        }
      ],
      "name": "getAddress",
      "outputs": [
        {
          "name": "",
          "type": "address"
        }
      ],
      "payable": false,
      "stateMutability": "view",
      "type": "function"
    },
    {
      "constant": true,
      "inputs": [],
      "name": "returnTotalVotes",
      "outputs": [
        {
          "name": "",
          "type": "uint256"
        }
      ],
      "payable": false,
      "stateMutability": "view",
      "type": "function"
    },
    {
      "constant": true,
      "inputs": [],
      "name": "returnTotalPhotos",
      "outputs": [
        {
          "name": "",
          "type": "uint256"
        }
      ],
      "payable": false,
      "stateMutability": "view",
      "type": "function"
    },
    {
      "constant": true,
      "inputs": [
        {
          "name": "x",
          "type": "address"
        }
      ],
      "name": "totalVotesFor",
      "outputs": [
        {
          "name": "",
          "type": "uint256"
        }
      ],
      "payable": false,
      "stateMutability": "view",
      "type": "function"
    },
    {
      "constant": true,
      "inputs": [],
      "name": "listLength",
      "outputs": [
        {
          "name": "",
          "type": "uint256"
        }
      ],
      "payable": false,
      "stateMutability": "view",
      "type": "function"
    },
    {
      "constant": true,
      "inputs": [],
      "name": "numParticipants",
      "outputs": [
        {
          "name": "",
          "type": "uint256"
        }
      ],
      "payable": false,
      "stateMutability": "view",
      "type": "function"
    },
    {
      "constant": true,
      "inputs": [
        {
          "name": "x",
          "type": "address"
        }
      ],
      "name": "likedPhoto",
      "outputs": [
        {
          "name": "",
          "type": "bool"
        }
      ],
      "payable": false,
      "stateMutability": "view",
      "type": "function"
    },
    {
      "constant": true,
      "inputs": [
        {
          "name": "x",
          "type": "uint256"
        }
      ],
      "name": "getParticipant",
      "outputs": [
        {
          "name": "",
          "type": "address"
        }
      ],
      "payable": false,
      "stateMutability": "view",
      "type": "function"
    },
    {
      "constant": true,
      "inputs": [
        {
          "name": "x",
          "type": "uint256"
        }
      ],
      "name": "numActions",
      "outputs": [
        {
          "name": "",
          "type": "uint256"
        }
      ],
      "payable": false,
      "stateMutability": "view",
      "type": "function"
    },
    {
      "constant": true,
      "inputs": [
        {
          "name": "x",
          "type": "address"
        }
      ],
      "name": "totalVotesReceived",
      "outputs": [
        {
          "name": "",
          "type": "uint256"
        }
      ],
      "payable": false,
      "stateMutability": "view",
      "type": "function"
    },
    {
      "constant": true,
      "inputs": [
        {
          "name": "x",
          "type": "address"
        }
      ],
      "name": "totalPhotosPosted",
      "outputs": [
        {
          "name": "",
          "type": "uint256"
        }
      ],
      "payable": false,
      "stateMutability": "view",
      "type": "function"
    },
    {
      "constant": true,
      "inputs": [
        {
          "name": "x",
          "type": "address"
        }
      ],
      "name": "getUserName",
      "outputs": [
        {
          "name": "",
          "type": "string"
        }
      ],
      "payable": false,
      "stateMutability": "view",
      "type": "function"
    },
    {
      "constant": true,
      "inputs": [
        {
          "name": "x",
          "type": "address"
        }
      ],
      "name": "getProfileName",
      "outputs": [
        {
          "name": "",
          "type": "string"
        }
      ],
      "payable": false,
      "stateMutability": "view",
      "type": "function"
    },
    {
      "constant": true,
      "inputs": [
        {
          "name": "x",
          "type": "address"
        }
      ],
      "name": "getProfileImage",
      "outputs": [
        {
          "name": "",
          "type": "string"
        }
      ],
      "payable": false,
      "stateMutability": "view",
      "type": "function"
    },
    {
      "constant": true,
      "inputs": [
        {
          "name": "_name",
          "type": "string"
        }
      ],
      "name": "isNameTaken",
      "outputs": [
        {
          "name": "",
          "type": "bool"
        }
      ],
      "payable": false,
      "stateMutability": "view",
      "type": "function"
    },
    {
      "constant": true,
      "inputs": [
        {
          "name": "x",
          "type": "address"
        }
      ],
      "name": "alreadyPosted",
      "outputs": [
        {
          "name": "",
          "type": "bool"
        }
      ],
      "payable": false,
      "stateMutability": "view",
      "type": "function"
    },
    {
      "constant": false,
      "inputs": [],
      "name": "newRound",
      "outputs": [],
      "payable": false,
      "stateMutability": "nonpayable",
      "type": "function"
    },
    {
      "constant": false,
      "inputs": [],
      "name": "overRideReset",
      "outputs": [],
      "payable": false,
      "stateMutability": "nonpayable",
      "type": "function"
    },
    {
      "constant": true,
      "inputs": [],
      "name": "getTime",
      "outputs": [
        {
          "name": "",
          "type": "uint256"
        }
      ],
      "payable": false,
      "stateMutability": "view",
      "type": "function"
    }
  ],
  "bytecode": "0x60806040526000600c60006101000a81548160ff0219169083151502179055503480156200002c57600080fd5b5060405160408062004303833981018060405260408110156200004e57600080fd5b8101908080519060200190929190805190602001909291905050506103e8820260078190555080600860006101000a81548173ffffffffffffffffffffffffffffffffffffffff021916908373ffffffffffffffffffffffffffffffffffffffff16021790555080600960006101000a81548173ffffffffffffffffffffffffffffffffffffffff021916908373ffffffffffffffffffffffffffffffffffffffff160217905550600860009054906101000a900473ffffffffffffffffffffffffffffffffffffffff1673ffffffffffffffffffffffffffffffffffffffff1663e30081a0306040518263ffffffff167c0100000000000000000000000000000000000000000000000000000000028152600401808273ffffffffffffffffffffffffffffffffffffffff1673ffffffffffffffffffffffffffffffffffffffff168152602001915050600060405180830381600087803b158015620001b457600080fd5b505af1158015620001c9573d6000803e3d6000fd5b5050505043600a81905550505061411d80620001e66000396000f3fe6080604052600436106101cd576000357c0100000000000000000000000000000000000000000000000000000000900463ffffffff1680630257e249146101d2578063163046eb1461028657806318359009146102d7578063186d45ac1461033c5780631ab5b3831461038b5780631b9db2ef1461043f578063287e0c8e146104ba5780632f8f7cf11461051f57806333661b29146105af578063342f3fde1461067957806335c1d3491461071a5780634041ef5414610795578063412fac67146107fa5780634e76a846146109e3578063557ed1ba14610a0e57806379c52b7314610a395780638177d11b14610b0d5780638516ff3314610b765780638eee554614610c40578063a7eb9e2e14610cbb578063b3da4e3414610ce6578063b93f9b0a14610dc6578063b9d3198114610e41578063bb0bd6e514610e70578063bc5d878714610ec7578063c5b1d9aa14610f8c578063c7689b0d14610fa3578063cc4709f014611077578063d2c8dd35146110b2578063d84f55ee1461117c578063e06b4db714611246578063e36fccc9146112af578063eb279f5f146112da578063f9d52abe146112f1578063fb6f049f14611336578063fbccabd714611361578063fe90acf6146114e0575b600080fd5b3480156101de57600080fd5b5061020b600480360360208110156101f557600080fd5b8101908080359060200190929190505050611570565b6040518080602001828103825283818151815260200191508051906020019080838360005b8381101561024b578082015181840152602081019050610230565b50505050905090810190601f1680156102785780820380516001836020036101000a031916815260200191505b509250505060405180910390f35b34801561029257600080fd5b506102d5600480360360208110156102a957600080fd5b81019080803573ffffffffffffffffffffffffffffffffffffffff169060200190929190505050611690565b005b3480156102e357600080fd5b50610326600480360360208110156102fa57600080fd5b81019080803573ffffffffffffffffffffffffffffffffffffffff169060200190929190505050611bd7565b6040518082815260200191505060405180910390f35b34801561034857600080fd5b506103756004803603602081101561035f57600080fd5b8101908080359060200190929190505050611c35565b6040518082815260200191505060405180910390f35b34801561039757600080fd5b506103c4600480360360208110156103ae57600080fd5b8101908080359060200190929190505050611ccc565b6040518080602001828103825283818151815260200191508051906020019080838360005b838110156104045780820151818401526020810190506103e9565b50505050905090810190601f1680156104315780820380516001836020036101000a031916815260200191505b509250505060405180910390f35b34801561044b57600080fd5b506104786004803603602081101561046257600080fd5b8101908080359060200190929190505050611dec565b604051808273ffffffffffffffffffffffffffffffffffffffff1673ffffffffffffffffffffffffffffffffffffffff16815260200191505060405180910390f35b3480156104c657600080fd5b50610509600480360360208110156104dd57600080fd5b81019080803573ffffffffffffffffffffffffffffffffffffffff169060200190929190505050611e2f565b6040518082815260200191505060405180910390f35b34801561052b57600080fd5b50610534611e8d565b6040518080602001828103825283818151815260200191508051906020019080838360005b83811015610574578082015181840152602081019050610559565b50505050905090810190601f1680156105a15780820380516001836020036101000a031916815260200191505b509250505060405180910390f35b3480156105bb57600080fd5b506105fe600480360360208110156105d257600080fd5b81019080803573ffffffffffffffffffffffffffffffffffffffff169060200190929190505050611f2f565b6040518080602001828103825283818151815260200191508051906020019080838360005b8381101561063e578082015181840152602081019050610623565b50505050905090810190601f16801561066b5780820380516001836020036101000a031916815260200191505b509250505060405180910390f35b34801561068557600080fd5b506107006004803603604081101561069c57600080fd5b8101908080357effffffffffffffffffffffffffffffffffffffffffffffffffffffffffffff1916906020019092919080357effffffffffffffffffffffffffffffffffffffffffffffffffffffffffffff19169060200190929190505050612013565b604051808215151515815260200191505060405180910390f35b34801561072657600080fd5b506107536004803603602081101561073d57600080fd5b8101908080359060200190929190505050612066565b604051808273ffffffffffffffffffffffffffffffffffffffff1673ffffffffffffffffffffffffffffffffffffffff16815260200191505060405180910390f35b3480156107a157600080fd5b506107e4600480360360208110156107b857600080fd5b81019080803573ffffffffffffffffffffffffffffffffffffffff1690602001909291905050506120a4565b6040518082815260200191505060405180910390f35b6109e16004803603606081101561081057600080fd5b810190808035906020019064010000000081111561082d57600080fd5b82018360208201111561083f57600080fd5b8035906020019184600183028401116401000000008311171561086157600080fd5b91908080601f016020809104026020016040519081016040528093929190818152602001838380828437600081840152601f19601f820116905080830192505050505050509192919290803590602001906401000000008111156108c457600080fd5b8201836020820111156108d657600080fd5b803590602001918460018302840111640100000000831117156108f857600080fd5b91908080601f016020809104026020016040519081016040528093929190818152602001838380828437600081840152601f19601f8201169050808301925050505050505091929192908035906020019064010000000081111561095b57600080fd5b82018360208201111561096d57600080fd5b8035906020019184600183028401116401000000008311171561098f57600080fd5b91908080601f016020809104026020016040519081016040528093929190818152602001838380828437600081840152601f19601f820116905080830192505050505050509192919290505050612102565b005b3480156109ef57600080fd5b506109f86125d2565b6040518082815260200191505060405180910390f35b348015610a1a57600080fd5b50610a236125df565b6040518082815260200191505060405180910390f35b348015610a4557600080fd5b50610a9260048036036040811015610a5c57600080fd5b81019080803573ffffffffffffffffffffffffffffffffffffffff169060200190929190803590602001909291905050506125eb565b6040518080602001828103825283818151815260200191508051906020019080838360005b83811015610ad2578082015181840152602081019050610ab7565b50505050905090810190601f168015610aff5780820380516001836020036101000a031916815260200191505b509250505060405180910390f35b348015610b1957600080fd5b50610b5c60048036036020811015610b3057600080fd5b81019080803573ffffffffffffffffffffffffffffffffffffffff1690602001909291905050506126e4565b604051808215151515815260200191505060405180910390f35b348015610b8257600080fd5b50610bc560048036036020811015610b9957600080fd5b81019080803573ffffffffffffffffffffffffffffffffffffffff1690602001909291905050506127df565b6040518080602001828103825283818151815260200191508051906020019080838360005b83811015610c05578082015181840152602081019050610bea565b50505050905090810190601f168015610c325780820380516001836020036101000a031916815260200191505b509250505060405180910390f35b348015610c4c57600080fd5b50610c7960048036036020811015610c6357600080fd5b81019080803590602001909291905050506128c6565b604051808273ffffffffffffffffffffffffffffffffffffffff1673ffffffffffffffffffffffffffffffffffffffff16815260200191505060405180910390f35b348015610cc757600080fd5b50610cd0612904565b6040518082815260200191505060405180910390f35b348015610cf257600080fd5b50610dac60048036036020811015610d0957600080fd5b8101908080359060200190640100000000811115610d2657600080fd5b820183602082011115610d3857600080fd5b80359060200191846001830284011164010000000083111715610d5a57600080fd5b91908080601f016020809104026020016040519081016040528093929190818152602001838380828437600081840152601f19601f82011690508083019250505050505050919291929050505061291f565b604051808215151515815260200191505060405180910390f35b348015610dd257600080fd5b50610dff60048036036020811015610de957600080fd5b81019080803590602001909291905050506129a1565b604051808273ffffffffffffffffffffffffffffffffffffffff1673ffffffffffffffffffffffffffffffffffffffff16815260200191505060405180910390f35b348015610e4d57600080fd5b50610e56612a49565b604051808215151515815260200191505060405180910390f35b348015610e7c57600080fd5b50610e85612aa0565b604051808273ffffffffffffffffffffffffffffffffffffffff1673ffffffffffffffffffffffffffffffffffffffff16815260200191505060405180910390f35b348015610ed357600080fd5b50610f8a60048036036020811015610eea57600080fd5b8101908080359060200190640100000000811115610f0757600080fd5b820183602082011115610f1957600080fd5b80359060200191846020830284011164010000000083111715610f3b57600080fd5b919080806020026020016040519081016040528093929190818152602001838360200280828437600081840152601f19601f820116905080830192505050505050509192919290505050612ac9565b005b348015610f9857600080fd5b50610fa1612c69565b005b348015610faf57600080fd5b50610ffc60048036036040811015610fc657600080fd5b81019080803573ffffffffffffffffffffffffffffffffffffffff16906020019092919080359060200190929190505050612e8d565b6040518080602001828103825283818151815260200191508051906020019080838360005b8381101561103c578082015181840152602081019050611021565b50505050905090810190601f1680156110695780820380516001836020036101000a031916815260200191505b509250505060405180910390f35b34801561108357600080fd5b506110b06004803603602081101561109a57600080fd5b8101908080359060200190929190505050612f86565b005b3480156110be57600080fd5b50611101600480360360208110156110d557600080fd5b81019080803573ffffffffffffffffffffffffffffffffffffffff16906020019092919050505061314e565b6040518080602001828103825283818151815260200191508051906020019080838360005b83811015611141578082015181840152602081019050611126565b50505050905090810190601f16801561116e5780820380516001836020036101000a031916815260200191505b509250505060405180910390f35b34801561118857600080fd5b506111cb6004803603602081101561119f57600080fd5b81019080803573ffffffffffffffffffffffffffffffffffffffff169060200190929190505050613232565b6040518080602001828103825283818151815260200191508051906020019080838360005b8381101561120b5780820151818401526020810190506111f0565b50505050905090810190601f1680156112385780820380516001836020036101000a031916815260200191505b509250505060405180910390f35b34801561125257600080fd5b506112956004803603602081101561126957600080fd5b81019080803573ffffffffffffffffffffffffffffffffffffffff169060200190929190505050613316565b604051808215151515815260200191505060405180910390f35b3480156112bb57600080fd5b506112c46133b3565b6040518082815260200191505060405180910390f35b3480156112e657600080fd5b506112ef6133ce565b005b3480156112fd57600080fd5b506113346004803603604081101561131457600080fd5b8101908080359060200190929190803590602001909291905050506135f4565b005b34801561134257600080fd5b5061134b61371d565b6040518082815260200191505060405180910390f35b34801561136d57600080fd5b506114de6004803603606081101561138457600080fd5b81019080803590602001906401000000008111156113a157600080fd5b8201836020820111156113b357600080fd5b803590602001918460018302840111640100000000831117156113d557600080fd5b91908080601f016020809104026020016040519081016040528093929190818152602001838380828437600081840152601f19601f8201169050808301925050505050505091929192908035906020019064010000000081111561143857600080fd5b82018360208201111561144a57600080fd5b8035906020019184600183028401116401000000008311171561146c57600080fd5b91908080601f016020809104026020016040519081016040528093929190818152602001838380828437600081840152601f19601f820116905080830192505050505050509192919290803573ffffffffffffffffffffffffffffffffffffffff16906020019092919050505061372a565b005b3480156114ec57600080fd5b506114f5613d0e565b6040518080602001828103825283818151815260200191508051906020019080838360005b8381101561153557808201518184015260208101905061151a565b50505050905090810190601f1680156115625780820380516001836020036101000a031916815260200191505b509250505060405180910390f35b60606003600060058481548110151561158557fe5b9060005260206000200160009054906101000a900473ffffffffffffffffffffffffffffffffffffffff1673ffffffffffffffffffffffffffffffffffffffff1673ffffffffffffffffffffffffffffffffffffffff1681526020019081526020016000206004016001018054600181600116156101000203166002900480601f0160208091040260200160405190810160405280929190818152602001828054600181600116156101000203166002900480156116845780601f1061165957610100808354040283529160200191611684565b820191906000526020600020905b81548152906001019060200180831161166757829003601f168201915b50505050509050919050565b600754600860009054906101000a900473ffffffffffffffffffffffffffffffffffffffff1673ffffffffffffffffffffffffffffffffffffffff166370a08231336040518263ffffffff167c0100000000000000000000000000000000000000000000000000000000028152600401808273ffffffffffffffffffffffffffffffffffffffff1673ffffffffffffffffffffffffffffffffffffffff16815260200191505060206040518083038186803b15801561174e57600080fd5b505afa158015611762573d6000803e3d6000fd5b505050506040513d602081101561177857600080fd5b810190808051906020019092919050505011151561179557600080fd5b600360003373ffffffffffffffffffffffffffffffffffffffff1673ffffffffffffffffffffffffffffffffffffffff16815260200190815260200160002060070160009054906101000a900460ff1615156117f057600080fd5b80604051602001808273ffffffffffffffffffffffffffffffffffffffff1673ffffffffffffffffffffffffffffffffffffffff166c010000000000000000000000000281526014019150506040516020818303038152906040528051906020012033604051602001808273ffffffffffffffffffffffffffffffffffffffff1673ffffffffffffffffffffffffffffffffffffffff166c0100000000000000000000000002815260140191505060405160208183030381529060405280519060200120141515156118c157600080fd5b60001515600360003373ffffffffffffffffffffffffffffffffffffffff1673ffffffffffffffffffffffffffffffffffffffff16815260200190815260200160002060090160008373ffffffffffffffffffffffffffffffffffffffff1673ffffffffffffffffffffffffffffffffffffffff1681526020019081526020016000206000600360008573ffffffffffffffffffffffffffffffffffffffff1673ffffffffffffffffffffffffffffffffffffffff16815260200190815260200160002060000160049054906101000a900461ffff1661ffff16815260200190815260200160002060009054906101000a900460ff1615151415156119c557600080fd5b6001600360003373ffffffffffffffffffffffffffffffffffffffff1673ffffffffffffffffffffffffffffffffffffffff16815260200190815260200160002060090160008373ffffffffffffffffffffffffffffffffffffffff1673ffffffffffffffffffffffffffffffffffffffff1681526020019081526020016000206000600360008573ffffffffffffffffffffffffffffffffffffffff1673ffffffffffffffffffffffffffffffffffffffff16815260200190815260200160002060000160049054906101000a900461ffff1661ffff16815260200190815260200160002060006101000a81548160ff0219169083151502179055506001600360008373ffffffffffffffffffffffffffffffffffffffff1673ffffffffffffffffffffffffffffffffffffffff16815260200190815260200160002060000160008282829054906101000a900461ffff160192506101000a81548161ffff021916908361ffff1602179055506001600360003373ffffffffffffffffffffffffffffffffffffffff1673ffffffffffffffffffffffffffffffffffffffff16815260200190815260200160002060000160028282829054906101000a900461ffff160192506101000a81548161ffff021916908361ffff16021790555060016000808282829054906101000a900461ffff160192506101000a81548161ffff021916908361ffff16021790555050565b6000600360008373ffffffffffffffffffffffffffffffffffffffff1673ffffffffffffffffffffffffffffffffffffffff16815260200190815260200160002060000160049054906101000a900461ffff1661ffff169050919050565b600060036000600684815481101515611c4a57fe5b9060005260206000200160009054906101000a900473ffffffffffffffffffffffffffffffffffffffff1673ffffffffffffffffffffffffffffffffffffffff1673ffffffffffffffffffffffffffffffffffffffff16815260200190815260200160002060000160029054906101000a900461ffff1661ffff169050919050565b606060036000600584815481101515611ce157fe5b9060005260206000200160009054906101000a900473ffffffffffffffffffffffffffffffffffffffff1673ffffffffffffffffffffffffffffffffffffffff1673ffffffffffffffffffffffffffffffffffffffff1681526020019081526020016000206004016000018054600181600116156101000203166002900480601f016020809104026020016040519081016040528092919081815260200182805460018160011615610100020316600290048015611de05780601f10611db557610100808354040283529160200191611de0565b820191906000526020600020905b815481529060010190602001808311611dc357829003601f168201915b50505050509050919050565b6000600682815481101515611dfd57fe5b9060005260206000200160009054906101000a900473ffffffffffffffffffffffffffffffffffffffff169050919050565b6000600360008373ffffffffffffffffffffffffffffffffffffffff1673ffffffffffffffffffffffffffffffffffffffff16815260200190815260200160002060000160009054906101000a900461ffff1661ffff169050919050565b606060018054600181600116156101000203166002900480601f016020809104026020016040519081016040528092919081815260200182805460018160011615610100020316600290048015611f255780601f10611efa57610100808354040283529160200191611f25565b820191906000526020600020905b815481529060010190602001808311611f0857829003601f168201915b5050505050905090565b6060600360008373ffffffffffffffffffffffffffffffffffffffff1673ffffffffffffffffffffffffffffffffffffffff1681526020019081526020016000206002018054600181600116156101000203166002900480601f0160208091040260200160405190810160405280929190818152602001828054600181600116156101000203166002900480156120075780601f10611fdc57610100808354040283529160200191612007565b820191906000526020600020905b815481529060010190602001808311611fea57829003601f168201915b50505050509050919050565b6000817effffffffffffffffffffffffffffffffffffffffffffffffffffffffffffff19168284167effffffffffffffffffffffffffffffffffffffffffffffffffffffffffffff191614905092915050565b60058181548110151561207557fe5b906000526020600020016000915054906101000a900473ffffffffffffffffffffffffffffffffffffffff1681565b6000600360008373ffffffffffffffffffffffffffffffffffffffff1673ffffffffffffffffffffffffffffffffffffffff16815260200190815260200160002060000160009054906101000a900461ffff1661ffff169050919050565b600360003373ffffffffffffffffffffffffffffffffffffffff1673ffffffffffffffffffffffffffffffffffffffff16815260200190815260200160002060070160009054906101000a900460ff1615151561215e57600080fd5b6019835110151561216e57600080fd5b6014825110151561217e57600080fd5b6004836040518082805190602001908083835b6020831015156121b65780518252602082019150602081019050602083039250612191565b6001836020036101000a038019825116818451168082178552505050505050905001915050908152602001604051809103902060009054906101000a900460ff1615151561220357600080fd5b82600360003373ffffffffffffffffffffffffffffffffffffffff1673ffffffffffffffffffffffffffffffffffffffff1681526020019081526020016000206001019080519060200190612259929190613f68565b5081600360003373ffffffffffffffffffffffffffffffffffffffff1673ffffffffffffffffffffffffffffffffffffffff16815260200190815260200160002060020190805190602001906122b0929190613f68565b5080600360003373ffffffffffffffffffffffffffffffffffffffff1673ffffffffffffffffffffffffffffffffffffffff1681526020019081526020016000206003019080519060200190612307929190613f68565b5060016004846040518082805190602001908083835b602083101515612342578051825260208201915060208101905060208303925061231d565b6001836020036101000a038019825116818451168082178552505050505050905001915050908152602001604051809103902060006101000a81548160ff0219169083151502179055506001600360003373ffffffffffffffffffffffffffffffffffffffff1673ffffffffffffffffffffffffffffffffffffffff16815260200190815260200160002060070160006101000a81548160ff02191690831515021790555060063390806001815401808255809150509060018203906000526020600020016000909192909190916101000a81548173ffffffffffffffffffffffffffffffffffffffff021916908373ffffffffffffffffffffffffffffffffffffffff16021790555050600860009054906101000a900473ffffffffffffffffffffffffffffffffffffffff1673ffffffffffffffffffffffffffffffffffffffff1663a6f2ae3a346040518263ffffffff167c01000000000000000000000000000000000000000000000000000000000281526004016000604051808303818588803b1580156124d357600080fd5b505af11580156124e7573d6000803e3d6000fd5b5050505050600860009054906101000a900473ffffffffffffffffffffffffffffffffffffffff1673ffffffffffffffffffffffffffffffffffffffff1663a9059cbb336107d034026040518363ffffffff167c0100000000000000000000000000000000000000000000000000000000028152600401808373ffffffffffffffffffffffffffffffffffffffff1673ffffffffffffffffffffffffffffffffffffffff16815260200182815260200192505050600060405180830381600087803b1580156125b557600080fd5b505af11580156125c9573d6000803e3d6000fd5b50505050505050565b6000600680549050905090565b6000600a544303905090565b6060600360008473ffffffffffffffffffffffffffffffffffffffff1673ffffffffffffffffffffffffffffffffffffffff16815260200190815260200160002060080160008381526020019081526020016000206001018054600181600116156101000203166002900480601f0160208091040260200160405190810160405280929190818152602001828054600181600116156101000203166002900480156126d75780601f106126ac576101008083540402835291602001916126d7565b820191906000526020600020905b8154815290600101906020018083116126ba57829003601f168201915b5050505050905092915050565b6000600360003373ffffffffffffffffffffffffffffffffffffffff1673ffffffffffffffffffffffffffffffffffffffff16815260200190815260200160002060090160008373ffffffffffffffffffffffffffffffffffffffff1673ffffffffffffffffffffffffffffffffffffffff1681526020019081526020016000206000600360008573ffffffffffffffffffffffffffffffffffffffff1673ffffffffffffffffffffffffffffffffffffffff16815260200190815260200160002060000160049054906101000a900461ffff1661ffff16815260200190815260200160002060009054906101000a900460ff169050919050565b6060600360008373ffffffffffffffffffffffffffffffffffffffff1673ffffffffffffffffffffffffffffffffffffffff1681526020019081526020016000206004016000018054600181600116156101000203166002900480601f0160208091040260200160405190810160405280929190818152602001828054600181600116156101000203166002900480156128ba5780601f1061288f576101008083540402835291602001916128ba565b820191906000526020600020905b81548152906001019060200180831161289d57829003601f168201915b50505050509050919050565b6006818154811015156128d557fe5b906000526020600020016000915054906101000a900473ffffffffffffffffffffffffffffffffffffffff1681565b60008060029054906101000a900461ffff1661ffff16905090565b60006004826040518082805190602001908083835b6020831015156129595780518252602082019150602081019050602083039250612934565b6001836020036101000a038019825116818451168082178552505050505050905001915050908152602001604051809103902060009054906101000a900460ff169050919050565b6000600360006005848154811015156129b657fe5b9060005260206000200160009054906101000a900473ffffffffffffffffffffffffffffffffffffffff1673ffffffffffffffffffffffffffffffffffffffff1673ffffffffffffffffffffffffffffffffffffffff16815260200190815260200160002060040160020160009054906101000a900473ffffffffffffffffffffffffffffffffffffffff169050919050565b6000600360003373ffffffffffffffffffffffffffffffffffffffff1673ffffffffffffffffffffffffffffffffffffffff16815260200190815260200160002060070160009054906101000a900460ff16905090565b60008060049054906101000a900473ffffffffffffffffffffffffffffffffffffffff16905090565b600754600860009054906101000a900473ffffffffffffffffffffffffffffffffffffffff1673ffffffffffffffffffffffffffffffffffffffff166370a08231336040518263ffffffff167c0100000000000000000000000000000000000000000000000000000000028152600401808273ffffffffffffffffffffffffffffffffffffffff1673ffffffffffffffffffffffffffffffffffffffff16815260200191505060206040518083038186803b158015612b8757600080fd5b505afa158015612b9b573d6000803e3d6000fd5b505050506040513d6020811015612bb157600080fd5b8101908080519060200190929190505050111515612bce57600080fd5b600360003373ffffffffffffffffffffffffffffffffffffffff1673ffffffffffffffffffffffffffffffffffffffff16815260200190815260200160002060070160009054906101000a900460ff161515612c2957600080fd5b60008090505b8151811015612c6557612c588282815181101515612c4957fe5b90602001906020020151612f86565b8080600101915050612c2f565b5050565b6000612c736125df565b90506117708110151515612c8657600080fd5b611b5861177082811515612c9657fe5b06101515612ca357600080fd5b612cab613db0565b600860009054906101000a900473ffffffffffffffffffffffffffffffffffffffff1673ffffffffffffffffffffffffffffffffffffffff1663be040fb06040518163ffffffff167c0100000000000000000000000000000000000000000000000000000000028152600401600060405180830381600087803b158015612d3157600080fd5b505af1158015612d45573d6000803e3d6000fd5b50505050612d51613fe8565b60008090505b600580549050811015612e71578160036000600584815481101515612d7857fe5b9060005260206000200160009054906101000a900473ffffffffffffffffffffffffffffffffffffffff1673ffffffffffffffffffffffffffffffffffffffff1673ffffffffffffffffffffffffffffffffffffffff1681526020019081526020016000206004016000820151816000019080519060200190612dfc929190614020565b506020820151816001019080519060200190612e19929190614020565b5060408201518160020160006101000a81548173ffffffffffffffffffffffffffffffffffffffff021916908373ffffffffffffffffffffffffffffffffffffffff1602179055509050508080600101915050612d57565b506000600581612e8191906140a0565b5043600a819055505050565b6060600360008473ffffffffffffffffffffffffffffffffffffffff1673ffffffffffffffffffffffffffffffffffffffff16815260200190815260200160002060080160008381526020019081526020016000206000018054600181600116156101000203166002900480601f016020809104026020016040519081016040528092919081815260200182805460018160011615610100020316600290048015612f795780601f10612f4e57610100808354040283529160200191612f79565b820191906000526020600020905b815481529060010190602001808311612f5c57829003601f168201915b5050505050905092915050565b600754600860009054906101000a900473ffffffffffffffffffffffffffffffffffffffff1673ffffffffffffffffffffffffffffffffffffffff166370a08231336040518263ffffffff167c0100000000000000000000000000000000000000000000000000000000028152600401808273ffffffffffffffffffffffffffffffffffffffff1673ffffffffffffffffffffffffffffffffffffffff16815260200191505060206040518083038186803b15801561304457600080fd5b505afa158015613058573d6000803e3d6000fd5b505050506040513d602081101561306e57600080fd5b810190808051906020019092919050505011151561308b57600080fd5b600360003373ffffffffffffffffffffffffffffffffffffffff1673ffffffffffffffffffffffffffffffffffffffff16815260200190815260200160002060070160009054906101000a900460ff1615156130e657600080fd5b600081101515156130f657600080fd5b6005805490508110151561310957600080fd5b61314b60058281548110151561311b57fe5b9060005260206000200160009054906101000a900473ffffffffffffffffffffffffffffffffffffffff16611690565b50565b6060600360008373ffffffffffffffffffffffffffffffffffffffff1673ffffffffffffffffffffffffffffffffffffffff1681526020019081526020016000206003018054600181600116156101000203166002900480601f0160208091040260200160405190810160405280929190818152602001828054600181600116156101000203166002900480156132265780601f106131fb57610100808354040283529160200191613226565b820191906000526020600020905b81548152906001019060200180831161320957829003601f168201915b50505050509050919050565b6060600360008373ffffffffffffffffffffffffffffffffffffffff1673ffffffffffffffffffffffffffffffffffffffff1681526020019081526020016000206001018054600181600116156101000203166002900480601f01602080910402602001604051908101604052809291908181526020018280546001816001161561010002031660029004801561330a5780601f106132df5761010080835404028352916020019161330a565b820191906000526020600020905b8154815290600101906020018083116132ed57829003601f168201915b50505050509050919050565b60008073ffffffffffffffffffffffffffffffffffffffff16600360003373ffffffffffffffffffffffffffffffffffffffff1673ffffffffffffffffffffffffffffffffffffffff16815260200190815260200160002060040160020160009054906101000a900473ffffffffffffffffffffffffffffffffffffffff1673ffffffffffffffffffffffffffffffffffffffff16149050919050565b60008060009054906101000a900461ffff1661ffff16905090565b60001515600c60009054906101000a900460ff1615151415156133f057600080fd5b6001600c60006101000a81548160ff021916908315150217905550613413613db0565b600860009054906101000a900473ffffffffffffffffffffffffffffffffffffffff1673ffffffffffffffffffffffffffffffffffffffff1663be040fb06040518163ffffffff167c0100000000000000000000000000000000000000000000000000000000028152600401600060405180830381600087803b15801561349957600080fd5b505af11580156134ad573d6000803e3d6000fd5b505050506134b9613fe8565b60008090505b6005805490508110156135d95781600360006005848154811015156134e057fe5b9060005260206000200160009054906101000a900473ffffffffffffffffffffffffffffffffffffffff1673ffffffffffffffffffffffffffffffffffffffff1673ffffffffffffffffffffffffffffffffffffffff1681526020019081526020016000206004016000820151816000019080519060200190613564929190614020565b506020820151816001019080519060200190613581929190614020565b5060408201518160020160006101000a81548173ffffffffffffffffffffffffffffffffffffffff021916908373ffffffffffffffffffffffffffffffffffffffff16021790555090505080806001019150506134bf565b5060006005816135e991906140a0565b5043600a8190555050565b6000811015151561360457600080fd5b6000821015151561361457600080fd5b600082600102905060008090505b602060ff16811015613717576000828260208110151561363e57fe5b1a7f01000000000000000000000000000000000000000000000000000000000000000290506000817f0100000000000000000000000000000000000000000000000000000000000000900460ff161415156137095760008090505b60088110156137075760008160020a90506000817f01000000000000000000000000000000000000000000000000000000000000000290506136db8482612013565b156136f8576136f761010088028487601f036008020101612f86565b5b50508080600101915050613699565b505b508080600101915050613622565b50505050565b6000600580549050905090565b600754600860009054906101000a900473ffffffffffffffffffffffffffffffffffffffff1673ffffffffffffffffffffffffffffffffffffffff166370a08231336040518263ffffffff167c0100000000000000000000000000000000000000000000000000000000028152600401808273ffffffffffffffffffffffffffffffffffffffff1673ffffffffffffffffffffffffffffffffffffffff16815260200191505060206040518083038186803b1580156137e857600080fd5b505afa1580156137fc573d6000803e3d6000fd5b505050506040513d602081101561381257600080fd5b810190808051906020019092919050505011151561382f57600080fd5b600360003373ffffffffffffffffffffffffffffffffffffffff1673ffffffffffffffffffffffffffffffffffffffff16815260200190815260200160002060070160009054906101000a900460ff16151561388a57600080fd5b602e835114151561389a57600080fd5b601482511015156138aa57600080fd5b600073ffffffffffffffffffffffffffffffffffffffff16600360003373ffffffffffffffffffffffffffffffffffffffff1673ffffffffffffffffffffffffffffffffffffffff16815260200190815260200160002060040160020160009054906101000a900473ffffffffffffffffffffffffffffffffffffffff1673ffffffffffffffffffffffffffffffffffffffff1614151561394a57600080fd5b613952613fe8565b83816000018190525081816040019073ffffffffffffffffffffffffffffffffffffffff16908173ffffffffffffffffffffffffffffffffffffffff168152505082816020018190525080600360003373ffffffffffffffffffffffffffffffffffffffff1673ffffffffffffffffffffffffffffffffffffffff16815260200190815260200160002060040160008201518160000190805190602001906139fb929190614020565b506020820151816001019080519060200190613a18929190614020565b5060408201518160020160006101000a81548173ffffffffffffffffffffffffffffffffffffffff021916908373ffffffffffffffffffffffffffffffffffffffff16021790555090505080600360003373ffffffffffffffffffffffffffffffffffffffff1673ffffffffffffffffffffffffffffffffffffffff1681526020019081526020016000206008016000600360003373ffffffffffffffffffffffffffffffffffffffff1673ffffffffffffffffffffffffffffffffffffffff16815260200190815260200160002060000160049054906101000a900461ffff1661ffff1681526020019081526020016000206000820151816000019080519060200190613b27929190614020565b506020820151816001019080519060200190613b44929190614020565b5060408201518160020160006101000a81548173ffffffffffffffffffffffffffffffffffffffff021916908373ffffffffffffffffffffffffffffffffffffffff1602179055509050506001600060028282829054906101000a900461ffff160192506101000a81548161ffff021916908361ffff1602179055506001600360003373ffffffffffffffffffffffffffffffffffffffff1673ffffffffffffffffffffffffffffffffffffffff16815260200190815260200160002060000160048282829054906101000a900461ffff160192506101000a81548161ffff021916908361ffff1602179055506001600360003373ffffffffffffffffffffffffffffffffffffffff1673ffffffffffffffffffffffffffffffffffffffff16815260200190815260200160002060000160028282829054906101000a900461ffff160192506101000a81548161ffff021916908361ffff16021790555060053390806001815401808255809150509060018203906000526020600020016000909192909190916101000a81548173ffffffffffffffffffffffffffffffffffffffff021916908373ffffffffffffffffffffffffffffffffffffffff1602179055505050505050565b606060028054600181600116156101000203166002900480601f016020809104026020016040519081016040528092919081815260200182805460018160011615610100020316600290048015613da65780601f10613d7b57610100808354040283529160200191613da6565b820191906000526020600020905b815481529060010190602001808311613d8957829003601f168201915b5050505050905090565b60008060009054906101000a900461ffff1661ffff16434260405160200180828152602001915050604051602081830303815290604052805190602001206001900401811515613dfc57fe5b06905060008090506000809050600080905060008090505b60058054905081108015613e26575081155b15613eda5760036000600583815481101515613e3e57fe5b9060005260206000200160009054906101000a900473ffffffffffffffffffffffffffffffffffffffff1673ffffffffffffffffffffffffffffffffffffffff1673ffffffffffffffffffffffffffffffffffffffff16815260200190815260200160002060000160009054906101000a900461ffff1661ffff168401935084841115613ecd57809250600191505b8080600101915050613e14565b50613ee482611ccc565b60019080519060200190613ef9929190613f68565b50613f03826129a1565b600060046101000a81548173ffffffffffffffffffffffffffffffffffffffff021916908373ffffffffffffffffffffffffffffffffffffffff160217905550613f4c82611570565b60029080519060200190613f61929190613f68565b5050505050565b828054600181600116156101000203166002900490600052602060002090601f016020900481019282601f10613fa957805160ff1916838001178555613fd7565b82800160010185558215613fd7579182015b82811115613fd6578251825591602001919060010190613fbb565b5b509050613fe491906140cc565b5090565b6060604051908101604052806060815260200160608152602001600073ffffffffffffffffffffffffffffffffffffffff1681525090565b828054600181600116156101000203166002900490600052602060002090601f016020900481019282601f1061406157805160ff191683800117855561408f565b8280016001018555821561408f579182015b8281111561408e578251825591602001919060010190614073565b5b50905061409c91906140cc565b5090565b8154818355818111156140c7578183600052602060002091820191016140c691906140cc565b5b505050565b6140ee91905b808211156140ea5760008160009055506001016140d2565b5090565b9056fea165627a7a72305820643fbb4a597b3a8d9779c640f81d989f4fc35ad8aeabcc4b9a2b75264c288d1b0029",
  "source": "pragma solidity ^0.5.0;\n// We have to specify what version of compiler this code will compile with\n\nimport \"../contracts/Token.sol\";\n\ncontract Hashes{\n\n  uint16 totalVotes;\n  uint16 totalPhotos;\n  address winnerAddress;\n  string winnerHash;\n  string winnerCaption;\n\n  struct hashes{\n         string hash;\n         string caption;\n         address addr;\n  }\n\n  struct properties{\n      uint16 votesReceived;\n      uint16 actionsDone;\n      uint16 photosPosted;\n      string name;\n      string profileName;\n      string profileImage;\n      hashes registry;\n      bool participated;\n      mapping(uint256 => hashes) allPosts;\n      mapping(address => mapping (uint256 => bool)) votedFor;\n  }\n\n  mapping(address => properties) address_properties;\n  mapping(string => bool) nameTaken;\n  address[] public participants;\n  address[] public all_participants;\n  uint minTokens;\n  MyToken token;\n  address payable token_address;\n  uint pastBlockNumber;\n  uint rewardScalar;\n  bool firstReset = false;\n\n\n\n  constructor(uint _minTokens, address payable _myToken) public{\n    minTokens = _minTokens * 1000;\n    token = MyToken(_myToken);\n    token_address = _myToken;\n    token.setAddress(address(this));\n    pastBlockNumber = block.number;\n\n  }\n\n  function addHash(string memory _ipfsHash, string memory _caption, address _ipfsAddress) public enoughCoins validAccount{\n     require (bytes(_ipfsHash).length == 46);\n     require (bytes(_caption).length < 20);\n     require (address_properties[msg.sender].registry.addr == address(0));\n     hashes memory myHash;\n     myHash.hash = _ipfsHash;\n     myHash.addr = _ipfsAddress;\n     myHash.caption = _caption;\n     address_properties[msg.sender].registry = myHash;\n     address_properties[msg.sender].allPosts[address_properties[msg.sender].photosPosted] = myHash;\n     totalPhotos += 1;\n     address_properties[msg.sender].photosPosted += 1;\n     address_properties[msg.sender].actionsDone += 1;\n     participants.push(msg.sender);\n  }\n\n  modifier enoughCoins() {\n\t\tif (!(token.balanceOf(msg.sender) > minTokens)) revert();\n\t\t_;\n\t}\n\n  modifier validAccount() {\n\t\tif (!(address_properties[msg.sender].participated)) revert();\n\t\t_;\n\t}\n\n  function voteForCandidate(address candidate) public enoughCoins validAccount{\n  \trequire (keccak256(abi.encodePacked(msg.sender)) != keccak256(abi.encodePacked(candidate)));\n    require (address_properties[msg.sender].votedFor[candidate][address_properties[candidate].photosPosted] == false);\n    address_properties[msg.sender].votedFor[candidate][address_properties[candidate].photosPosted] = true;\n    address_properties[candidate].votesReceived += 1;\n    address_properties[msg.sender].actionsDone += 1;\n  \ttotalVotes += 1;\n\n  }\n\n  function registerAccount(string memory _name, string memory _profileName, string memory _ipfsHash) public payable{\n     require (!address_properties[msg.sender].participated);\n     require (bytes(_name).length < 25);\n     require (bytes(_profileName).length < 20);\n     require (!nameTaken[_name]);\n     //require (bytes(_ipfsHash).length == 46);\n     address_properties[msg.sender].name = _name;\n     address_properties[msg.sender].profileName = _profileName;\n     address_properties[msg.sender].profileImage = _ipfsHash;\n     nameTaken[_name] = true;\n     address_properties[msg.sender].participated = true;\n     all_participants.push(msg.sender);\n     token.buy.value(msg.value)();\n     token.transfer(msg.sender, msg.value*2000);\n\n  }\n\n  function accountRegistered() public view returns (bool){\n    return (address_properties[msg.sender].participated);\n  }\n\n  function voteByIndex(uint candidate_index) public enoughCoins validAccount{\n    require(candidate_index >= 0);\n    require(candidate_index < participants.length);\n  \tvoteForCandidate(participants[candidate_index]);\n  }\n\n  function voteForListByIndex(uint[] memory candidates_indexes) public enoughCoins validAccount{\n    for (uint i = 0; i < candidates_indexes.length; i++){\n        voteByIndex(candidates_indexes[i]);\n    }\n  }\n\n  function bitSet(byte b, byte a) public returns (bool){\n    return (b & a == a);\n  }\n\n  function voteForListByBitString(uint n, uint shift) public{\n    require(shift >= 0);\n    require(n >= 0);\n\n    bytes32 byteArray = bytes32(n);\n    for (uint i = 0; i < byteArray.length; i++){\n        byte temp = byteArray[i];\n        if (uint8(temp) != 0){\n            for (uint j = 0; j < 8; j++){\n              uint8 num = uint8(2 ** j);\n              byte value = byte(num);\n              if (bitSet(temp, value)){\n                voteByIndex(8*(31 - i)+j+shift*256);\n              }\n            }\n        }\n    }\n  }\n\n\n  function getWinner() internal {\n    uint random = uint((uint(keccak256(abi.encodePacked((block.timestamp)))) + block.number) % totalVotes);\n    uint num = 0;\n    uint winnerIndex = 0;\n    bool done = false;\n\n    for (uint i = 0; i < participants.length && !done; i++){\n      num += (address_properties[participants[i]].votesReceived);\n      if (num > random){\n        winnerIndex = i;\n        done = true;\n      }\n    }\n    winnerHash = getList(winnerIndex);\n    winnerAddress = getAddress(winnerIndex);\n    winnerCaption = getCaption(winnerIndex);\n\n  }\n\n  function returnWinnerHash() public view returns (string memory){\n  \treturn winnerHash;\n  }\n\n  function returnWinnerAddress() public view returns (address){\n  \treturn winnerAddress;\n  }\n\n  function returnWinnerCaption() public view returns (string memory){\n  \treturn winnerCaption;\n  }\n\n\n  function getList(uint x) public view returns (string memory){\n  \treturn address_properties[participants[x]].registry.hash;\n  }\n\n  function viewPhotos(address _owner, uint index) public view returns (string memory){\n  \treturn address_properties[_owner].allPosts[index].hash;\n  }\n\n  function viewCaption(address _owner, uint index) public view returns (string memory){\n    return address_properties[_owner].allPosts[index].caption;\n  }\n\n  function getListByAddress(address x) public view returns (string memory){\n  \treturn address_properties[x].registry.hash;\n  }\n\n  function getCaption(uint x) public view returns (string memory){\n    return address_properties[participants[x]].registry.caption;\n  }\n\n  function getAddress(uint x) public view returns (address){\n  \treturn address_properties[participants[x]].registry.addr;\n  }\n\n  function returnTotalVotes() public view returns (uint){\n    return totalVotes;\n  }\n\n  function returnTotalPhotos() public view returns (uint){\n    return totalPhotos;\n  }\n\n  function totalVotesFor(address x) public view returns(uint){\n  \treturn address_properties[x].votesReceived;\n  }\n\n  function listLength() public view returns (uint){\n  \treturn participants.length;\n  }\n\n  function numParticipants() public view returns (uint){\n    return all_participants.length;\n  }\n\n  function likedPhoto(address x) public view returns (bool){\n    return address_properties[msg.sender].votedFor[x][address_properties[x].photosPosted];\n  }\n\n  function getParticipant(uint x) public view returns (address){\n    return all_participants[x];\n  }\n\n  function numActions(uint x) public view returns (uint){\n    return address_properties[all_participants[x]].actionsDone;\n  }\n\n  function totalVotesReceived(address x) public view returns(uint){\n    return address_properties[x].votesReceived;\n  }\n\n  function totalPhotosPosted(address x) public view returns(uint){\n    return address_properties[x].photosPosted;\n  }\n\n  function getUserName (address x) public view returns(string memory){\n    return address_properties[x].name;\n  }\n  function getProfileName (address x) public view returns(string memory){\n    return address_properties[x].profileName;\n  }\n  function getProfileImage (address x) public view returns(string memory){\n    return address_properties[x].profileImage;\n  }\n  function isNameTaken (string memory _name) public view returns(bool){\n    return (nameTaken[_name]);\n  }\n  function alreadyPosted (address x) public view returns(bool){\n    return (address_properties[msg.sender].registry.addr == address(0));\n  }\n\n  function newRound() public{\n    uint timeSince = getTime();\n\n    require(timeSince >= 6000);\n    require(timeSince%6000 < 7000);\n\n\n    getWinner();\n    token.redeem();\n    hashes memory myHash;\n    for (uint i = 0; i < participants.length; i++){\n      address_properties[participants[i]].registry = myHash;\n    }\n    participants.length = 0;\n    pastBlockNumber = block.number;\n  }\n\n  function overRideReset() public {\n\n    require (firstReset == false);\n    firstReset = true;\n    getWinner();\n    token.redeem();\n    hashes memory myHash;\n    for (uint i = 0; i < participants.length; i++){\n      address_properties[participants[i]].registry = myHash;\n    }\n    participants.length = 0;\n    pastBlockNumber = block.number;\n\n  }\n\n  function getTime() public view returns(uint){\n    return (block.number - pastBlockNumber);\n  }\n\n\n}\n",
  "sourcePath": "/Users/ryachen/Desktop/Quest/eth-chain/app/contracts/Hashes.sol",
  "compiler": {
    "name": "solc",
    "version": "0.5.0+commit.1d4f565a.Emscripten.clang"
  },
  "schemaVersion": "3.0.9",
  "updatedAt": "2019-05-21T01:30:23.886Z",
  "devdoc": {
    "methods": {}
  },
  "userdoc": {
    "methods": {}
  }
}