{
  "contractName": "Hashes",
  "abi": [
    {
      "constant": true,
      "inputs": [
        {
          "name": "",
          "type": "uint256"
        }
      ],
      "name": "participants",
      "outputs": [
        {
          "name": "",
          "type": "address"
        }
      ],
      "payable": false,
      "stateMutability": "view",
      "type": "function",
      "signature": "0x35c1d349"
    },
    {
      "constant": true,
      "inputs": [
        {
          "name": "",
          "type": "uint256"
        }
      ],
      "name": "all_participants",
      "outputs": [
        {
          "name": "",
          "type": "address"
        }
      ],
      "payable": false,
      "stateMutability": "view",
      "type": "function",
      "signature": "0x8eee5546"
    },
    {
      "inputs": [
        {
          "name": "_minTokens",
          "type": "uint256"
        },
        {
          "name": "_myToken",
          "type": "address"
        },
        {
          "name": "_myTrophy",
          "type": "address"
        }
      ],
      "payable": false,
      "stateMutability": "nonpayable",
      "type": "constructor",
      "signature": "constructor"
    },
    {
      "constant": false,
      "inputs": [
        {
          "name": "_ipfsHash",
          "type": "string"
        },
        {
          "name": "_caption",
          "type": "string"
        },
        {
          "name": "_ipfsAddress",
          "type": "address"
        }
      ],
      "name": "addHash",
      "outputs": [],
      "payable": false,
      "stateMutability": "nonpayable",
      "type": "function",
      "signature": "0xfbccabd7"
    },
    {
      "constant": false,
      "inputs": [
        {
          "name": "candidate",
          "type": "address"
        }
      ],
      "name": "voteForCandidate",
      "outputs": [],
      "payable": false,
      "stateMutability": "nonpayable",
      "type": "function",
      "signature": "0x163046eb"
    },
    {
      "constant": false,
      "inputs": [
        {
          "name": "_name",
          "type": "string"
        },
        {
          "name": "_profileName",
          "type": "string"
        },
        {
          "name": "_ipfsHash",
          "type": "string"
        }
      ],
      "name": "registerAccount",
      "outputs": [],
      "payable": true,
      "stateMutability": "payable",
      "type": "function",
      "signature": "0x412fac67"
    },
    {
      "constant": true,
      "inputs": [],
      "name": "accountRegistered",
      "outputs": [
        {
          "name": "",
          "type": "bool"
        }
      ],
      "payable": false,
      "stateMutability": "view",
      "type": "function",
      "signature": "0xb9d31981"
    },
    {
      "constant": false,
      "inputs": [
        {
          "name": "candidate_index",
          "type": "uint256"
        }
      ],
      "name": "voteByIndex",
      "outputs": [],
      "payable": false,
      "stateMutability": "nonpayable",
      "type": "function",
      "signature": "0xcc4709f0"
    },
    {
      "constant": false,
      "inputs": [
        {
          "name": "candidates_indexes",
          "type": "uint256[]"
        }
      ],
      "name": "voteForListByIndex",
      "outputs": [],
      "payable": false,
      "stateMutability": "nonpayable",
      "type": "function",
      "signature": "0xbc5d8787"
    },
    {
      "constant": false,
      "inputs": [
        {
          "name": "b",
          "type": "bytes1"
        },
        {
          "name": "a",
          "type": "bytes1"
        }
      ],
      "name": "bitSet",
      "outputs": [
        {
          "name": "",
          "type": "bool"
        }
      ],
      "payable": false,
      "stateMutability": "nonpayable",
      "type": "function",
      "signature": "0x342f3fde"
    },
    {
      "constant": false,
      "inputs": [
        {
          "name": "n",
          "type": "uint256"
        },
        {
          "name": "shift",
          "type": "uint256"
        }
      ],
      "name": "voteForListByBitString",
      "outputs": [],
      "payable": false,
      "stateMutability": "nonpayable",
      "type": "function",
      "signature": "0xf9d52abe"
    },
    {
      "constant": true,
      "inputs": [],
      "name": "returnWinnerHash",
      "outputs": [
        {
          "name": "",
          "type": "string"
        }
      ],
      "payable": false,
      "stateMutability": "view",
      "type": "function",
      "signature": "0x2f8f7cf1"
    },
    {
      "constant": true,
      "inputs": [],
      "name": "returnWinnerAddress",
      "outputs": [
        {
          "name": "",
          "type": "address"
        }
      ],
      "payable": false,
      "stateMutability": "view",
      "type": "function",
      "signature": "0xbb0bd6e5"
    },
    {
      "constant": true,
      "inputs": [
        {
          "name": "x",
          "type": "uint256"
        }
      ],
      "name": "getList",
      "outputs": [
        {
          "name": "",
          "type": "string"
        }
      ],
      "payable": false,
      "stateMutability": "view",
      "type": "function",
      "signature": "0x1ab5b383"
    },
    {
      "constant": true,
      "inputs": [
        {
          "name": "_owner",
          "type": "address"
        },
        {
          "name": "index",
          "type": "uint256"
        }
      ],
      "name": "viewPhotos",
      "outputs": [
        {
          "name": "",
          "type": "string"
        }
      ],
      "payable": false,
      "stateMutability": "view",
      "type": "function",
      "signature": "0xc7689b0d"
    },
    {
      "constant": true,
      "inputs": [
        {
          "name": "_owner",
          "type": "address"
        },
        {
          "name": "index",
          "type": "uint256"
        }
      ],
      "name": "viewCaption",
      "outputs": [
        {
          "name": "",
          "type": "string"
        }
      ],
      "payable": false,
      "stateMutability": "view",
      "type": "function",
      "signature": "0x79c52b73"
    },
    {
      "constant": true,
      "inputs": [
        {
          "name": "x",
          "type": "address"
        }
      ],
      "name": "getListByAddress",
      "outputs": [
        {
          "name": "",
          "type": "string"
        }
      ],
      "payable": false,
      "stateMutability": "view",
      "type": "function",
      "signature": "0x8516ff33"
    },
    {
      "constant": true,
      "inputs": [
        {
          "name": "x",
          "type": "uint256"
        }
      ],
      "name": "getCaption",
      "outputs": [
        {
          "name": "",
          "type": "string"
        }
      ],
      "payable": false,
      "stateMutability": "view",
      "type": "function",
      "signature": "0x0257e249"
    },
    {
      "constant": true,
      "inputs": [
        {
          "name": "x",
          "type": "uint256"
        }
      ],
      "name": "getAddress",
      "outputs": [
        {
          "name": "",
          "type": "address"
        }
      ],
      "payable": false,
      "stateMutability": "view",
      "type": "function",
      "signature": "0xb93f9b0a"
    },
    {
      "constant": true,
      "inputs": [],
      "name": "returnTotalVotes",
      "outputs": [
        {
          "name": "",
          "type": "uint256"
        }
      ],
      "payable": false,
      "stateMutability": "view",
      "type": "function",
      "signature": "0xe36fccc9"
    },
    {
      "constant": true,
      "inputs": [],
      "name": "returnTotalPhotos",
      "outputs": [
        {
          "name": "",
          "type": "uint256"
        }
      ],
      "payable": false,
      "stateMutability": "view",
      "type": "function",
      "signature": "0xa7eb9e2e"
    },
    {
      "constant": true,
      "inputs": [
        {
          "name": "x",
          "type": "address"
        }
      ],
      "name": "totalVotesFor",
      "outputs": [
        {
          "name": "",
          "type": "uint256"
        }
      ],
      "payable": false,
      "stateMutability": "view",
      "type": "function",
      "signature": "0x4041ef54"
    },
    {
      "constant": true,
      "inputs": [],
      "name": "listLength",
      "outputs": [
        {
          "name": "",
          "type": "uint256"
        }
      ],
      "payable": false,
      "stateMutability": "view",
      "type": "function",
      "signature": "0xfb6f049f"
    },
    {
      "constant": true,
      "inputs": [],
      "name": "numParticipants",
      "outputs": [
        {
          "name": "",
          "type": "uint256"
        }
      ],
      "payable": false,
      "stateMutability": "view",
      "type": "function",
      "signature": "0x4e76a846"
    },
    {
      "constant": true,
      "inputs": [
        {
          "name": "x",
          "type": "address"
        },
        {
          "name": "index",
          "type": "uint256"
        }
      ],
      "name": "likedPhoto",
      "outputs": [
        {
          "name": "",
          "type": "bool"
        }
      ],
      "payable": false,
      "stateMutability": "view",
      "type": "function",
      "signature": "0xa3ebaf10"
    },
    {
      "constant": true,
      "inputs": [
        {
          "name": "x",
          "type": "uint256"
        }
      ],
      "name": "getParticipant",
      "outputs": [
        {
          "name": "",
          "type": "address"
        }
      ],
      "payable": false,
      "stateMutability": "view",
      "type": "function",
      "signature": "0x1b9db2ef"
    },
    {
      "constant": true,
      "inputs": [
        {
          "name": "x",
          "type": "uint256"
        }
      ],
      "name": "numActions",
      "outputs": [
        {
          "name": "",
          "type": "uint256"
        }
      ],
      "payable": false,
      "stateMutability": "view",
      "type": "function",
      "signature": "0x186d45ac"
    },
    {
      "constant": true,
      "inputs": [
        {
          "name": "x",
          "type": "address"
        }
      ],
      "name": "totalVotesReceived",
      "outputs": [
        {
          "name": "",
          "type": "uint256"
        }
      ],
      "payable": false,
      "stateMutability": "view",
      "type": "function",
      "signature": "0x287e0c8e"
    },
    {
      "constant": true,
      "inputs": [
        {
          "name": "x",
          "type": "address"
        }
      ],
      "name": "totalPhotosPosted",
      "outputs": [
        {
          "name": "",
          "type": "uint256"
        }
      ],
      "payable": false,
      "stateMutability": "view",
      "type": "function",
      "signature": "0x18359009"
    },
    {
      "constant": true,
      "inputs": [
        {
          "name": "x",
          "type": "address"
        }
      ],
      "name": "totalTrophies",
      "outputs": [
        {
          "name": "",
          "type": "uint256"
        }
      ],
      "payable": false,
      "stateMutability": "view",
      "type": "function",
      "signature": "0x5090d71d"
    },
    {
      "constant": true,
      "inputs": [
        {
          "name": "x",
          "type": "address"
        }
      ],
      "name": "getUserName",
      "outputs": [
        {
          "name": "",
          "type": "string"
        }
      ],
      "payable": false,
      "stateMutability": "view",
      "type": "function",
      "signature": "0xd84f55ee"
    },
    {
      "constant": true,
      "inputs": [
        {
          "name": "x",
          "type": "address"
        }
      ],
      "name": "getProfielName",
      "outputs": [
        {
          "name": "",
          "type": "string"
        }
      ],
      "payable": false,
      "stateMutability": "view",
      "type": "function",
      "signature": "0x3e4f4482"
    },
    {
      "constant": true,
      "inputs": [
        {
          "name": "x",
          "type": "address"
        }
      ],
      "name": "getProfileImage",
      "outputs": [
        {
          "name": "",
          "type": "string"
        }
      ],
      "payable": false,
      "stateMutability": "view",
      "type": "function",
      "signature": "0xd2c8dd35"
    },
    {
      "constant": true,
      "inputs": [
        {
          "name": "_name",
          "type": "string"
        }
      ],
      "name": "isNameTaken",
      "outputs": [
        {
          "name": "",
          "type": "bool"
        }
      ],
      "payable": false,
      "stateMutability": "view",
      "type": "function",
      "signature": "0xb3da4e34"
    },
    {
      "constant": false,
      "inputs": [],
      "name": "newRound",
      "outputs": [],
      "payable": false,
      "stateMutability": "nonpayable",
      "type": "function",
      "signature": "0xc5b1d9aa"
    }
  ],
  "bytecode": "0x60806040523480156200001157600080fd5b5060405160608062004041833981018060405260608110156200003357600080fd5b810190808051906020019092919080519060200190929190805190602001909291905050508260068190555081600760006101000a81548173ffffffffffffffffffffffffffffffffffffffff021916908373ffffffffffffffffffffffffffffffffffffffff16021790555081600960006101000a81548173ffffffffffffffffffffffffffffffffffffffff021916908373ffffffffffffffffffffffffffffffffffffffff160217905550600760009054906101000a900473ffffffffffffffffffffffffffffffffffffffff1673ffffffffffffffffffffffffffffffffffffffff1663e30081a0306040518263ffffffff167c0100000000000000000000000000000000000000000000000000000000028152600401808273ffffffffffffffffffffffffffffffffffffffff1673ffffffffffffffffffffffffffffffffffffffff168152602001915050600060405180830381600087803b1580156200019f57600080fd5b505af1158015620001b4573d6000803e3d6000fd5b5050505080600860006101000a81548173ffffffffffffffffffffffffffffffffffffffff021916908373ffffffffffffffffffffffffffffffffffffffff160217905550600860009054906101000a900473ffffffffffffffffffffffffffffffffffffffff1673ffffffffffffffffffffffffffffffffffffffff1663e30081a0306040518263ffffffff167c0100000000000000000000000000000000000000000000000000000000028152600401808273ffffffffffffffffffffffffffffffffffffffff1673ffffffffffffffffffffffffffffffffffffffff168152602001915050600060405180830381600087803b158015620002b757600080fd5b505af1158015620002cc573d6000803e3d6000fd5b50505050505050613d5e80620002e36000396000f3fe6080604052600436106101ac576000357c0100000000000000000000000000000000000000000000000000000000900463ffffffff1680630257e249146101b1578063163046eb1461026557806318359009146102b6578063186d45ac1461031b5780631ab5b3831461036a5780631b9db2ef1461041e578063287e0c8e146104995780632f8f7cf1146104fe578063342f3fde1461058e57806335c1d3491461062f5780633e4f4482146106aa5780634041ef5414610774578063412fac67146107d95780634e76a846146109c25780635090d71d146109ed57806379c52b7314610a525780638516ff3314610b265780638eee554614610bf0578063a3ebaf1014610c6b578063a7eb9e2e14610cde578063b3da4e3414610d09578063b93f9b0a14610de9578063b9d3198114610e64578063bb0bd6e514610e93578063bc5d878714610eea578063c5b1d9aa14610faf578063c7689b0d14610fc6578063cc4709f01461109a578063d2c8dd35146110d5578063d84f55ee1461119f578063e36fccc914611269578063f9d52abe14611294578063fb6f049f146112d9578063fbccabd714611304575b600080fd5b3480156101bd57600080fd5b506101ea600480360360208110156101d457600080fd5b8101908080359060200190929190505050611483565b6040518080602001828103825283818151815260200191508051906020019080838360005b8381101561022a57808201518184015260208101905061020f565b50505050905090810190601f1680156102575780820380516001836020036101000a031916815260200191505b509250505060405180910390f35b34801561027157600080fd5b506102b46004803603602081101561028857600080fd5b81019080803573ffffffffffffffffffffffffffffffffffffffff1690602001909291905050506115a3565b005b3480156102c257600080fd5b50610305600480360360208110156102d957600080fd5b81019080803573ffffffffffffffffffffffffffffffffffffffff169060200190929190505050611aea565b6040518082815260200191505060405180910390f35b34801561032757600080fd5b506103546004803603602081101561033e57600080fd5b8101908080359060200190929190505050611b48565b6040518082815260200191505060405180910390f35b34801561037657600080fd5b506103a36004803603602081101561038d57600080fd5b8101908080359060200190929190505050611bdf565b6040518080602001828103825283818151815260200191508051906020019080838360005b838110156103e35780820151818401526020810190506103c8565b50505050905090810190601f1680156104105780820380516001836020036101000a031916815260200191505b509250505060405180910390f35b34801561042a57600080fd5b506104576004803603602081101561044157600080fd5b8101908080359060200190929190505050611cff565b604051808273ffffffffffffffffffffffffffffffffffffffff1673ffffffffffffffffffffffffffffffffffffffff16815260200191505060405180910390f35b3480156104a557600080fd5b506104e8600480360360208110156104bc57600080fd5b81019080803573ffffffffffffffffffffffffffffffffffffffff169060200190929190505050611d42565b6040518082815260200191505060405180910390f35b34801561050a57600080fd5b50610513611da0565b6040518080602001828103825283818151815260200191508051906020019080838360005b83811015610553578082015181840152602081019050610538565b50505050905090810190601f1680156105805780820380516001836020036101000a031916815260200191505b509250505060405180910390f35b34801561059a57600080fd5b50610615600480360360408110156105b157600080fd5b8101908080357effffffffffffffffffffffffffffffffffffffffffffffffffffffffffffff1916906020019092919080357effffffffffffffffffffffffffffffffffffffffffffffffffffffffffffff19169060200190929190505050611e42565b604051808215151515815260200191505060405180910390f35b34801561063b57600080fd5b506106686004803603602081101561065257600080fd5b8101908080359060200190929190505050611e95565b604051808273ffffffffffffffffffffffffffffffffffffffff1673ffffffffffffffffffffffffffffffffffffffff16815260200191505060405180910390f35b3480156106b657600080fd5b506106f9600480360360208110156106cd57600080fd5b81019080803573ffffffffffffffffffffffffffffffffffffffff169060200190929190505050611ed3565b6040518080602001828103825283818151815260200191508051906020019080838360005b8381101561073957808201518184015260208101905061071e565b50505050905090810190601f1680156107665780820380516001836020036101000a031916815260200191505b509250505060405180910390f35b34801561078057600080fd5b506107c36004803603602081101561079757600080fd5b81019080803573ffffffffffffffffffffffffffffffffffffffff169060200190929190505050611fb7565b6040518082815260200191505060405180910390f35b6109c0600480360360608110156107ef57600080fd5b810190808035906020019064010000000081111561080c57600080fd5b82018360208201111561081e57600080fd5b8035906020019184600183028401116401000000008311171561084057600080fd5b91908080601f016020809104026020016040519081016040528093929190818152602001838380828437600081840152601f19601f820116905080830192505050505050509192919290803590602001906401000000008111156108a357600080fd5b8201836020820111156108b557600080fd5b803590602001918460018302840111640100000000831117156108d757600080fd5b91908080601f016020809104026020016040519081016040528093929190818152602001838380828437600081840152601f19601f8201169050808301925050505050505091929192908035906020019064010000000081111561093a57600080fd5b82018360208201111561094c57600080fd5b8035906020019184600183028401116401000000008311171561096e57600080fd5b91908080601f016020809104026020016040519081016040528093929190818152602001838380828437600081840152601f19601f820116905080830192505050505050509192919290505050612015565b005b3480156109ce57600080fd5b506109d76124e5565b6040518082815260200191505060405180910390f35b3480156109f957600080fd5b50610a3c60048036036020811015610a1057600080fd5b81019080803573ffffffffffffffffffffffffffffffffffffffff1690602001909291905050506124f2565b6040518082815260200191505060405180910390f35b348015610a5e57600080fd5b50610aab60048036036040811015610a7557600080fd5b81019080803573ffffffffffffffffffffffffffffffffffffffff169060200190929190803590602001909291905050506125f1565b6040518080602001828103825283818151815260200191508051906020019080838360005b83811015610aeb578082015181840152602081019050610ad0565b50505050905090810190601f168015610b185780820380516001836020036101000a031916815260200191505b509250505060405180910390f35b348015610b3257600080fd5b50610b7560048036036020811015610b4957600080fd5b81019080803573ffffffffffffffffffffffffffffffffffffffff1690602001909291905050506126ea565b6040518080602001828103825283818151815260200191508051906020019080838360005b83811015610bb5578082015181840152602081019050610b9a565b50505050905090810190601f168015610be25780820380516001836020036101000a031916815260200191505b509250505060405180910390f35b348015610bfc57600080fd5b50610c2960048036036020811015610c1357600080fd5b81019080803590602001909291905050506127d1565b604051808273ffffffffffffffffffffffffffffffffffffffff1673ffffffffffffffffffffffffffffffffffffffff16815260200191505060405180910390f35b348015610c7757600080fd5b50610cc460048036036040811015610c8e57600080fd5b81019080803573ffffffffffffffffffffffffffffffffffffffff1690602001909291908035906020019092919050505061280f565b604051808215151515815260200191505060405180910390f35b348015610cea57600080fd5b50610cf361290b565b6040518082815260200191505060405180910390f35b348015610d1557600080fd5b50610dcf60048036036020811015610d2c57600080fd5b8101908080359060200190640100000000811115610d4957600080fd5b820183602082011115610d5b57600080fd5b80359060200191846001830284011164010000000083111715610d7d57600080fd5b91908080601f016020809104026020016040519081016040528093929190818152602001838380828437600081840152601f19601f820116905080830192505050505050509192919290505050612926565b604051808215151515815260200191505060405180910390f35b348015610df557600080fd5b50610e2260048036036020811015610e0c57600080fd5b81019080803590602001909291905050506129a8565b604051808273ffffffffffffffffffffffffffffffffffffffff1673ffffffffffffffffffffffffffffffffffffffff16815260200191505060405180910390f35b348015610e7057600080fd5b50610e79612a50565b604051808215151515815260200191505060405180910390f35b348015610e9f57600080fd5b50610ea8612aa7565b604051808273ffffffffffffffffffffffffffffffffffffffff1673ffffffffffffffffffffffffffffffffffffffff16815260200191505060405180910390f35b348015610ef657600080fd5b50610fad60048036036020811015610f0d57600080fd5b8101908080359060200190640100000000811115610f2a57600080fd5b820183602082011115610f3c57600080fd5b80359060200191846020830284011164010000000083111715610f5e57600080fd5b919080806020026020016040519081016040528093929190818152602001838360200280828437600081840152601f19601f820116905080830192505050505050509192919290505050612ad0565b005b348015610fbb57600080fd5b50610fc4612c70565b005b348015610fd257600080fd5b5061101f60048036036040811015610fe957600080fd5b81019080803573ffffffffffffffffffffffffffffffffffffffff16906020019092919080359060200190929190505050612e52565b6040518080602001828103825283818151815260200191508051906020019080838360005b8381101561105f578082015181840152602081019050611044565b50505050905090810190601f16801561108c5780820380516001836020036101000a031916815260200191505b509250505060405180910390f35b3480156110a657600080fd5b506110d3600480360360208110156110bd57600080fd5b8101908080359060200190929190505050612f4b565b005b3480156110e157600080fd5b50611124600480360360208110156110f857600080fd5b81019080803573ffffffffffffffffffffffffffffffffffffffff169060200190929190505050613113565b6040518080602001828103825283818151815260200191508051906020019080838360005b83811015611164578082015181840152602081019050611149565b50505050905090810190601f1680156111915780820380516001836020036101000a031916815260200191505b509250505060405180910390f35b3480156111ab57600080fd5b506111ee600480360360208110156111c257600080fd5b81019080803573ffffffffffffffffffffffffffffffffffffffff1690602001909291905050506131f7565b6040518080602001828103825283818151815260200191508051906020019080838360005b8381101561122e578082015181840152602081019050611213565b50505050905090810190601f16801561125b5780820380516001836020036101000a031916815260200191505b509250505060405180910390f35b34801561127557600080fd5b5061127e6132db565b6040518082815260200191505060405180910390f35b3480156112a057600080fd5b506112d7600480360360408110156112b757600080fd5b8101908080359060200190929190803590602001909291905050506132f6565b005b3480156112e557600080fd5b506112ee61341f565b6040518082815260200191505060405180910390f35b34801561131057600080fd5b506114816004803603606081101561132757600080fd5b810190808035906020019064010000000081111561134457600080fd5b82018360208201111561135657600080fd5b8035906020019184600183028401116401000000008311171561137857600080fd5b91908080601f016020809104026020016040519081016040528093929190818152602001838380828437600081840152601f19601f820116905080830192505050505050509192919290803590602001906401000000008111156113db57600080fd5b8201836020820111156113ed57600080fd5b8035906020019184600183028401116401000000008311171561140f57600080fd5b91908080601f016020809104026020016040519081016040528093929190818152602001838380828437600081840152601f19601f820116905080830192505050505050509192919290803573ffffffffffffffffffffffffffffffffffffffff16906020019092919050505061342c565b005b60606002600060048481548110151561149857fe5b9060005260206000200160009054906101000a900473ffffffffffffffffffffffffffffffffffffffff1673ffffffffffffffffffffffffffffffffffffffff1673ffffffffffffffffffffffffffffffffffffffff1681526020019081526020016000206004016001018054600181600116156101000203166002900480601f0160208091040260200160405190810160405280929190818152602001828054600181600116156101000203166002900480156115975780601f1061156c57610100808354040283529160200191611597565b820191906000526020600020905b81548152906001019060200180831161157a57829003601f168201915b50505050509050919050565b600654600760009054906101000a900473ffffffffffffffffffffffffffffffffffffffff1673ffffffffffffffffffffffffffffffffffffffff166370a08231336040518263ffffffff167c0100000000000000000000000000000000000000000000000000000000028152600401808273ffffffffffffffffffffffffffffffffffffffff1673ffffffffffffffffffffffffffffffffffffffff16815260200191505060206040518083038186803b15801561166157600080fd5b505afa158015611675573d6000803e3d6000fd5b505050506040513d602081101561168b57600080fd5b81019080805190602001909291905050501115156116a857600080fd5b600260003373ffffffffffffffffffffffffffffffffffffffff1673ffffffffffffffffffffffffffffffffffffffff16815260200190815260200160002060070160009054906101000a900460ff16151561170357600080fd5b80604051602001808273ffffffffffffffffffffffffffffffffffffffff1673ffffffffffffffffffffffffffffffffffffffff166c010000000000000000000000000281526014019150506040516020818303038152906040528051906020012033604051602001808273ffffffffffffffffffffffffffffffffffffffff1673ffffffffffffffffffffffffffffffffffffffff166c0100000000000000000000000002815260140191505060405160208183030381529060405280519060200120141515156117d457600080fd5b60001515600260003373ffffffffffffffffffffffffffffffffffffffff1673ffffffffffffffffffffffffffffffffffffffff16815260200190815260200160002060090160008373ffffffffffffffffffffffffffffffffffffffff1673ffffffffffffffffffffffffffffffffffffffff1681526020019081526020016000206000600260008573ffffffffffffffffffffffffffffffffffffffff1673ffffffffffffffffffffffffffffffffffffffff16815260200190815260200160002060000160049054906101000a900461ffff1661ffff16815260200190815260200160002060009054906101000a900460ff1615151415156118d857600080fd5b6001600260003373ffffffffffffffffffffffffffffffffffffffff1673ffffffffffffffffffffffffffffffffffffffff16815260200190815260200160002060090160008373ffffffffffffffffffffffffffffffffffffffff1673ffffffffffffffffffffffffffffffffffffffff1681526020019081526020016000206000600260008573ffffffffffffffffffffffffffffffffffffffff1673ffffffffffffffffffffffffffffffffffffffff16815260200190815260200160002060000160049054906101000a900461ffff1661ffff16815260200190815260200160002060006101000a81548160ff0219169083151502179055506001600260008373ffffffffffffffffffffffffffffffffffffffff1673ffffffffffffffffffffffffffffffffffffffff16815260200190815260200160002060000160008282829054906101000a900461ffff160192506101000a81548161ffff021916908361ffff1602179055506001600260003373ffffffffffffffffffffffffffffffffffffffff1673ffffffffffffffffffffffffffffffffffffffff16815260200190815260200160002060000160028282829054906101000a900461ffff160192506101000a81548161ffff021916908361ffff16021790555060016000808282829054906101000a900461ffff160192506101000a81548161ffff021916908361ffff16021790555050565b6000600260008373ffffffffffffffffffffffffffffffffffffffff1673ffffffffffffffffffffffffffffffffffffffff16815260200190815260200160002060000160049054906101000a900461ffff1661ffff169050919050565b600060026000600584815481101515611b5d57fe5b9060005260206000200160009054906101000a900473ffffffffffffffffffffffffffffffffffffffff1673ffffffffffffffffffffffffffffffffffffffff1673ffffffffffffffffffffffffffffffffffffffff16815260200190815260200160002060000160029054906101000a900461ffff1661ffff169050919050565b606060026000600484815481101515611bf457fe5b9060005260206000200160009054906101000a900473ffffffffffffffffffffffffffffffffffffffff1673ffffffffffffffffffffffffffffffffffffffff1673ffffffffffffffffffffffffffffffffffffffff1681526020019081526020016000206004016000018054600181600116156101000203166002900480601f016020809104026020016040519081016040528092919081815260200182805460018160011615610100020316600290048015611cf35780601f10611cc857610100808354040283529160200191611cf3565b820191906000526020600020905b815481529060010190602001808311611cd657829003601f168201915b50505050509050919050565b6000600582815481101515611d1057fe5b9060005260206000200160009054906101000a900473ffffffffffffffffffffffffffffffffffffffff169050919050565b6000600260008373ffffffffffffffffffffffffffffffffffffffff1673ffffffffffffffffffffffffffffffffffffffff16815260200190815260200160002060000160009054906101000a900461ffff1661ffff169050919050565b606060018054600181600116156101000203166002900480601f016020809104026020016040519081016040528092919081815260200182805460018160011615610100020316600290048015611e385780601f10611e0d57610100808354040283529160200191611e38565b820191906000526020600020905b815481529060010190602001808311611e1b57829003601f168201915b5050505050905090565b6000817effffffffffffffffffffffffffffffffffffffffffffffffffffffffffffff19168284167effffffffffffffffffffffffffffffffffffffffffffffffffffffffffffff191614905092915050565b600481815481101515611ea457fe5b906000526020600020016000915054906101000a900473ffffffffffffffffffffffffffffffffffffffff1681565b6060600260008373ffffffffffffffffffffffffffffffffffffffff1673ffffffffffffffffffffffffffffffffffffffff1681526020019081526020016000206002018054600181600116156101000203166002900480601f016020809104026020016040519081016040528092919081815260200182805460018160011615610100020316600290048015611fab5780601f10611f8057610100808354040283529160200191611fab565b820191906000526020600020905b815481529060010190602001808311611f8e57829003601f168201915b50505050509050919050565b6000600260008373ffffffffffffffffffffffffffffffffffffffff1673ffffffffffffffffffffffffffffffffffffffff16815260200190815260200160002060000160009054906101000a900461ffff1661ffff169050919050565b600260003373ffffffffffffffffffffffffffffffffffffffff1673ffffffffffffffffffffffffffffffffffffffff16815260200190815260200160002060070160009054906101000a900460ff1615151561207157600080fd5b6019835110151561208157600080fd5b6014825110151561209157600080fd5b6003836040518082805190602001908083835b6020831015156120c957805182526020820191506020810190506020830392506120a4565b6001836020036101000a038019825116818451168082178552505050505050905001915050908152602001604051809103902060009054906101000a900460ff1615151561211657600080fd5b82600260003373ffffffffffffffffffffffffffffffffffffffff1673ffffffffffffffffffffffffffffffffffffffff168152602001908152602001600020600101908051906020019061216c929190613ba9565b5081600260003373ffffffffffffffffffffffffffffffffffffffff1673ffffffffffffffffffffffffffffffffffffffff16815260200190815260200160002060020190805190602001906121c3929190613ba9565b5080600260003373ffffffffffffffffffffffffffffffffffffffff1673ffffffffffffffffffffffffffffffffffffffff168152602001908152602001600020600301908051906020019061221a929190613ba9565b5060016003846040518082805190602001908083835b6020831015156122555780518252602082019150602081019050602083039250612230565b6001836020036101000a038019825116818451168082178552505050505050905001915050908152602001604051809103902060006101000a81548160ff0219169083151502179055506001600260003373ffffffffffffffffffffffffffffffffffffffff1673ffffffffffffffffffffffffffffffffffffffff16815260200190815260200160002060070160006101000a81548160ff02191690831515021790555060053390806001815401808255809150509060018203906000526020600020016000909192909190916101000a81548173ffffffffffffffffffffffffffffffffffffffff021916908373ffffffffffffffffffffffffffffffffffffffff16021790555050600760009054906101000a900473ffffffffffffffffffffffffffffffffffffffff1673ffffffffffffffffffffffffffffffffffffffff1663a6f2ae3a346040518263ffffffff167c01000000000000000000000000000000000000000000000000000000000281526004016000604051808303818588803b1580156123e657600080fd5b505af11580156123fa573d6000803e3d6000fd5b5050505050600760009054906101000a900473ffffffffffffffffffffffffffffffffffffffff1673ffffffffffffffffffffffffffffffffffffffff1663a9059cbb336101f434026040518363ffffffff167c0100000000000000000000000000000000000000000000000000000000028152600401808373ffffffffffffffffffffffffffffffffffffffff1673ffffffffffffffffffffffffffffffffffffffff16815260200182815260200192505050600060405180830381600087803b1580156124c857600080fd5b505af11580156124dc573d6000803e3d6000fd5b50505050505050565b6000600580549050905090565b6000600860009054906101000a900473ffffffffffffffffffffffffffffffffffffffff1673ffffffffffffffffffffffffffffffffffffffff166370a08231836040518263ffffffff167c0100000000000000000000000000000000000000000000000000000000028152600401808273ffffffffffffffffffffffffffffffffffffffff1673ffffffffffffffffffffffffffffffffffffffff16815260200191505060206040518083038186803b1580156125af57600080fd5b505afa1580156125c3573d6000803e3d6000fd5b505050506040513d60208110156125d957600080fd5b81019080805190602001909291905050509050919050565b6060600260008473ffffffffffffffffffffffffffffffffffffffff1673ffffffffffffffffffffffffffffffffffffffff16815260200190815260200160002060080160008381526020019081526020016000206001018054600181600116156101000203166002900480601f0160208091040260200160405190810160405280929190818152602001828054600181600116156101000203166002900480156126dd5780601f106126b2576101008083540402835291602001916126dd565b820191906000526020600020905b8154815290600101906020018083116126c057829003601f168201915b5050505050905092915050565b6060600260008373ffffffffffffffffffffffffffffffffffffffff1673ffffffffffffffffffffffffffffffffffffffff1681526020019081526020016000206004016000018054600181600116156101000203166002900480601f0160208091040260200160405190810160405280929190818152602001828054600181600116156101000203166002900480156127c55780601f1061279a576101008083540402835291602001916127c5565b820191906000526020600020905b8154815290600101906020018083116127a857829003601f168201915b50505050509050919050565b6005818154811015156127e057fe5b906000526020600020016000915054906101000a900473ffffffffffffffffffffffffffffffffffffffff1681565b6000600260003373ffffffffffffffffffffffffffffffffffffffff1673ffffffffffffffffffffffffffffffffffffffff16815260200190815260200160002060090160008473ffffffffffffffffffffffffffffffffffffffff1673ffffffffffffffffffffffffffffffffffffffff1681526020019081526020016000206000600260008673ffffffffffffffffffffffffffffffffffffffff1673ffffffffffffffffffffffffffffffffffffffff16815260200190815260200160002060000160049054906101000a900461ffff1661ffff16815260200190815260200160002060009054906101000a900460ff16905092915050565b60008060029054906101000a900461ffff1661ffff16905090565b60006003826040518082805190602001908083835b602083101515612960578051825260208201915060208101905060208303925061293b565b6001836020036101000a038019825116818451168082178552505050505050905001915050908152602001604051809103902060009054906101000a900460ff169050919050565b6000600260006004848154811015156129bd57fe5b9060005260206000200160009054906101000a900473ffffffffffffffffffffffffffffffffffffffff1673ffffffffffffffffffffffffffffffffffffffff1673ffffffffffffffffffffffffffffffffffffffff16815260200190815260200160002060040160020160009054906101000a900473ffffffffffffffffffffffffffffffffffffffff169050919050565b6000600260003373ffffffffffffffffffffffffffffffffffffffff1673ffffffffffffffffffffffffffffffffffffffff16815260200190815260200160002060070160009054906101000a900460ff16905090565b60008060049054906101000a900473ffffffffffffffffffffffffffffffffffffffff16905090565b600654600760009054906101000a900473ffffffffffffffffffffffffffffffffffffffff1673ffffffffffffffffffffffffffffffffffffffff166370a08231336040518263ffffffff167c0100000000000000000000000000000000000000000000000000000000028152600401808273ffffffffffffffffffffffffffffffffffffffff1673ffffffffffffffffffffffffffffffffffffffff16815260200191505060206040518083038186803b158015612b8e57600080fd5b505afa158015612ba2573d6000803e3d6000fd5b505050506040513d6020811015612bb857600080fd5b8101908080519060200190929190505050111515612bd557600080fd5b600260003373ffffffffffffffffffffffffffffffffffffffff1673ffffffffffffffffffffffffffffffffffffffff16815260200190815260200160002060070160009054906101000a900460ff161515612c3057600080fd5b60008090505b8151811015612c6c57612c5f8282815181101515612c5057fe5b90602001906020020151612f4b565b8080600101915050612c36565b5050565b612c78613a10565b600760009054906101000a900473ffffffffffffffffffffffffffffffffffffffff1673ffffffffffffffffffffffffffffffffffffffff1663be040fb06040518163ffffffff167c0100000000000000000000000000000000000000000000000000000000028152600401600060405180830381600087803b158015612cfe57600080fd5b505af1158015612d12573d6000803e3d6000fd5b50505050612d1e613c29565b60008090505b600480549050811015612e3e578160026000600484815481101515612d4557fe5b9060005260206000200160009054906101000a900473ffffffffffffffffffffffffffffffffffffffff1673ffffffffffffffffffffffffffffffffffffffff1673ffffffffffffffffffffffffffffffffffffffff1681526020019081526020016000206004016000820151816000019080519060200190612dc9929190613c61565b506020820151816001019080519060200190612de6929190613c61565b5060408201518160020160006101000a81548173ffffffffffffffffffffffffffffffffffffffff021916908373ffffffffffffffffffffffffffffffffffffffff1602179055509050508080600101915050612d24565b506000600481612e4e9190613ce1565b5050565b6060600260008473ffffffffffffffffffffffffffffffffffffffff1673ffffffffffffffffffffffffffffffffffffffff16815260200190815260200160002060080160008381526020019081526020016000206000018054600181600116156101000203166002900480601f016020809104026020016040519081016040528092919081815260200182805460018160011615610100020316600290048015612f3e5780601f10612f1357610100808354040283529160200191612f3e565b820191906000526020600020905b815481529060010190602001808311612f2157829003601f168201915b5050505050905092915050565b600654600760009054906101000a900473ffffffffffffffffffffffffffffffffffffffff1673ffffffffffffffffffffffffffffffffffffffff166370a08231336040518263ffffffff167c0100000000000000000000000000000000000000000000000000000000028152600401808273ffffffffffffffffffffffffffffffffffffffff1673ffffffffffffffffffffffffffffffffffffffff16815260200191505060206040518083038186803b15801561300957600080fd5b505afa15801561301d573d6000803e3d6000fd5b505050506040513d602081101561303357600080fd5b810190808051906020019092919050505011151561305057600080fd5b600260003373ffffffffffffffffffffffffffffffffffffffff1673ffffffffffffffffffffffffffffffffffffffff16815260200190815260200160002060070160009054906101000a900460ff1615156130ab57600080fd5b600081101515156130bb57600080fd5b600480549050811015156130ce57600080fd5b6131106004828154811015156130e057fe5b9060005260206000200160009054906101000a900473ffffffffffffffffffffffffffffffffffffffff166115a3565b50565b6060600260008373ffffffffffffffffffffffffffffffffffffffff1673ffffffffffffffffffffffffffffffffffffffff1681526020019081526020016000206003018054600181600116156101000203166002900480601f0160208091040260200160405190810160405280929190818152602001828054600181600116156101000203166002900480156131eb5780601f106131c0576101008083540402835291602001916131eb565b820191906000526020600020905b8154815290600101906020018083116131ce57829003601f168201915b50505050509050919050565b6060600260008373ffffffffffffffffffffffffffffffffffffffff1673ffffffffffffffffffffffffffffffffffffffff1681526020019081526020016000206001018054600181600116156101000203166002900480601f0160208091040260200160405190810160405280929190818152602001828054600181600116156101000203166002900480156132cf5780601f106132a4576101008083540402835291602001916132cf565b820191906000526020600020905b8154815290600101906020018083116132b257829003601f168201915b50505050509050919050565b60008060009054906101000a900461ffff1661ffff16905090565b6000811015151561330657600080fd5b6000821015151561331657600080fd5b600082600102905060008090505b602060ff16811015613419576000828260208110151561334057fe5b1a7f01000000000000000000000000000000000000000000000000000000000000000290506000817f0100000000000000000000000000000000000000000000000000000000000000900460ff1614151561340b5760008090505b60088110156134095760008160020a90506000817f01000000000000000000000000000000000000000000000000000000000000000290506133dd8482611e42565b156133fa576133f961010088028487601f036008020101612f4b565b5b5050808060010191505061339b565b505b508080600101915050613324565b50505050565b6000600480549050905090565b600654600760009054906101000a900473ffffffffffffffffffffffffffffffffffffffff1673ffffffffffffffffffffffffffffffffffffffff166370a08231336040518263ffffffff167c0100000000000000000000000000000000000000000000000000000000028152600401808273ffffffffffffffffffffffffffffffffffffffff1673ffffffffffffffffffffffffffffffffffffffff16815260200191505060206040518083038186803b1580156134ea57600080fd5b505afa1580156134fe573d6000803e3d6000fd5b505050506040513d602081101561351457600080fd5b810190808051906020019092919050505011151561353157600080fd5b600260003373ffffffffffffffffffffffffffffffffffffffff1673ffffffffffffffffffffffffffffffffffffffff16815260200190815260200160002060070160009054906101000a900460ff16151561358c57600080fd5b602e835114151561359c57600080fd5b606482511015156135ac57600080fd5b600073ffffffffffffffffffffffffffffffffffffffff16600260003373ffffffffffffffffffffffffffffffffffffffff1673ffffffffffffffffffffffffffffffffffffffff16815260200190815260200160002060040160020160009054906101000a900473ffffffffffffffffffffffffffffffffffffffff1673ffffffffffffffffffffffffffffffffffffffff1614151561364c57600080fd5b613654613c29565b83816000018190525081816040019073ffffffffffffffffffffffffffffffffffffffff16908173ffffffffffffffffffffffffffffffffffffffff168152505082816020018190525080600260003373ffffffffffffffffffffffffffffffffffffffff1673ffffffffffffffffffffffffffffffffffffffff16815260200190815260200160002060040160008201518160000190805190602001906136fd929190613c61565b50602082015181600101908051906020019061371a929190613c61565b5060408201518160020160006101000a81548173ffffffffffffffffffffffffffffffffffffffff021916908373ffffffffffffffffffffffffffffffffffffffff16021790555090505080600260003373ffffffffffffffffffffffffffffffffffffffff1673ffffffffffffffffffffffffffffffffffffffff1681526020019081526020016000206008016000600260003373ffffffffffffffffffffffffffffffffffffffff1673ffffffffffffffffffffffffffffffffffffffff16815260200190815260200160002060000160049054906101000a900461ffff1661ffff1681526020019081526020016000206000820151816000019080519060200190613829929190613c61565b506020820151816001019080519060200190613846929190613c61565b5060408201518160020160006101000a81548173ffffffffffffffffffffffffffffffffffffffff021916908373ffffffffffffffffffffffffffffffffffffffff1602179055509050506001600060028282829054906101000a900461ffff160192506101000a81548161ffff021916908361ffff1602179055506001600260003373ffffffffffffffffffffffffffffffffffffffff1673ffffffffffffffffffffffffffffffffffffffff16815260200190815260200160002060000160048282829054906101000a900461ffff160192506101000a81548161ffff021916908361ffff1602179055506001600260003373ffffffffffffffffffffffffffffffffffffffff1673ffffffffffffffffffffffffffffffffffffffff16815260200190815260200160002060000160028282829054906101000a900461ffff160192506101000a81548161ffff021916908361ffff16021790555060043390806001815401808255809150509060018203906000526020600020016000909192909190916101000a81548173ffffffffffffffffffffffffffffffffffffffff021916908373ffffffffffffffffffffffffffffffffffffffff1602179055505050505050565b60008060009054906101000a900461ffff1661ffff16434260405160200180828152602001915050604051602081830303815290604052805190602001206001900401811515613a5c57fe5b06905060008090506000809050600080905060008090505b60048054905081108015613a86575081155b15613b3a5760026000600483815481101515613a9e57fe5b9060005260206000200160009054906101000a900473ffffffffffffffffffffffffffffffffffffffff1673ffffffffffffffffffffffffffffffffffffffff1673ffffffffffffffffffffffffffffffffffffffff16815260200190815260200160002060000160009054906101000a900461ffff1661ffff168401935084841115613b2d57809250600191505b8080600101915050613a74565b50613b4482611bdf565b60019080519060200190613b59929190613ba9565b50613b63826129a8565b600060046101000a81548173ffffffffffffffffffffffffffffffffffffffff021916908373ffffffffffffffffffffffffffffffffffffffff16021790555050505050565b828054600181600116156101000203166002900490600052602060002090601f016020900481019282601f10613bea57805160ff1916838001178555613c18565b82800160010185558215613c18579182015b82811115613c17578251825591602001919060010190613bfc565b5b509050613c259190613d0d565b5090565b6060604051908101604052806060815260200160608152602001600073ffffffffffffffffffffffffffffffffffffffff1681525090565b828054600181600116156101000203166002900490600052602060002090601f016020900481019282601f10613ca257805160ff1916838001178555613cd0565b82800160010185558215613cd0579182015b82811115613ccf578251825591602001919060010190613cb4565b5b509050613cdd9190613d0d565b5090565b815481835581811115613d0857818360005260206000209182019101613d079190613d0d565b5b505050565b613d2f91905b80821115613d2b576000816000905550600101613d13565b5090565b9056fea165627a7a723058207583a84d635e23c59a5a438239285fbb9a2c7d6832807384d8e1ef15b42190990029",
  "source": "pragma solidity ^0.5.0;\n// We have to specify what version of compiler this code will compile with\n\nimport \"../contracts/Token.sol\";\nimport \"../contracts/Trophies.sol\";\n\ncontract Hashes{\n\n  uint16 totalVotes;\n  uint16 totalPhotos;\n  address winnerAddress;\n  string winnerHash;\n\n  struct hashes{\n         string hash;\n         string caption;\n         address addr;\n  }\n\n  struct properties{\n      uint16 votesReceived;\n      uint16 actionsDone;\n      uint16 photosPosted;\n      string name;\n      string profileName;\n      string profileImage;\n      hashes registry;\n      bool participated;\n      mapping(uint256 => hashes) allPosts;\n      mapping(address => mapping (uint256 => bool)) votedFor;\n  }\n\n  mapping(address => properties) address_properties;\n  mapping(string => bool) nameTaken;\n  address[] public participants;\n  address[] public all_participants;\n  uint minTokens;\n  MyToken token;\n  MyTrophy trophy;\n  address payable token_address;\n\n\n\n\n\n  constructor(uint _minTokens, address payable _myToken, address _myTrophy) public{\n    minTokens = _minTokens;\n    token = MyToken(_myToken);\n    token_address = _myToken;\n    token.setAddress(address(this));\n    trophy = MyTrophy(_myTrophy);\n    trophy.setAddress(address(this));\n\n  }\n\n  function addHash(string memory _ipfsHash, string memory _caption, address _ipfsAddress) public enoughCoins validAccount{\n     require (bytes(_ipfsHash).length == 46);\n     require (bytes(_caption).length < 100);\n     require (address_properties[msg.sender].registry.addr == address(0));\n     hashes memory myHash;\n     myHash.hash = _ipfsHash;\n     myHash.addr = _ipfsAddress;\n     myHash.caption = _caption;\n     address_properties[msg.sender].registry = myHash;\n     address_properties[msg.sender].allPosts[address_properties[msg.sender].photosPosted] = myHash;\n     totalPhotos += 1;\n     address_properties[msg.sender].photosPosted += 1;\n     address_properties[msg.sender].actionsDone += 1;\n     participants.push(msg.sender);\n  }\n\n  modifier enoughCoins() {\n\t\tif (!(token.balanceOf(msg.sender) > minTokens)) revert();\n\t\t_;\n\t}\n\n  modifier validAccount() {\n\t\tif (!(address_properties[msg.sender].participated)) revert();\n\t\t_;\n\t}\n\n  function voteForCandidate(address candidate) public enoughCoins validAccount{\n  \trequire (keccak256(abi.encodePacked(msg.sender)) != keccak256(abi.encodePacked(candidate)));\n    require (address_properties[msg.sender].votedFor[candidate][address_properties[candidate].photosPosted] == false);\n    address_properties[msg.sender].votedFor[candidate][address_properties[candidate].photosPosted] = true;\n    address_properties[candidate].votesReceived += 1;\n    address_properties[msg.sender].actionsDone += 1;\n  \ttotalVotes += 1;\n\n  }\n\n  function registerAccount(string memory _name, string memory _profileName, string memory _ipfsHash) public payable{\n     require (!address_properties[msg.sender].participated);\n     require (bytes(_name).length < 25);\n     require (bytes(_profileName).length < 20);\n     require (!nameTaken[_name]);\n     //require (bytes(_ipfsHash).length == 46);\n     address_properties[msg.sender].name = _name;\n     address_properties[msg.sender].profileName = _profileName;\n     address_properties[msg.sender].profileImage = _ipfsHash;\n     nameTaken[_name] = true;\n     address_properties[msg.sender].participated = true;\n     all_participants.push(msg.sender);\n     token.buy.value(msg.value)();\n     token.transfer(msg.sender, msg.value*500);\n\n  }\n\n  function accountRegistered() public view returns (bool){\n    return (address_properties[msg.sender].participated);\n  }\n\n  function voteByIndex(uint candidate_index) public enoughCoins validAccount{\n\n    require(candidate_index >= 0);\n    require(candidate_index < participants.length);\n  \tvoteForCandidate(participants[candidate_index]);\n  }\n\n  function voteForListByIndex(uint[] memory candidates_indexes) public enoughCoins validAccount{\n\n    for (uint i = 0; i < candidates_indexes.length; i++){\n        voteByIndex(candidates_indexes[i]);\n    }\n  }\n\n  function bitSet(byte b, byte a) public returns (bool){\n    return (b & a == a);\n  }\n\n  function voteForListByBitString(uint n, uint shift) public{\n\n    require(shift >= 0);\n    require(n >= 0);\n\n    bytes32 byteArray = bytes32(n);\n    for (uint i = 0; i < byteArray.length; i++){\n        byte temp = byteArray[i];\n        if (uint8(temp) != 0){\n            for (uint j = 0; j < 8; j++){\n              uint8 num = uint8(2 ** j);\n              byte value = byte(num);\n              if (bitSet(temp, value)){\n                voteByIndex(8*(31 - i)+j+shift*256);\n              }\n            }\n        }\n    }\n  }\n\n\n  function getWinner() internal {\n    uint random = uint((uint(keccak256(abi.encodePacked((block.timestamp)))) + block.number) % totalVotes);\n    uint num = 0;\n    uint winnerIndex = 0;\n    bool done = false;\n\n    for (uint i = 0; i < participants.length && !done; i++){\n      num += (address_properties[participants[i]].votesReceived);\n      if (num > random){\n        winnerIndex = i;\n        done = true;\n      }\n    }\n    winnerHash = getList(winnerIndex);\n    winnerAddress = getAddress(winnerIndex);\n\n  }\n\n  function returnWinnerHash() public view returns (string memory){\n  \treturn winnerHash;\n  }\n\n  function returnWinnerAddress() public view returns (address){\n  \treturn winnerAddress;\n  }\n\n  function getList(uint x) public view returns (string memory){\n  \treturn address_properties[participants[x]].registry.hash;\n  }\n\n  function viewPhotos(address _owner, uint index) public view returns (string memory){\n  \treturn address_properties[_owner].allPosts[index].hash;\n  }\n\n  function viewCaption(address _owner, uint index) public view returns (string memory){\n    return address_properties[_owner].allPosts[index].caption;\n  }\n\n  function getListByAddress(address x) public view returns (string memory){\n  \treturn address_properties[x].registry.hash;\n  }\n\n  function getCaption(uint x) public view returns (string memory){\n    return address_properties[participants[x]].registry.caption;\n  }\n\n  function getAddress(uint x) public view returns (address){\n  \treturn address_properties[participants[x]].registry.addr;\n  }\n\n  function returnTotalVotes() public view returns (uint){\n    return totalVotes;\n  }\n\n  function returnTotalPhotos() public view returns (uint){\n    return totalPhotos;\n  }\n\n  function totalVotesFor(address x) public view returns(uint){\n  \treturn address_properties[x].votesReceived;\n  }\n\n  function listLength() public view returns (uint){\n  \treturn participants.length;\n  }\n\n  function numParticipants() public view returns (uint){\n    return all_participants.length;\n  }\n\n  function likedPhoto(address x, uint index) public view returns (bool){\n    return address_properties[msg.sender].votedFor[x][address_properties[x].photosPosted];\n  }\n\n  function getParticipant(uint x) public view returns (address){\n    return all_participants[x];\n  }\n\n  function numActions(uint x) public view returns (uint){\n    return address_properties[all_participants[x]].actionsDone;\n  }\n\n  function totalVotesReceived(address x) public view returns(uint){\n    return address_properties[x].votesReceived;\n  }\n\n  function totalPhotosPosted(address x) public view returns(uint){\n    return address_properties[x].photosPosted;\n  }\n\n  function totalTrophies(address x) public view returns(uint){\n    return trophy.balanceOf(x);\n  }\n\n  function getUserName (address x) public view returns(string memory){\n    return address_properties[x].name;\n  }\n  function getProfielName (address x) public view returns(string memory){\n    return address_properties[x].profileName;\n  }\n  function getProfileImage (address x) public view returns(string memory){\n    return address_properties[x].profileImage;\n  }\n  function isNameTaken (string memory _name) public view returns(bool){\n    return (nameTaken[_name]);\n  }\n\n  function newRound() public{\n    getWinner();\n    token.redeem();\n    hashes memory myHash;\n    for (uint i = 0; i < participants.length; i++){\n      address_properties[participants[i]].registry = myHash;\n    }\n    participants.length = 0;\n  }\n\n}\n",
  "sourcePath": "/Users/ryachen/Desktop/Quest/eth-chain/app/contracts/Hashes.sol",
  "compiler": {
    "name": "solc",
    "version": "0.5.0+commit.1d4f565a.Emscripten.clang"
  },
  "schemaVersion": "3.0.1",
  "updatedAt": "2019-03-20T16:07:18.918Z",
  "devdoc": {
    "methods": {}
  },
  "userdoc": {
    "methods": {}
  }
}