{
  "contractName": "MyToken",
  "abi": [
    {
      "constant": true,
      "inputs": [],
      "name": "creator",
      "outputs": [
        {
          "name": "",
          "type": "address"
        }
      ],
      "payable": false,
      "stateMutability": "view",
      "type": "function",
      "signature": "0x02d05d3f"
    },
    {
      "constant": true,
      "inputs": [],
      "name": "name",
      "outputs": [
        {
          "name": "",
          "type": "string"
        }
      ],
      "payable": false,
      "stateMutability": "view",
      "type": "function",
      "signature": "0x06fdde03"
    },
    {
      "constant": true,
      "inputs": [],
      "name": "decimals",
      "outputs": [
        {
          "name": "",
          "type": "uint8"
        }
      ],
      "payable": false,
      "stateMutability": "view",
      "type": "function",
      "signature": "0x313ce567"
    },
    {
      "constant": true,
      "inputs": [],
      "name": "_totalSupply",
      "outputs": [
        {
          "name": "",
          "type": "uint256"
        }
      ],
      "payable": false,
      "stateMutability": "view",
      "type": "function",
      "signature": "0x3eaaf86b"
    },
    {
      "constant": true,
      "inputs": [],
      "name": "symbol",
      "outputs": [
        {
          "name": "",
          "type": "string"
        }
      ],
      "payable": false,
      "stateMutability": "view",
      "type": "function",
      "signature": "0x95d89b41"
    },
    {
      "constant": true,
      "inputs": [],
      "name": "hashes",
      "outputs": [
        {
          "name": "",
          "type": "address"
        }
      ],
      "payable": false,
      "stateMutability": "view",
      "type": "function",
      "signature": "0xa81d9bcc"
    },
    {
      "inputs": [],
      "payable": false,
      "stateMutability": "nonpayable",
      "type": "constructor",
      "signature": "constructor"
    },
    {
      "anonymous": false,
      "inputs": [
        {
          "indexed": true,
          "name": "from",
          "type": "address"
        },
        {
          "indexed": true,
          "name": "to",
          "type": "address"
        },
        {
          "indexed": false,
          "name": "tokens",
          "type": "uint256"
        }
      ],
      "name": "Transfer",
      "type": "event",
      "signature": "0xddf252ad1be2c89b69c2b068fc378daa952ba7f163c4a11628f55a4df523b3ef"
    },
    {
      "anonymous": false,
      "inputs": [
        {
          "indexed": true,
          "name": "tokenOwner",
          "type": "address"
        },
        {
          "indexed": true,
          "name": "spender",
          "type": "address"
        },
        {
          "indexed": false,
          "name": "tokens",
          "type": "uint256"
        }
      ],
      "name": "Approval",
      "type": "event",
      "signature": "0x8c5be1e5ebec7d5bd14f71427d1e84f3dd0314c0f7b2291e5b200ac8c7c3b925"
    },
    {
      "constant": false,
      "inputs": [
        {
          "name": "_hashesAddress",
          "type": "address"
        }
      ],
      "name": "setAddress",
      "outputs": [],
      "payable": false,
      "stateMutability": "nonpayable",
      "type": "function",
      "signature": "0xe30081a0"
    },
    {
      "constant": true,
      "inputs": [],
      "name": "returnAddress",
      "outputs": [
        {
          "name": "",
          "type": "address"
        }
      ],
      "payable": false,
      "stateMutability": "view",
      "type": "function",
      "signature": "0x943640c3"
    },
    {
      "constant": true,
      "inputs": [],
      "name": "returnCreator",
      "outputs": [
        {
          "name": "",
          "type": "address"
        }
      ],
      "payable": false,
      "stateMutability": "view",
      "type": "function",
      "signature": "0xd587b536"
    },
    {
      "constant": true,
      "inputs": [],
      "name": "totalSupply",
      "outputs": [
        {
          "name": "",
          "type": "uint256"
        }
      ],
      "payable": false,
      "stateMutability": "view",
      "type": "function",
      "signature": "0x18160ddd"
    },
    {
      "constant": true,
      "inputs": [
        {
          "name": "tokenOwner",
          "type": "address"
        }
      ],
      "name": "balanceOf",
      "outputs": [
        {
          "name": "balance",
          "type": "uint256"
        }
      ],
      "payable": false,
      "stateMutability": "view",
      "type": "function",
      "signature": "0x70a08231"
    },
    {
      "constant": false,
      "inputs": [
        {
          "name": "to",
          "type": "address"
        },
        {
          "name": "tokens",
          "type": "uint256"
        }
      ],
      "name": "transfer",
      "outputs": [],
      "payable": false,
      "stateMutability": "nonpayable",
      "type": "function",
      "signature": "0xa9059cbb"
    },
    {
      "constant": true,
      "inputs": [
        {
          "name": "tokenOwner",
          "type": "address"
        },
        {
          "name": "spender",
          "type": "address"
        }
      ],
      "name": "allowance",
      "outputs": [
        {
          "name": "remaining",
          "type": "uint256"
        }
      ],
      "payable": false,
      "stateMutability": "view",
      "type": "function",
      "signature": "0xdd62ed3e"
    },
    {
      "constant": false,
      "inputs": [
        {
          "name": "spender",
          "type": "address"
        },
        {
          "name": "tokens",
          "type": "uint256"
        }
      ],
      "name": "approve",
      "outputs": [],
      "payable": false,
      "stateMutability": "nonpayable",
      "type": "function",
      "signature": "0x095ea7b3"
    },
    {
      "constant": false,
      "inputs": [
        {
          "name": "from",
          "type": "address"
        },
        {
          "name": "to",
          "type": "address"
        },
        {
          "name": "tokens",
          "type": "uint256"
        }
      ],
      "name": "transferFrom",
      "outputs": [],
      "payable": false,
      "stateMutability": "nonpayable",
      "type": "function",
      "signature": "0x23b872dd"
    },
    {
      "constant": false,
      "inputs": [],
      "name": "buy",
      "outputs": [],
      "payable": true,
      "stateMutability": "payable",
      "type": "function",
      "signature": "0xa6f2ae3a"
    },
    {
      "constant": false,
      "inputs": [],
      "name": "redeem",
      "outputs": [],
      "payable": false,
      "stateMutability": "nonpayable",
      "type": "function",
      "signature": "0xbe040fb0"
    }
  ],
  "bytecode": "0x60806040526000600760146101000a81548160ff0219169083151502179055503480156200002c57600080fd5b506040805190810160405280600381526020017f4547540000000000000000000000000000000000000000000000000000000000815250600090805190602001906200007a929190620001a6565b506040805190810160405280600f81526020017f45746865724772616d20546f6b656e000000000000000000000000000000000081525060019080519060200190620000c8929190620001a6565b506012600260006101000a81548160ff021916908360ff1602179055506a52b7d2dcc80cd2e400000060038190555033600660006101000a81548173ffffffffffffffffffffffffffffffffffffffff021916908373ffffffffffffffffffffffffffffffffffffffff16021790555060035460046000600660009054906101000a900473ffffffffffffffffffffffffffffffffffffffff1673ffffffffffffffffffffffffffffffffffffffff1673ffffffffffffffffffffffffffffffffffffffff1681526020019081526020016000208190555062000255565b828054600181600116156101000203166002900490600052602060002090601f016020900481019282601f10620001e957805160ff19168380011785556200021a565b828001600101855582156200021a579182015b8281111562000219578251825591602001919060010190620001fc565b5b5090506200022991906200022d565b5090565b6200025291905b808211156200024e57600081600090555060010162000234565b5090565b90565b6117a380620002656000396000f3fe6080604052600436106100f1576000357c0100000000000000000000000000000000000000000000000000000000900463ffffffff16806302d05d3f146100f657806306fdde031461014d578063095ea7b3146101dd57806318160ddd1461023857806323b872dd14610263578063313ce567146102de5780633eaaf86b1461030f57806370a082311461033a578063943640c31461039f57806395d89b41146103f6578063a6f2ae3a14610486578063a81d9bcc14610490578063a9059cbb146104e7578063be040fb014610542578063d587b53614610559578063dd62ed3e146105b0578063e30081a014610635575b600080fd5b34801561010257600080fd5b5061010b610686565b604051808273ffffffffffffffffffffffffffffffffffffffff1673ffffffffffffffffffffffffffffffffffffffff16815260200191505060405180910390f35b34801561015957600080fd5b506101626106ac565b6040518080602001828103825283818151815260200191508051906020019080838360005b838110156101a2578082015181840152602081019050610187565b50505050905090810190601f1680156101cf5780820380516001836020036101000a031916815260200191505b509250505060405180910390f35b3480156101e957600080fd5b506102366004803603604081101561020057600080fd5b81019080803573ffffffffffffffffffffffffffffffffffffffff1690602001909291908035906020019092919050505061074a565b005b34801561024457600080fd5b5061024d610834565b6040518082815260200191505060405180910390f35b34801561026f57600080fd5b506102dc6004803603606081101561028657600080fd5b81019080803573ffffffffffffffffffffffffffffffffffffffff169060200190929190803573ffffffffffffffffffffffffffffffffffffffff1690602001909291908035906020019092919050505061083e565b005b3480156102ea57600080fd5b506102f3610ae1565b604051808260ff1660ff16815260200191505060405180910390f35b34801561031b57600080fd5b50610324610af4565b6040518082815260200191505060405180910390f35b34801561034657600080fd5b506103896004803603602081101561035d57600080fd5b81019080803573ffffffffffffffffffffffffffffffffffffffff169060200190929190505050610afa565b6040518082815260200191505060405180910390f35b3480156103ab57600080fd5b506103b4610b43565b604051808273ffffffffffffffffffffffffffffffffffffffff1673ffffffffffffffffffffffffffffffffffffffff16815260200191505060405180910390f35b34801561040257600080fd5b5061040b610b4b565b6040518080602001828103825283818151815260200191508051906020019080838360005b8381101561044b578082015181840152602081019050610430565b50505050905090810190601f1680156104785780820380516001836020036101000a031916815260200191505b509250505060405180910390f35b61048e610be9565b005b34801561049c57600080fd5b506104a5610d84565b604051808273ffffffffffffffffffffffffffffffffffffffff1673ffffffffffffffffffffffffffffffffffffffff16815260200191505060405180910390f35b3480156104f357600080fd5b506105406004803603604081101561050a57600080fd5b81019080803573ffffffffffffffffffffffffffffffffffffffff16906020019092919080359060200190929190505050610daa565b005b34801561054e57600080fd5b50610557610f43565b005b34801561056557600080fd5b5061056e610f7f565b604051808273ffffffffffffffffffffffffffffffffffffffff1673ffffffffffffffffffffffffffffffffffffffff16815260200191505060405180910390f35b3480156105bc57600080fd5b5061061f600480360360408110156105d357600080fd5b81019080803573ffffffffffffffffffffffffffffffffffffffff169060200190929190803573ffffffffffffffffffffffffffffffffffffffff169060200190929190505050610fa9565b6040518082815260200191505060405180910390f35b34801561064157600080fd5b506106846004803603602081101561065857600080fd5b81019080803573ffffffffffffffffffffffffffffffffffffffff169060200190929190505050611030565b005b600660009054906101000a900473ffffffffffffffffffffffffffffffffffffffff1681565b60018054600181600116156101000203166002900480601f0160208091040260200160405190810160405280929190818152602001828054600181600116156101000203166002900480156107425780601f1061071757610100808354040283529160200191610742565b820191906000526020600020905b81548152906001019060200180831161072557829003601f168201915b505050505081565b80600560003373ffffffffffffffffffffffffffffffffffffffff1673ffffffffffffffffffffffffffffffffffffffff16815260200190815260200160002060008473ffffffffffffffffffffffffffffffffffffffff1673ffffffffffffffffffffffffffffffffffffffff168152602001908152602001600020819055508173ffffffffffffffffffffffffffffffffffffffff163373ffffffffffffffffffffffffffffffffffffffff167f8c5be1e5ebec7d5bd14f71427d1e84f3dd0314c0f7b2291e5b200ac8c7c3b925836040518082815260200191505060405180910390a35050565b6000600354905090565b61089081600460008673ffffffffffffffffffffffffffffffffffffffff1673ffffffffffffffffffffffffffffffffffffffff168152602001908152602001600020546110ab90919063ffffffff16565b600460008573ffffffffffffffffffffffffffffffffffffffff1673ffffffffffffffffffffffffffffffffffffffff1681526020019081526020016000208190555061096281600560008673ffffffffffffffffffffffffffffffffffffffff1673ffffffffffffffffffffffffffffffffffffffff16815260200190815260200160002060003373ffffffffffffffffffffffffffffffffffffffff1673ffffffffffffffffffffffffffffffffffffffff168152602001908152602001600020546110ab90919063ffffffff16565b600560008573ffffffffffffffffffffffffffffffffffffffff1673ffffffffffffffffffffffffffffffffffffffff16815260200190815260200160002060003373ffffffffffffffffffffffffffffffffffffffff1673ffffffffffffffffffffffffffffffffffffffff16815260200190815260200160002081905550610a3481600460008573ffffffffffffffffffffffffffffffffffffffff1673ffffffffffffffffffffffffffffffffffffffff168152602001908152602001600020546110cd90919063ffffffff16565b600460008473ffffffffffffffffffffffffffffffffffffffff1673ffffffffffffffffffffffffffffffffffffffff168152602001908152602001600020819055508173ffffffffffffffffffffffffffffffffffffffff168373ffffffffffffffffffffffffffffffffffffffff167fddf252ad1be2c89b69c2b068fc378daa952ba7f163c4a11628f55a4df523b3ef836040518082815260200191505060405180910390a3505050565b600260009054906101000a900460ff1681565b60035481565b6000600460008373ffffffffffffffffffffffffffffffffffffffff1673ffffffffffffffffffffffffffffffffffffffff168152602001908152602001600020549050919050565b600030905090565b60008054600181600116156101000203166002900480601f016020809104026020016040519081016040528092919081815260200182805460018160011615610100020316600290048015610be15780601f10610bb657610100808354040283529160200191610be1565b820191906000526020600020905b815481529060010190602001808311610bc457829003601f168201915b505050505081565b600660009054906101000a900473ffffffffffffffffffffffffffffffffffffffff1673ffffffffffffffffffffffffffffffffffffffff166108fc349081150290604051600060405180830381858888f19350505050158015610c51573d6000803e3d6000fd5b5060006109c43402905060018110151515610c6b57600080fd5b610cbd81600460003373ffffffffffffffffffffffffffffffffffffffff1673ffffffffffffffffffffffffffffffffffffffff168152602001908152602001600020546110cd90919063ffffffff16565b600460003373ffffffffffffffffffffffffffffffffffffffff1673ffffffffffffffffffffffffffffffffffffffff16815260200190815260200160002081905550610d15816003546110cd90919063ffffffff16565b6003819055503373ffffffffffffffffffffffffffffffffffffffff16600073ffffffffffffffffffffffffffffffffffffffff167fddf252ad1be2c89b69c2b068fc378daa952ba7f163c4a11628f55a4df523b3ef836040518082815260200191505060405180910390a350565b600760009054906101000a900473ffffffffffffffffffffffffffffffffffffffff1681565b6000339050610e0182600460008473ffffffffffffffffffffffffffffffffffffffff1673ffffffffffffffffffffffffffffffffffffffff168152602001908152602001600020546110ab90919063ffffffff16565b600460008373ffffffffffffffffffffffffffffffffffffffff1673ffffffffffffffffffffffffffffffffffffffff16815260200190815260200160002081905550610e9682600460008673ffffffffffffffffffffffffffffffffffffffff1673ffffffffffffffffffffffffffffffffffffffff168152602001908152602001600020546110cd90919063ffffffff16565b600460008573ffffffffffffffffffffffffffffffffffffffff1673ffffffffffffffffffffffffffffffffffffffff168152602001908152602001600020819055508273ffffffffffffffffffffffffffffffffffffffff163373ffffffffffffffffffffffffffffffffffffffff167fddf252ad1be2c89b69c2b068fc378daa952ba7f163c4a11628f55a4df523b3ef846040518082815260200191505060405180910390a3505050565b6000610f4d6110ee565b9050610f6281683635c9adc5dea000006111b4565b610f7433678ac7230489e800006111b4565b610f7c6112ce565b50565b6000600660009054906101000a900473ffffffffffffffffffffffffffffffffffffffff16905090565b6000600560008473ffffffffffffffffffffffffffffffffffffffff1673ffffffffffffffffffffffffffffffffffffffff16815260200190815260200160002060008373ffffffffffffffffffffffffffffffffffffffff1673ffffffffffffffffffffffffffffffffffffffff16815260200190815260200160002054905092915050565b600760149054906101000a900460ff1615151561104c57600080fd5b6001600760146101000a81548160ff02191690831515021790555080600760006101000a81548173ffffffffffffffffffffffffffffffffffffffff021916908373ffffffffffffffffffffffffffffffffffffffff16021790555050565b60008282111515156110bc57600080fd5b600082840390508091505092915050565b60008082840190508381101515156110e457600080fd5b8091505092915050565b6000600760009054906101000a900473ffffffffffffffffffffffffffffffffffffffff1673ffffffffffffffffffffffffffffffffffffffff1663bb0bd6e56040518163ffffffff167c010000000000000000000000000000000000000000000000000000000002815260040160206040518083038186803b15801561117457600080fd5b505afa158015611188573d6000803e3d6000fd5b505050506040513d602081101561119e57600080fd5b8101908080519060200190929190505050905090565b61120681600460008573ffffffffffffffffffffffffffffffffffffffff1673ffffffffffffffffffffffffffffffffffffffff168152602001908152602001600020546110cd90919063ffffffff16565b600460008473ffffffffffffffffffffffffffffffffffffffff1673ffffffffffffffffffffffffffffffffffffffff1681526020019081526020016000208190555061125e816003546110cd90919063ffffffff16565b6003819055508173ffffffffffffffffffffffffffffffffffffffff16600073ffffffffffffffffffffffffffffffffffffffff167fddf252ad1be2c89b69c2b068fc378daa952ba7f163c4a11628f55a4df523b3ef836040518082815260200191505060405180910390a35050565b6000600760009054906101000a900473ffffffffffffffffffffffffffffffffffffffff1673ffffffffffffffffffffffffffffffffffffffff1663e36fccc96040518163ffffffff167c010000000000000000000000000000000000000000000000000000000002815260040160206040518083038186803b15801561135457600080fd5b505afa158015611368573d6000803e3d6000fd5b505050506040513d602081101561137e57600080fd5b810190808051906020019092919050505090506000600760009054906101000a900473ffffffffffffffffffffffffffffffffffffffff1673ffffffffffffffffffffffffffffffffffffffff1663a7eb9e2e6040518163ffffffff167c010000000000000000000000000000000000000000000000000000000002815260040160206040518083038186803b15801561141757600080fd5b505afa15801561142b573d6000803e3d6000fd5b505050506040513d602081101561144157600080fd5b810190808051906020019092919050505090506000818301905060008090505b600760009054906101000a900473ffffffffffffffffffffffffffffffffffffffff1673ffffffffffffffffffffffffffffffffffffffff16634e76a8466040518163ffffffff167c010000000000000000000000000000000000000000000000000000000002815260040160206040518083038186803b1580156114e557600080fd5b505afa1580156114f9573d6000803e3d6000fd5b505050506040513d602081101561150f57600080fd5b810190808051906020019092919050505081101561170c576000600760009054906101000a900473ffffffffffffffffffffffffffffffffffffffff1673ffffffffffffffffffffffffffffffffffffffff1663186d45ac836040518263ffffffff167c01000000000000000000000000000000000000000000000000000000000281526004018082815260200191505060206040518083038186803b1580156115b857600080fd5b505afa1580156115cc573d6000803e3d6000fd5b505050506040513d60208110156115e257600080fd5b8101908080519060200190929190505050905060008111156116fe57600061162768056bc75e2d6310000061161984876064611712565b61173990919063ffffffff16565b90506116fc600760009054906101000a900473ffffffffffffffffffffffffffffffffffffffff1673ffffffffffffffffffffffffffffffffffffffff16631b9db2ef856040518263ffffffff167c01000000000000000000000000000000000000000000000000000000000281526004018082815260200191505060206040518083038186803b1580156116bb57600080fd5b505afa1580156116cf573d6000803e3d6000fd5b505050506040513d60208110156116e557600080fd5b8101908080519060200190929190505050826111b4565b505b508080600101915050611461565b50505050565b6000808311151561172257600080fd5b8282850281151561172f57fe5b0490509392505050565b60008083141561174c5760009050611771565b6000828402905082848281151561175f57fe5b0414151561176c57600080fd5b809150505b9291505056fea165627a7a72305820f1fe73aeccb70f9ccf19999c6d1fb4207ccb89143bc7d69fb5d9d016707397b70029",
  "source": "pragma solidity ^0.5.0;\n\n\nimport \"../contracts/SafeMath.sol\";\nimport \"../contracts/ERC20.sol\";\n\n  contract Hashes1 {\n    function returnWinnerAddress() public view returns (address);\n    function returnTotalVotes() public view returns (uint);\n    function returnTotalPhotos() public view returns (uint);\n    function numActions(uint x) public view returns (uint);\n    function numParticipants() public view returns (uint);\n    function getParticipant(uint x) public view returns (address);\n    function totalVotesFor(address x) public view returns(uint);\n\n  }\n\n  contract MyToken is ERC20{\n\n      using SafeMath for uint256;\n\n      string public symbol;\n      string public  name;\n      uint8 public decimals;\n      uint public _totalSupply;\n      mapping(address => uint256) balances;\n      mapping(address => mapping (address => uint256)) allowed;\n      address payable public creator;\n      Hashes1 public hashes;\n      bool addressSet = false;\n\n\n\n     constructor() public {\n          symbol = \"EGT\";\n          name = \"EtherGram Token\";\n          decimals = 18;\n          _totalSupply = 100000000000000000000000000;\n          creator = msg.sender;\n          balances[creator] = _totalSupply;\n\n      }\n\n      function setAddress(address _hashesAddress) external {\n          require(!addressSet);\n          addressSet = true;\n          hashes = Hashes1(_hashesAddress);\n\n      }\n\n      function returnAddress() public view returns(address){\n        return (address(this));\n      }\n\n      function returnCreator() public view returns(address){\n      \treturn creator;\n      }\n\n      function totalSupply() public view returns (uint) {\n          return _totalSupply;\n      }\n\n      function balanceOf(address tokenOwner) public view returns (uint balance) {\n          return balances[tokenOwner];\n      }\n\n      function transfer(address to, uint tokens) public{\n\n          address tokenOwner = msg.sender;\n          balances[tokenOwner] = balances[tokenOwner].sub(tokens);\n          balances[to] = balances[to].add(tokens);\n          emit Transfer(msg.sender, to, tokens);\n\n      }\n\n      function allowance(address tokenOwner, address spender) public view returns (uint remaining) {\n        return allowed[tokenOwner][spender];\n      }\n\n      function approve(address spender, uint tokens) public{\n        allowed[msg.sender][spender] = tokens;\n        emit Approval(msg.sender, spender, tokens);\n      }\n\n      function transferFrom(address from, address to, uint tokens) public{\n       balances[from] = balances[from].sub(tokens);\n       allowed[from][msg.sender] = allowed[from][msg.sender].sub(tokens);\n       balances[to] = balances[to].add(tokens);\n       emit Transfer(from, to, tokens);\n\n      }\n\n      function buy() external payable {\n\n          creator.transfer(msg.value);\n  \t      uint tokens = msg.value * 2500;\n          require (tokens >= 1);\n  \t      balances[msg.sender] = balances[msg.sender].add(tokens);\n  \t      _totalSupply = _totalSupply.add(tokens);\n          emit Transfer(address(0), msg.sender, tokens);\n\n      }\n\n\n      function winner() internal view returns (address){\n          return hashes.returnWinnerAddress();\n      }\n\n      function precisionDiv(uint a, uint b, uint precision) internal pure returns (uint c) {\n          require(b > 0);\n          c = (a*precision) / b;\n      }\n\n      function activity() internal {\n          uint total_votes = hashes.returnTotalVotes();\n          uint total_photos = hashes.returnTotalPhotos();\n          uint total_actions = total_votes + total_photos;\n          for (uint i = 0; i < hashes.numParticipants(); i++){\n            uint actions = hashes.numActions(i);\n            if (actions > 0){\n              uint reward = (precisionDiv(actions, total_actions, 100)).mul(1e20);\n              getCoins(hashes.getParticipant(i), reward);\n            }\n          }\n      }\n\n      function getCoins(address tokenOwner, uint amount) internal{\n          balances[tokenOwner] = balances[tokenOwner].add(amount);\n          _totalSupply = _totalSupply.add(amount);\n          emit Transfer(address(0), tokenOwner, amount);\n\n      }\n\n      function redeem() public{\n\n          address roundWinner = winner();\n          getCoins(roundWinner, 1e21);\n          getCoins(msg.sender, 1e19);\n          activity();\n\n      }\n\n\n  }\n",
  "sourcePath": "/Users/ryachen/Desktop/Quest/eth-chain/app/contracts/Token.sol",
  "compiler": {
    "name": "solc",
    "version": "0.5.0+commit.1d4f565a.Emscripten.clang"
  },
  "schemaVersion": "3.0.6",
  "updatedAt": "2019-05-15T16:51:24.437Z",
  "devdoc": {
    "methods": {}
  },
  "userdoc": {
    "methods": {}
  }
}