{
  "contractName": "Hashes",
  "abi": [
    {
      "constant": true,
      "inputs": [
        {
          "name": "",
          "type": "uint256"
        }
      ],
      "name": "participants",
      "outputs": [
        {
          "name": "",
          "type": "address"
        }
      ],
      "payable": false,
      "stateMutability": "view",
      "type": "function"
    },
    {
      "constant": true,
      "inputs": [
        {
          "name": "",
          "type": "uint256"
        }
      ],
      "name": "all_participants",
      "outputs": [
        {
          "name": "",
          "type": "address"
        }
      ],
      "payable": false,
      "stateMutability": "view",
      "type": "function"
    },
    {
      "inputs": [
        {
          "name": "_minTokens",
          "type": "uint256"
        },
        {
          "name": "_myToken",
          "type": "address"
        },
        {
          "name": "_myTrophy",
          "type": "address"
        }
      ],
      "payable": false,
      "stateMutability": "nonpayable",
      "type": "constructor"
    },
    {
      "constant": false,
      "inputs": [
        {
          "name": "_ipfsHash",
          "type": "string"
        },
        {
          "name": "_caption",
          "type": "string"
        },
        {
          "name": "_ipfsAddress",
          "type": "address"
        }
      ],
      "name": "addHash",
      "outputs": [],
      "payable": false,
      "stateMutability": "nonpayable",
      "type": "function"
    },
    {
      "constant": false,
      "inputs": [
        {
          "name": "candidate",
          "type": "address"
        }
      ],
      "name": "voteForCandidate",
      "outputs": [],
      "payable": false,
      "stateMutability": "nonpayable",
      "type": "function"
    },
    {
      "constant": false,
      "inputs": [],
      "name": "registerAccount",
      "outputs": [],
      "payable": false,
      "stateMutability": "nonpayable",
      "type": "function"
    },
    {
      "constant": true,
      "inputs": [],
      "name": "accountRegistered",
      "outputs": [
        {
          "name": "",
          "type": "bool"
        }
      ],
      "payable": false,
      "stateMutability": "view",
      "type": "function"
    },
    {
      "constant": false,
      "inputs": [
        {
          "name": "candidate_index",
          "type": "uint256"
        }
      ],
      "name": "voteByIndex",
      "outputs": [],
      "payable": false,
      "stateMutability": "nonpayable",
      "type": "function"
    },
    {
      "constant": false,
      "inputs": [
        {
          "name": "candidates_indexes",
          "type": "uint256[]"
        }
      ],
      "name": "voteForListByIndex",
      "outputs": [],
      "payable": false,
      "stateMutability": "nonpayable",
      "type": "function"
    },
    {
      "constant": true,
      "inputs": [],
      "name": "returnWinnerHash",
      "outputs": [
        {
          "name": "",
          "type": "string"
        }
      ],
      "payable": false,
      "stateMutability": "view",
      "type": "function"
    },
    {
      "constant": true,
      "inputs": [],
      "name": "returnWinnerAddress",
      "outputs": [
        {
          "name": "",
          "type": "address"
        }
      ],
      "payable": false,
      "stateMutability": "view",
      "type": "function"
    },
    {
      "constant": true,
      "inputs": [
        {
          "name": "x",
          "type": "uint256"
        }
      ],
      "name": "getList",
      "outputs": [
        {
          "name": "",
          "type": "string"
        }
      ],
      "payable": false,
      "stateMutability": "view",
      "type": "function"
    },
    {
      "constant": true,
      "inputs": [
        {
          "name": "x",
          "type": "address"
        }
      ],
      "name": "getListByAddress",
      "outputs": [
        {
          "name": "",
          "type": "string"
        }
      ],
      "payable": false,
      "stateMutability": "view",
      "type": "function"
    },
    {
      "constant": true,
      "inputs": [
        {
          "name": "x",
          "type": "uint256"
        }
      ],
      "name": "getCaption",
      "outputs": [
        {
          "name": "",
          "type": "string"
        }
      ],
      "payable": false,
      "stateMutability": "view",
      "type": "function"
    },
    {
      "constant": true,
      "inputs": [
        {
          "name": "x",
          "type": "uint256"
        }
      ],
      "name": "getAddress",
      "outputs": [
        {
          "name": "",
          "type": "address"
        }
      ],
      "payable": false,
      "stateMutability": "view",
      "type": "function"
    },
    {
      "constant": true,
      "inputs": [],
      "name": "returnTotalVotes",
      "outputs": [
        {
          "name": "",
          "type": "uint256"
        }
      ],
      "payable": false,
      "stateMutability": "view",
      "type": "function"
    },
    {
      "constant": true,
      "inputs": [],
      "name": "returnTotalPhotos",
      "outputs": [
        {
          "name": "",
          "type": "uint256"
        }
      ],
      "payable": false,
      "stateMutability": "view",
      "type": "function"
    },
    {
      "constant": true,
      "inputs": [
        {
          "name": "x",
          "type": "address"
        }
      ],
      "name": "totalVotesFor",
      "outputs": [
        {
          "name": "",
          "type": "uint256"
        }
      ],
      "payable": false,
      "stateMutability": "view",
      "type": "function"
    },
    {
      "constant": true,
      "inputs": [],
      "name": "listLength",
      "outputs": [
        {
          "name": "",
          "type": "uint256"
        }
      ],
      "payable": false,
      "stateMutability": "view",
      "type": "function"
    },
    {
      "constant": true,
      "inputs": [],
      "name": "numParticipants",
      "outputs": [
        {
          "name": "",
          "type": "uint256"
        }
      ],
      "payable": false,
      "stateMutability": "view",
      "type": "function"
    },
    {
      "constant": true,
      "inputs": [
        {
          "name": "x",
          "type": "uint256"
        }
      ],
      "name": "getParticipant",
      "outputs": [
        {
          "name": "",
          "type": "address"
        }
      ],
      "payable": false,
      "stateMutability": "view",
      "type": "function"
    },
    {
      "constant": true,
      "inputs": [
        {
          "name": "x",
          "type": "uint256"
        }
      ],
      "name": "numActions",
      "outputs": [
        {
          "name": "",
          "type": "uint256"
        }
      ],
      "payable": false,
      "stateMutability": "view",
      "type": "function"
    },
    {
      "constant": false,
      "inputs": [],
      "name": "newRound",
      "outputs": [],
      "payable": false,
      "stateMutability": "nonpayable",
      "type": "function"
    }
  ],
  "bytecode": "0x608060405234801561001057600080fd5b506040516060806121638339810180604052810190808051906020019092919080519060200190929190805190602001909291905050508260058190555081600660006101000a81548173ffffffffffffffffffffffffffffffffffffffff021916908373ffffffffffffffffffffffffffffffffffffffff160217905550600660009054906101000a900473ffffffffffffffffffffffffffffffffffffffff1673ffffffffffffffffffffffffffffffffffffffff1663e30081a0306040518263ffffffff167c0100000000000000000000000000000000000000000000000000000000028152600401808273ffffffffffffffffffffffffffffffffffffffff1673ffffffffffffffffffffffffffffffffffffffff168152602001915050600060405180830381600087803b15801561014c57600080fd5b505af1158015610160573d6000803e3d6000fd5b5050505080600760006101000a81548173ffffffffffffffffffffffffffffffffffffffff021916908373ffffffffffffffffffffffffffffffffffffffff160217905550600760009054906101000a900473ffffffffffffffffffffffffffffffffffffffff1673ffffffffffffffffffffffffffffffffffffffff1663e30081a0306040518263ffffffff167c0100000000000000000000000000000000000000000000000000000000028152600401808273ffffffffffffffffffffffffffffffffffffffff1673ffffffffffffffffffffffffffffffffffffffff168152602001915050600060405180830381600087803b15801561026257600080fd5b505af1158015610276573d6000803e3d6000fd5b50505050505050611ed78061028c6000396000f300608060405260043610610128576000357c0100000000000000000000000000000000000000000000000000000000900463ffffffff1680630257e2491461012d578063163046eb146101d3578063186d45ac146102165780631ab5b383146102575780631b9db2ef146102fd5780632f8f7cf11461036a57806335c1d349146103fa5780634041ef54146104675780634e76a846146104be5780638516ff33146104e95780638eee5546146105a5578063a7eb9e2e14610612578063b93f9b0a1461063d578063b9d31981146106aa578063bb0bd6e5146106d9578063bc5d878714610730578063c5b1d9aa14610796578063cc4709f0146107ad578063d9f226e9146107da578063e36fccc9146107f1578063fb6f049f1461081c578063fbccabd714610847575b600080fd5b34801561013957600080fd5b5061015860048036038101908080359060200190929190505050610916565b6040518080602001828103825283818151815260200191508051906020019080838360005b8381101561019857808201518184015260208101905061017d565b50505050905090810190601f1680156101c55780820380516001836020036101000a031916815260200191505b509250505060405180910390f35b3480156101df57600080fd5b50610214600480360381019080803573ffffffffffffffffffffffffffffffffffffffff169060200190929190505050610a36565b005b34801561022257600080fd5b5061024160048036038101908080359060200190929190505050610d09565b6040518082815260200191505060405180910390f35b34801561026357600080fd5b5061028260048036038101908080359060200190929190505050610da0565b6040518080602001828103825283818151815260200191508051906020019080838360005b838110156102c25780820151818401526020810190506102a7565b50505050905090810190601f1680156102ef5780820380516001836020036101000a031916815260200191505b509250505060405180910390f35b34801561030957600080fd5b5061032860048036038101908080359060200190929190505050610ec0565b604051808273ffffffffffffffffffffffffffffffffffffffff1673ffffffffffffffffffffffffffffffffffffffff16815260200191505060405180910390f35b34801561037657600080fd5b5061037f610f03565b6040518080602001828103825283818151815260200191508051906020019080838360005b838110156103bf5780820151818401526020810190506103a4565b50505050905090810190601f1680156103ec5780820380516001836020036101000a031916815260200191505b509250505060405180910390f35b34801561040657600080fd5b5061042560048036038101908080359060200190929190505050610fa5565b604051808273ffffffffffffffffffffffffffffffffffffffff1673ffffffffffffffffffffffffffffffffffffffff16815260200191505060405180910390f35b34801561047357600080fd5b506104a8600480360381019080803573ffffffffffffffffffffffffffffffffffffffff169060200190929190505050610fe3565b6040518082815260200191505060405180910390f35b3480156104ca57600080fd5b506104d3611041565b6040518082815260200191505060405180910390f35b3480156104f557600080fd5b5061052a600480360381019080803573ffffffffffffffffffffffffffffffffffffffff16906020019092919050505061104e565b6040518080602001828103825283818151815260200191508051906020019080838360005b8381101561056a57808201518184015260208101905061054f565b50505050905090810190601f1680156105975780820380516001836020036101000a031916815260200191505b509250505060405180910390f35b3480156105b157600080fd5b506105d060048036038101908080359060200190929190505050611135565b604051808273ffffffffffffffffffffffffffffffffffffffff1673ffffffffffffffffffffffffffffffffffffffff16815260200191505060405180910390f35b34801561061e57600080fd5b50610627611173565b6040518082815260200191505060405180910390f35b34801561064957600080fd5b506106686004803603810190808035906020019092919050505061118e565b604051808273ffffffffffffffffffffffffffffffffffffffff1673ffffffffffffffffffffffffffffffffffffffff16815260200191505060405180910390f35b3480156106b657600080fd5b506106bf611236565b604051808215151515815260200191505060405180910390f35b3480156106e557600080fd5b506106ee61128d565b604051808273ffffffffffffffffffffffffffffffffffffffff1673ffffffffffffffffffffffffffffffffffffffff16815260200191505060405180910390f35b34801561073c57600080fd5b50610794600480360381019080803590602001908201803590602001908080602002602001604051908101604052809392919081815260200183836020028082843782019150505050505091929192905050506112b6565b005b3480156107a257600080fd5b506107ab6112f6565b005b3480156107b957600080fd5b506107d8600480360381019080803590602001909291905050506114a5565b005b3480156107e657600080fd5b506107ef6115f1565b005b3480156107fd57600080fd5b506108066117ae565b6040518082815260200191505060405180910390f35b34801561082857600080fd5b506108316117c9565b6040518082815260200191505060405180910390f35b34801561085357600080fd5b50610914600480360381019080803590602001908201803590602001908080601f0160208091040260200160405190810160405280939291908181526020018383808284378201915050505050509192919290803590602001908201803590602001908080601f0160208091040260200160405190810160405280939291908181526020018383808284378201915050505050509192919290803573ffffffffffffffffffffffffffffffffffffffff1690602001909291905050506117d6565b005b60606002600060038481548110151561092b57fe5b9060005260206000200160009054906101000a900473ffffffffffffffffffffffffffffffffffffffff1673ffffffffffffffffffffffffffffffffffffffff1673ffffffffffffffffffffffffffffffffffffffff1681526020019081526020016000206001016001018054600181600116156101000203166002900480601f016020809104026020016040519081016040528092919081815260200182805460018160011615610100020316600290048015610a2a5780601f106109ff57610100808354040283529160200191610a2a565b820191906000526020600020905b815481529060010190602001808311610a0d57829003601f168201915b50505050509050919050565b600554600660009054906101000a900473ffffffffffffffffffffffffffffffffffffffff1673ffffffffffffffffffffffffffffffffffffffff166370a08231336040518263ffffffff167c0100000000000000000000000000000000000000000000000000000000028152600401808273ffffffffffffffffffffffffffffffffffffffff1673ffffffffffffffffffffffffffffffffffffffff168152602001915050602060405180830381600087803b158015610af657600080fd5b505af1158015610b0a573d6000803e3d6000fd5b505050506040513d6020811015610b2057600080fd5b8101908080519060200190929190505050111515610b3d57600080fd5b80604051808273ffffffffffffffffffffffffffffffffffffffff1673ffffffffffffffffffffffffffffffffffffffff166c0100000000000000000000000002815260140191505060405180910390206000191633604051808273ffffffffffffffffffffffffffffffffffffffff1673ffffffffffffffffffffffffffffffffffffffff166c0100000000000000000000000002815260140191505060405180910390206000191614151515610bf457600080fd5b6001600260008373ffffffffffffffffffffffffffffffffffffffff1673ffffffffffffffffffffffffffffffffffffffff16815260200190815260200160002060000160008282829054906101000a900461ffff160192506101000a81548161ffff021916908361ffff1602179055506001600260003373ffffffffffffffffffffffffffffffffffffffff1673ffffffffffffffffffffffffffffffffffffffff16815260200190815260200160002060000160028282829054906101000a900461ffff160192506101000a81548161ffff021916908361ffff16021790555060016000808282829054906101000a900461ffff160192506101000a81548161ffff021916908361ffff16021790555050565b600060026000600484815481101515610d1e57fe5b9060005260206000200160009054906101000a900473ffffffffffffffffffffffffffffffffffffffff1673ffffffffffffffffffffffffffffffffffffffff1673ffffffffffffffffffffffffffffffffffffffff16815260200190815260200160002060000160029054906101000a900461ffff1661ffff169050919050565b606060026000600384815481101515610db557fe5b9060005260206000200160009054906101000a900473ffffffffffffffffffffffffffffffffffffffff1673ffffffffffffffffffffffffffffffffffffffff1673ffffffffffffffffffffffffffffffffffffffff1681526020019081526020016000206001016000018054600181600116156101000203166002900480601f016020809104026020016040519081016040528092919081815260200182805460018160011615610100020316600290048015610eb45780601f10610e8957610100808354040283529160200191610eb4565b820191906000526020600020905b815481529060010190602001808311610e9757829003601f168201915b50505050509050919050565b6000600482815481101515610ed157fe5b9060005260206000200160009054906101000a900473ffffffffffffffffffffffffffffffffffffffff169050919050565b606060018054600181600116156101000203166002900480601f016020809104026020016040519081016040528092919081815260200182805460018160011615610100020316600290048015610f9b5780601f10610f7057610100808354040283529160200191610f9b565b820191906000526020600020905b815481529060010190602001808311610f7e57829003601f168201915b5050505050905090565b600381815481101515610fb457fe5b906000526020600020016000915054906101000a900473ffffffffffffffffffffffffffffffffffffffff1681565b6000600260008373ffffffffffffffffffffffffffffffffffffffff1673ffffffffffffffffffffffffffffffffffffffff16815260200190815260200160002060000160009054906101000a900461ffff1661ffff169050919050565b6000600480549050905090565b6060600260008373ffffffffffffffffffffffffffffffffffffffff1673ffffffffffffffffffffffffffffffffffffffff1681526020019081526020016000206001016000018054600181600116156101000203166002900480601f0160208091040260200160405190810160405280929190818152602001828054600181600116156101000203166002900480156111295780601f106110fe57610100808354040283529160200191611129565b820191906000526020600020905b81548152906001019060200180831161110c57829003601f168201915b50505050509050919050565b60048181548110151561114457fe5b906000526020600020016000915054906101000a900473ffffffffffffffffffffffffffffffffffffffff1681565b60008060029054906101000a900461ffff1661ffff16905090565b6000600260006003848154811015156111a357fe5b9060005260206000200160009054906101000a900473ffffffffffffffffffffffffffffffffffffffff1673ffffffffffffffffffffffffffffffffffffffff1673ffffffffffffffffffffffffffffffffffffffff16815260200190815260200160002060010160020160009054906101000a900473ffffffffffffffffffffffffffffffffffffffff169050919050565b6000600260003373ffffffffffffffffffffffffffffffffffffffff1673ffffffffffffffffffffffffffffffffffffffff16815260200190815260200160002060040160009054906101000a900460ff16905090565b60008060049054906101000a900473ffffffffffffffffffffffffffffffffffffffff16905090565b60008090505b81518110156112f2576112e582828151811015156112d657fe5b906020019060200201516114a5565b80806001019150506112bc565b5050565b600554600660009054906101000a900473ffffffffffffffffffffffffffffffffffffffff1673ffffffffffffffffffffffffffffffffffffffff166370a08231336040518263ffffffff167c0100000000000000000000000000000000000000000000000000000000028152600401808273ffffffffffffffffffffffffffffffffffffffff1673ffffffffffffffffffffffffffffffffffffffff168152602001915050602060405180830381600087803b1580156113b657600080fd5b505af11580156113ca573d6000803e3d6000fd5b505050506040513d60208110156113e057600080fd5b81019080805190602001909291905050501115156113fd57600080fd5b611405611bc4565b600660009054906101000a900473ffffffffffffffffffffffffffffffffffffffff1673ffffffffffffffffffffffffffffffffffffffff1663be040fb06040518163ffffffff167c0100000000000000000000000000000000000000000000000000000000028152600401600060405180830381600087803b15801561148b57600080fd5b505af115801561149f573d6000803e3d6000fd5b50505050565b600554600660009054906101000a900473ffffffffffffffffffffffffffffffffffffffff1673ffffffffffffffffffffffffffffffffffffffff166370a08231336040518263ffffffff167c0100000000000000000000000000000000000000000000000000000000028152600401808273ffffffffffffffffffffffffffffffffffffffff1673ffffffffffffffffffffffffffffffffffffffff168152602001915050602060405180830381600087803b15801561156557600080fd5b505af1158015611579573d6000803e3d6000fd5b505050506040513d602081101561158f57600080fd5b81019080805190602001909291905050501115156115ac57600080fd5b6115ee6003828154811015156115be57fe5b9060005260206000200160009054906101000a900473ffffffffffffffffffffffffffffffffffffffff16610a36565b50565b600260003373ffffffffffffffffffffffffffffffffffffffff1673ffffffffffffffffffffffffffffffffffffffff16815260200190815260200160002060040160009054906101000a900460ff1615151561164d57600080fd5b6001600260003373ffffffffffffffffffffffffffffffffffffffff1673ffffffffffffffffffffffffffffffffffffffff16815260200190815260200160002060040160006101000a81548160ff02191690831515021790555060043390806001815401808255809150509060018203906000526020600020016000909192909190916101000a81548173ffffffffffffffffffffffffffffffffffffffff021916908373ffffffffffffffffffffffffffffffffffffffff16021790555050600660009054906101000a900473ffffffffffffffffffffffffffffffffffffffff1673ffffffffffffffffffffffffffffffffffffffff1663a6f2ae3a6040518163ffffffff167c0100000000000000000000000000000000000000000000000000000000028152600401600060405180830381600087803b15801561179457600080fd5b505af11580156117a8573d6000803e3d6000fd5b50505050565b60008060009054906101000a900461ffff1661ffff16905090565b6000600380549050905090565b6117de611d4e565b600554600660009054906101000a900473ffffffffffffffffffffffffffffffffffffffff1673ffffffffffffffffffffffffffffffffffffffff166370a08231336040518263ffffffff167c0100000000000000000000000000000000000000000000000000000000028152600401808273ffffffffffffffffffffffffffffffffffffffff1673ffffffffffffffffffffffffffffffffffffffff168152602001915050602060405180830381600087803b15801561189e57600080fd5b505af11580156118b2573d6000803e3d6000fd5b505050506040513d60208110156118c857600080fd5b81019080805190602001909291905050501115156118e557600080fd5b602e84511415156118f557600080fd5b6064835110151561190557600080fd5b600073ffffffffffffffffffffffffffffffffffffffff16600260003373ffffffffffffffffffffffffffffffffffffffff1673ffffffffffffffffffffffffffffffffffffffff16815260200190815260200160002060010160020160009054906101000a900473ffffffffffffffffffffffffffffffffffffffff1673ffffffffffffffffffffffffffffffffffffffff161415156119a557600080fd5b83816000018190525081816040019073ffffffffffffffffffffffffffffffffffffffff16908173ffffffffffffffffffffffffffffffffffffffff168152505082816020018190525080600260003373ffffffffffffffffffffffffffffffffffffffff1673ffffffffffffffffffffffffffffffffffffffff1681526020019081526020016000206001016000820151816000019080519060200190611a4e929190611d86565b506020820151816001019080519060200190611a6b929190611d86565b5060408201518160020160006101000a81548173ffffffffffffffffffffffffffffffffffffffff021916908373ffffffffffffffffffffffffffffffffffffffff1602179055509050506001600060028282829054906101000a900461ffff160192506101000a81548161ffff021916908361ffff1602179055506001600260003373ffffffffffffffffffffffffffffffffffffffff1673ffffffffffffffffffffffffffffffffffffffff16815260200190815260200160002060000160028282829054906101000a900461ffff160192506101000a81548161ffff021916908361ffff16021790555060033390806001815401808255809150509060018203906000526020600020016000909192909190916101000a81548173ffffffffffffffffffffffffffffffffffffffff021916908373ffffffffffffffffffffffffffffffffffffffff1602179055505050505050565b60008060008060008060009054906101000a900461ffff1661ffff1643426040518082815260200191505060405180910390206001900401811515611c0557fe5b069450600093506000925060009150600090505b60038054905081108015611c2b575081155b15611cdf5760026000600383815481101515611c4357fe5b9060005260206000200160009054906101000a900473ffffffffffffffffffffffffffffffffffffffff1673ffffffffffffffffffffffffffffffffffffffff1673ffffffffffffffffffffffffffffffffffffffff16815260200190815260200160002060000160009054906101000a900461ffff1661ffff168401935084841115611cd257809250600191505b8080600101915050611c19565b611ce883610da0565b60019080519060200190611cfd929190611e06565b50611d078361118e565b600060046101000a81548173ffffffffffffffffffffffffffffffffffffffff021916908373ffffffffffffffffffffffffffffffffffffffff1602179055505050505050565b6060604051908101604052806060815260200160608152602001600073ffffffffffffffffffffffffffffffffffffffff1681525090565b828054600181600116156101000203166002900490600052602060002090601f016020900481019282601f10611dc757805160ff1916838001178555611df5565b82800160010185558215611df5579182015b82811115611df4578251825591602001919060010190611dd9565b5b509050611e029190611e86565b5090565b828054600181600116156101000203166002900490600052602060002090601f016020900481019282601f10611e4757805160ff1916838001178555611e75565b82800160010185558215611e75579182015b82811115611e74578251825591602001919060010190611e59565b5b509050611e829190611e86565b5090565b611ea891905b80821115611ea4576000816000905550600101611e8c565b5090565b905600a165627a7a7230582063311c9a092de20a94548b316744a9adf14349876a87707701f90161cdc6c36f0029",
  "source": "pragma solidity ^0.4.20;\n// We have to specify what version of compiler this code will compile with\n\nimport \"Token.sol\";\nimport \"Trophies.sol\";\n\ncontract Hashes{\n\n  uint16 totalVotes;\n  uint16 totalPhotos;\n  address winnerAddress;\n  string winnerHash;\n\n  struct hashes{\n         string hash;\n         string caption;\n         address addr;\n  }\n\n  struct properties{\n      uint16 votesReceived;\n      uint16 actionsDone;\n      hashes registry;\n      bool participated;\n  }\n\n  mapping(address => properties) address_properties;\n  address[] public participants;\n  address[] public all_participants;\n  uint minTokens;\n  MyToken token;\n  MyTrophy trophy;\n\n\n\n\n\n  function Hashes(uint _minTokens, address _myToken, address _myTrophy){\n    minTokens = _minTokens;\n    token = MyToken(_myToken);\n    token.setAddress(address(this));\n    trophy = MyTrophy(_myTrophy);\n    trophy.setAddress(address(this));\n\n  }\n\n  function addHash(string _ipfsHash, string _caption, address _ipfsAddress) public enoughCoins{\n     require (bytes(_ipfsHash).length == 46);\n     require (bytes(_caption).length < 100);\n     require (address_properties[msg.sender].registry.addr == address(0));\n     hashes memory myHash;\n     myHash.hash = _ipfsHash;\n     myHash.addr = _ipfsAddress;\n     myHash.caption = _caption;\n     address_properties[msg.sender].registry = myHash;\n     totalPhotos += 1;\n     address_properties[msg.sender].actionsDone += 1;\n     participants.push(msg.sender);\n  }\n\n  modifier enoughCoins() {\n\t\tif (!(token.balanceOf(msg.sender) > minTokens)) revert();\n\t\t_;\n\t}\n\n  function voteForCandidate(address candidate) public enoughCoins{\n  \trequire (keccak256(msg.sender) != keccak256(candidate));\n    address_properties[candidate].votesReceived += 1;\n    address_properties[msg.sender].actionsDone += 1;\n  \ttotalVotes += 1;\n\n\n  }\n\n  function registerAccount() public {\n     require (!address_properties[msg.sender].participated);\n     address_properties[msg.sender].participated = true;\n     all_participants.push(msg.sender);\n     token.buy();\n  }\n\n  function accountRegistered() public constant returns (bool){\n    return (address_properties[msg.sender].participated);\n  }\n\n  function voteByIndex(uint candidate_index) public enoughCoins{\n  \tvoteForCandidate(participants[candidate_index]);\n  }\n\n  function voteForListByIndex(uint[] candidates_indexes){\n    for (uint i = 0; i < candidates_indexes.length; i++){\n        voteByIndex(candidates_indexes[i]);\n    }\n  }\n\n  function getWinner() internal {\n  \tuint random = uint((uint(keccak256(block.timestamp)) + block.number) % totalVotes);\n  \tuint num = 0;\n  \tuint winnerIndex = 0;\n  \tbool done = false;\n\n  \tfor (uint i = 0; i < participants.length && !done; i++){\n  \t\tnum += (address_properties[participants[i]].votesReceived);\n  \t\tif (num > random){\n  \t\t\twinnerIndex = i;\n  \t\t\tdone = true;\n      }\n  \t}\n  \twinnerHash = getList(winnerIndex);\n  \twinnerAddress = getAddress(winnerIndex);\n  }\n\n  function returnWinnerHash() public constant returns (string){\n  \treturn winnerHash;\n  }\n\n  function returnWinnerAddress() public constant returns (address){\n  \treturn winnerAddress;\n  }\n\n  function getList(uint x) public constant returns (string){\n  \treturn address_properties[participants[x]].registry.hash;\n  }\n  function getListByAddress(address x) public constant returns (string){\n  \treturn address_properties[x].registry.hash;\n  }\n\n  function getCaption(uint x) public constant returns (string){\n    return address_properties[participants[x]].registry.caption;\n  }\n\n  function getAddress(uint x) public constant returns (address){\n  \treturn address_properties[participants[x]].registry.addr;\n  }\n\n  function returnTotalVotes() public constant returns (uint){\n    return totalVotes;\n  }\n\n  function returnTotalPhotos() public constant returns (uint){\n    return totalPhotos;\n  }\n\n  function totalVotesFor(address x) public constant returns(uint){\n  \treturn address_properties[x].votesReceived;\n  }\n\n  function listLength() public constant returns (uint){\n  \treturn participants.length;\n  }\n\n  function numParticipants() public constant returns (uint){\n    return all_participants.length;\n  }\n\n  function getParticipant(uint x) public constant returns (address){\n    return all_participants[x];\n  }\n\n  function numActions(uint x) public constant returns (uint){\n    return address_properties[all_participants[x]].actionsDone;\n  }\n\n  function newRound() public enoughCoins{\n    getWinner();\n    token.redeem();\n  }\n\n}\n",
  "sourcePath": "/Users/ryachen/Desktop/Quest/eth-chain/app/contracts/Hashes.sol",
  "compiler": {
    "name": "solc",
    "version": "0.4.24+commit.e67f0147.Emscripten.clang"
  },
  "schemaVersion": "2.0.1",
  "updatedAt": "2019-01-07T01:59:14.671Z"
}