{
  "contractName": "Hashes",
  "abi": [
    {
      "constant": true,
      "inputs": [
        {
          "name": "",
          "type": "address"
        }
      ],
      "name": "votesReceived",
      "outputs": [
        {
          "name": "",
          "type": "uint256"
        }
      ],
      "payable": false,
      "stateMutability": "view",
      "type": "function"
    },
    {
      "constant": true,
      "inputs": [
        {
          "name": "",
          "type": "uint256"
        }
      ],
      "name": "list",
      "outputs": [
        {
          "name": "hash",
          "type": "string"
        },
        {
          "name": "add",
          "type": "address"
        }
      ],
      "payable": false,
      "stateMutability": "view",
      "type": "function"
    },
    {
      "constant": true,
      "inputs": [
        {
          "name": "",
          "type": "uint256"
        }
      ],
      "name": "currentList",
      "outputs": [
        {
          "name": "hash",
          "type": "string"
        },
        {
          "name": "add",
          "type": "address"
        }
      ],
      "payable": false,
      "stateMutability": "view",
      "type": "function"
    },
    {
      "constant": false,
      "inputs": [
        {
          "name": "ipfsHash",
          "type": "string"
        },
        {
          "name": "ipfsAddress",
          "type": "address"
        }
      ],
      "name": "addHash",
      "outputs": [
        {
          "name": "",
          "type": "bool"
        }
      ],
      "payable": false,
      "stateMutability": "nonpayable",
      "type": "function"
    },
    {
      "constant": false,
      "inputs": [
        {
          "name": "candidate",
          "type": "address"
        }
      ],
      "name": "voteForCandidate",
      "outputs": [
        {
          "name": "",
          "type": "bool"
        }
      ],
      "payable": false,
      "stateMutability": "nonpayable",
      "type": "function"
    },
    {
      "constant": false,
      "inputs": [],
      "name": "getWinner",
      "outputs": [
        {
          "name": "",
          "type": "bool"
        }
      ],
      "payable": false,
      "stateMutability": "nonpayable",
      "type": "function"
    },
    {
      "constant": true,
      "inputs": [],
      "name": "returnWinnerHash",
      "outputs": [
        {
          "name": "",
          "type": "string"
        }
      ],
      "payable": false,
      "stateMutability": "view",
      "type": "function"
    },
    {
      "constant": true,
      "inputs": [],
      "name": "returnWinnerAddress",
      "outputs": [
        {
          "name": "",
          "type": "address"
        }
      ],
      "payable": false,
      "stateMutability": "view",
      "type": "function"
    },
    {
      "constant": true,
      "inputs": [
        {
          "name": "x",
          "type": "uint256"
        }
      ],
      "name": "getList",
      "outputs": [
        {
          "name": "",
          "type": "string"
        }
      ],
      "payable": false,
      "stateMutability": "view",
      "type": "function"
    },
    {
      "constant": true,
      "inputs": [
        {
          "name": "x",
          "type": "address"
        }
      ],
      "name": "totalVotesFor",
      "outputs": [
        {
          "name": "",
          "type": "uint256"
        }
      ],
      "payable": false,
      "stateMutability": "view",
      "type": "function"
    },
    {
      "constant": true,
      "inputs": [
        {
          "name": "x",
          "type": "uint256"
        }
      ],
      "name": "getAddress",
      "outputs": [
        {
          "name": "",
          "type": "address"
        }
      ],
      "payable": false,
      "stateMutability": "view",
      "type": "function"
    },
    {
      "constant": true,
      "inputs": [],
      "name": "listLength",
      "outputs": [
        {
          "name": "",
          "type": "uint256"
        }
      ],
      "payable": false,
      "stateMutability": "view",
      "type": "function"
    },
    {
      "constant": false,
      "inputs": [],
      "name": "newRound",
      "outputs": [
        {
          "name": "",
          "type": "bool"
        }
      ],
      "payable": false,
      "stateMutability": "nonpayable",
      "type": "function"
    }
  ],
  "bytecode": "0x608060405234801561001057600080fd5b50610fdb806100206000396000f3006080604052600436106100c5576000357c0100000000000000000000000000000000000000000000000000000000900463ffffffff168063163046eb146100ca5780631ab5b383146101255780632f8f7cf1146101cb57806330c880c31461025b5780634041ef54146102b257806380c9419e146103095780638e7ea5b2146103e25780639932ba4c14610411578063b93f9b0a146104ea578063bb0bd6e514610557578063c5b1d9aa146105ae578063f7337125146105dd578063fb6f049f1461067e575b600080fd5b3480156100d657600080fd5b5061010b600480360381019080803573ffffffffffffffffffffffffffffffffffffffff1690602001909291905050506106a9565b604051808215151515815260200191505060405180910390f35b34801561013157600080fd5b50610150600480360381019080803590602001909291905050506107cc565b6040518080602001828103825283818151815260200191508051906020019080838360005b83811015610190578082015181840152602081019050610175565b50505050905090810190601f1680156101bd5780820380516001836020036101000a031916815260200191505b509250505060405180910390f35b3480156101d757600080fd5b506101e061088e565b6040518080602001828103825283818151815260200191508051906020019080838360005b83811015610220578082015181840152602081019050610205565b50505050905090810190601f16801561024d5780820380516001836020036101000a031916815260200191505b509250505060405180910390f35b34801561026757600080fd5b5061029c600480360381019080803573ffffffffffffffffffffffffffffffffffffffff169060200190929190505050610930565b6040518082815260200191505060405180910390f35b3480156102be57600080fd5b506102f3600480360381019080803573ffffffffffffffffffffffffffffffffffffffff169060200190929190505050610948565b6040518082815260200191505060405180910390f35b34801561031557600080fd5b5061033460048036038101908080359060200190929190505050610990565b60405180806020018373ffffffffffffffffffffffffffffffffffffffff1673ffffffffffffffffffffffffffffffffffffffff168152602001828103825284818151815260200191508051906020019080838360005b838110156103a657808201518184015260208101905061038b565b50505050905090810190601f1680156103d35780820380516001836020036101000a031916815260200191505b50935050505060405180910390f35b3480156103ee57600080fd5b506103f7610a7b565b604051808215151515815260200191505060405180910390f35b34801561041d57600080fd5b5061043c60048036038101908080359060200190929190505050610bf1565b60405180806020018373ffffffffffffffffffffffffffffffffffffffff1673ffffffffffffffffffffffffffffffffffffffff168152602001828103825284818151815260200191508051906020019080838360005b838110156104ae578082015181840152602081019050610493565b50505050905090810190601f1680156104db5780820380516001836020036101000a031916815260200191505b50935050505060405180910390f35b3480156104f657600080fd5b5061051560048036038101908080359060200190929190505050610cdc565b604051808273ffffffffffffffffffffffffffffffffffffffff1673ffffffffffffffffffffffffffffffffffffffff16815260200191505060405180910390f35b34801561056357600080fd5b5061056c610d26565b604051808273ffffffffffffffffffffffffffffffffffffffff1673ffffffffffffffffffffffffffffffffffffffff16815260200191505060405180910390f35b3480156105ba57600080fd5b506105c3610d50565b604051808215151515815260200191505060405180910390f35b3480156105e957600080fd5b50610664600480360381019080803590602001908201803590602001908080601f0160208091040260200160405190810160405280939291908181526020018383808284378201915050505050509192919290803573ffffffffffffffffffffffffffffffffffffffff169060200190929190505050610d62565b604051808215151515815260200191505060405180910390f35b34801561068a57600080fd5b50610693610e4d565b6040518082815260200191505060405180910390f35b600081604051808273ffffffffffffffffffffffffffffffffffffffff1673ffffffffffffffffffffffffffffffffffffffff166c0100000000000000000000000002815260140191505060405180910390206000191633604051808273ffffffffffffffffffffffffffffffffffffffff1673ffffffffffffffffffffffffffffffffffffffff166c010000000000000000000000000281526014019150506040518091039020600019161415156107c25760016000808473ffffffffffffffffffffffffffffffffffffffff1673ffffffffffffffffffffffffffffffffffffffff1681526020019081526020016000206000828254019250508190555060018060008282540192505081905550600190506107c7565b600090505b919050565b60606004828154811015156107dd57fe5b90600052602060002090600202016000018054600181600116156101000203166002900480601f0160208091040260200160405190810160405280929190818152602001828054600181600116156101000203166002900480156108825780601f1061085757610100808354040283529160200191610882565b820191906000526020600020905b81548152906001019060200180831161086557829003601f168201915b50505050509050919050565b606060038054600181600116156101000203166002900480601f0160208091040260200160405190810160405280929190818152602001828054600181600116156101000203166002900480156109265780601f106108fb57610100808354040283529160200191610926565b820191906000526020600020905b81548152906001019060200180831161090957829003601f168201915b5050505050905090565b60006020528060005260406000206000915090505481565b60008060008373ffffffffffffffffffffffffffffffffffffffff1673ffffffffffffffffffffffffffffffffffffffff168152602001908152602001600020549050919050565b60048181548110151561099f57fe5b9060005260206000209060020201600091509050806000018054600181600116156101000203166002900480601f016020809104026020016040519081016040528092919081815260200182805460018160011615610100020316600290048015610a4b5780601f10610a2057610100808354040283529160200191610a4b565b820191906000526020600020905b815481529060010190602001808311610a2e57829003601f168201915b5050505050908060010160009054906101000a900473ffffffffffffffffffffffffffffffffffffffff16905082565b60008060008060008060015443426040518082815260200191505060405180910390206001900401811515610aac57fe5b069450600093506000925060009150600090505b600480549050811015610b7d57600080600483815481101515610adf57fe5b906000526020600020906002020160010160009054906101000a900473ffffffffffffffffffffffffffffffffffffffff1673ffffffffffffffffffffffffffffffffffffffff1673ffffffffffffffffffffffffffffffffffffffff16815260200190815260200160002054840193508484118015610b63575060001515821515145b15610b7057809250600191505b8080600101915050610ac0565b610b86836107cc565b60039080519060200190610b9b929190610e5a565b50610ba583610cdc565b600260006101000a81548173ffffffffffffffffffffffffffffffffffffffff021916908373ffffffffffffffffffffffffffffffffffffffff16021790555060019550505050505090565b600581815481101515610c0057fe5b9060005260206000209060020201600091509050806000018054600181600116156101000203166002900480601f016020809104026020016040519081016040528092919081815260200182805460018160011615610100020316600290048015610cac5780601f10610c8157610100808354040283529160200191610cac565b820191906000526020600020905b815481529060010190602001808311610c8f57829003601f168201915b5050505050908060010160009054906101000a900473ffffffffffffffffffffffffffffffffffffffff16905082565b6000600482815481101515610ced57fe5b906000526020600020906002020160010160009054906101000a900473ffffffffffffffffffffffffffffffffffffffff169050919050565b6000600260009054906101000a900473ffffffffffffffffffffffffffffffffffffffff16905090565b6000610d5a610a7b565b506001905090565b6000610d6c610eda565b83816000018190525082816020019073ffffffffffffffffffffffffffffffffffffffff16908173ffffffffffffffffffffffffffffffffffffffff1681525050600481908060018154018082558091505090600182039060005260206000209060020201600090919290919091506000820151816000019080519060200190610df7929190610f0a565b5060208201518160010160006101000a81548173ffffffffffffffffffffffffffffffffffffffff021916908373ffffffffffffffffffffffffffffffffffffffff160217905550505050600191505092915050565b6000600480549050905090565b828054600181600116156101000203166002900490600052602060002090601f016020900481019282601f10610e9b57805160ff1916838001178555610ec9565b82800160010185558215610ec9579182015b82811115610ec8578251825591602001919060010190610ead565b5b509050610ed69190610f8a565b5090565b604080519081016040528060608152602001600073ffffffffffffffffffffffffffffffffffffffff1681525090565b828054600181600116156101000203166002900490600052602060002090601f016020900481019282601f10610f4b57805160ff1916838001178555610f79565b82800160010185558215610f79579182015b82811115610f78578251825591602001919060010190610f5d565b5b509050610f869190610f8a565b5090565b610fac91905b80821115610fa8576000816000905550600101610f90565b5090565b905600a165627a7a7230582068ae5193b3e11c66c06b8628efcde5c4c1cf9a71056ecada44bf36f464272bf10029",
  "source": "pragma solidity ^0.4.24;\n// We have to specify what version of compiler this code will compile with\n\n\n\ncontract Hashes {\n\n\n\n\n\n\nstruct hashes{\n       string hash;\n       address add;\n}\n\n\nmapping (address => uint256) public votesReceived;\nuint256 totalVotes;\naddress winnerAddress;\nstring winnerHash;\nhashes[] public list;\nhashes[] public currentList;\n\n\n\nfunction addHash( string ipfsHash, address ipfsAddress) public returns (bool){\n\n       hashes memory myHash;\n       myHash.hash = ipfsHash;\n       myHash.add = ipfsAddress;\n       list.push(myHash);\n\n       return true;\n}\nfunction voteForCandidate(address candidate) public returns (bool) {\n\tif (keccak256(msg.sender) != keccak256(candidate)){\n\tvotesReceived[candidate] += 1;\n\ttotalVotes += 1;\n\treturn true;\n\t}\n\treturn false;\n}\n\n\nfunction getWinner() public returns (bool){\n\n\n\tuint random = uint((uint(keccak256(block.timestamp)) + block.number) % totalVotes);\n\tuint num = 0;\n\tuint winnerIndex = 0;\n\tbool done = false;\n\tfor (uint i = 0; i < list.length; i++){\n\t\tnum += (votesReceived[list[i].add]);\n\t\tif (num > random && done == false){\n\t\t\twinnerIndex = i;\n\t\t\tdone = true;\n}\n\n\t}\n\n\n\twinnerHash = getList(winnerIndex);\n\twinnerAddress = getAddress(winnerIndex);\n\treturn true;\n}\n\n\nfunction returnWinnerHash() constant returns (string){\n\treturn winnerHash;\n}\nfunction returnWinnerAddress() constant returns (address){\n\n\treturn winnerAddress;\n}\n\n\nfunction getList(uint256 x) constant returns (string){\n\n\treturn list[x].hash;\n}\n\nfunction totalVotesFor(address x) constant returns(uint256){\n\n\n\treturn votesReceived[x];\n}\n\n\n\nfunction getAddress(uint256 x) constant returns (address){\n\n\treturn list[x].add;\n}\n\nfunction listLength() constant returns (uint256){\n\treturn list.length;\n}\n\n\nfunction newRound() public returns (bool){\n\ngetWinner();\n\n\nreturn true;\n\n}\n\n\n\n\n}\n",
  "sourcePath": "contracts/Hashes.sol",
  "compiler": {
    "name": "solc",
    "version": "0.4.24+commit.e67f0147.Emscripten.clang"
  },
  "schemaVersion": "2.0.1",
  "updatedAt": "2018-09-12T23:37:23.818Z"
}