{
  "contractName": "Hashes1",
  "abi": [
    {
      "constant": true,
      "inputs": [],
      "name": "returnWinnerAddress",
      "outputs": [
        {
          "name": "",
          "type": "address"
        }
      ],
      "payable": false,
      "stateMutability": "view",
      "type": "function"
    },
    {
      "constant": true,
      "inputs": [],
      "name": "returnTotalVotes",
      "outputs": [
        {
          "name": "",
          "type": "uint256"
        }
      ],
      "payable": false,
      "stateMutability": "view",
      "type": "function"
    },
    {
      "constant": true,
      "inputs": [],
      "name": "returnTotalPhotos",
      "outputs": [
        {
          "name": "",
          "type": "uint256"
        }
      ],
      "payable": false,
      "stateMutability": "view",
      "type": "function"
    },
    {
      "constant": true,
      "inputs": [
        {
          "name": "x",
          "type": "uint256"
        }
      ],
      "name": "numActions",
      "outputs": [
        {
          "name": "",
          "type": "uint256"
        }
      ],
      "payable": false,
      "stateMutability": "view",
      "type": "function"
    },
    {
      "constant": true,
      "inputs": [],
      "name": "numParticipants",
      "outputs": [
        {
          "name": "",
          "type": "uint256"
        }
      ],
      "payable": false,
      "stateMutability": "view",
      "type": "function"
    },
    {
      "constant": true,
      "inputs": [
        {
          "name": "x",
          "type": "uint256"
        }
      ],
      "name": "getParticipant",
      "outputs": [
        {
          "name": "",
          "type": "address"
        }
      ],
      "payable": false,
      "stateMutability": "view",
      "type": "function"
    }
  ],
  "bytecode": "0x608060405234801561001057600080fd5b50610251806100206000396000f300608060405260043610610078576000357c0100000000000000000000000000000000000000000000000000000000900463ffffffff168063186d45ac1461007d5780631b9db2ef146100be5780634e76a8461461012b578063a7eb9e2e14610156578063bb0bd6e514610181578063e36fccc9146101d8575b600080fd5b34801561008957600080fd5b506100a860048036038101908080359060200190929190505050610203565b6040518082815260200191505060405180910390f35b3480156100ca57600080fd5b506100e96004803603810190808035906020019092919050505061020a565b604051808273ffffffffffffffffffffffffffffffffffffffff1673ffffffffffffffffffffffffffffffffffffffff16815260200191505060405180910390f35b34801561013757600080fd5b50610140610211565b6040518082815260200191505060405180910390f35b34801561016257600080fd5b5061016b610216565b6040518082815260200191505060405180910390f35b34801561018d57600080fd5b5061019661021b565b604051808273ffffffffffffffffffffffffffffffffffffffff1673ffffffffffffffffffffffffffffffffffffffff16815260200191505060405180910390f35b3480156101e457600080fd5b506101ed610220565b6040518082815260200191505060405180910390f35b6000919050565b6000919050565b600090565b600090565b600090565b6000905600a165627a7a72305820a7958ae57c77b2af5de37ffec441b1be35ff0bbb30e4ab1e7ea043c160ea81dc0029",
  "source": "  pragma solidity ^0.4.20;\n\n\n  contract SafeMath {\n      function safeAdd(uint a, uint b) public pure returns (uint c) {\n          c = a + b;\n          require(c >= a);\n      }\n      function safeSub(uint a, uint b) public pure returns (uint c) {\n          require(b <= a);\n          c = a - b;\n      }\n      function safeMul(uint a, uint b) public pure returns (uint c) {\n          c = a * b;\n          require(a == 0 || c / a == b);\n      }\n      function safeDiv(uint a, uint b) public pure returns (uint c) {\n          require(b > 0);\n          c = a / b;\n      }\n      function precisionDiv(uint a, uint b, uint precision) public pure returns (uint c) {\n          require(b > 0);\n          c = (a*precision) / b;\n      }\n  }\n\n\n  contract Hashes1 {\n  function returnWinnerAddress() public constant returns (address) {}\n  function returnTotalVotes() public constant returns (uint) {}\n  function returnTotalPhotos() public constant returns (uint) {}\n  function numActions(uint x) public constant returns (uint){}\n  function numParticipants() public constant returns (uint){}\n  function getParticipant(uint x) public constant returns (address){}\n  }\n\n  contract MyToken is SafeMath{\n      string public symbol;\n      string public  name;\n      uint8 public decimals;\n      uint public _totalSupply;\n      mapping(address => uint) balances;\n      address public creator;\n      Hashes1 public hashes;\n      bool addressSet = false;\n      address hash_addr;\n\n\n      function MyToken() public {\n          symbol = \"RAC\";\n          name = \"My Token\";\n          decimals = 18;\n          _totalSupply = 100000000000000000000000000;\n          creator = tx.origin;\n          balances[creator] = _totalSupply;\n\n      }\n\n      function setAddress(address _hashesAddress) public {\n          require(!addressSet);\n          addressSet = true;\n          hashes = Hashes1(_hashesAddress);\n          hash_addr = _hashesAddress;\n      }\n\n      function returnCreator() public constant returns(address){\n      \treturn creator;\n      }\n\n      function totalSupply() public constant returns (uint) {\n          return _totalSupply;\n      }\n\n      function balanceOf(address tokenOwner) public constant returns (uint) {\n          return balances[tokenOwner];\n      }\n\n      function transfer(address to, uint tokens) public returns (bool) {\n          balances[tx.origin] = safeSub(balances[tx.origin], tokens);\n          balances[to] = safeAdd(balances[to], tokens);\n          return true;\n      }\n\n      function buy() public payable{\n          creator.transfer(msg.value);\n  \t      uint tokens = msg.value * 100;\n  \t      balances[tx.origin] = safeAdd(balances[tx.origin], tokens);\n  \t      _totalSupply = safeAdd(_totalSupply, tokens);\n      }\n\n      function winner() internal constant returns (address){\n          return hashes.returnWinnerAddress();\n      }\n\n      function activity() internal {\n          uint total_votes = hashes.returnTotalVotes();\n          uint total_photos = hashes.returnTotalPhotos();\n          uint total_actions = total_votes + total_photos;\n          for (uint i = 0; i < hashes.numParticipants(); i++){\n            uint actions = hashes.numActions(i);\n            if (actions > 0){\n              uint reward = safeMul(precisionDiv(actions, total_actions, 100), 1e19);\n              getCoins(hashes.getParticipant(i), reward);\n            }\n          }\n      }\n\n      function getCoins(address tokenOwner, uint amount) internal{\n          balances[tokenOwner] = safeAdd(balances[tokenOwner], amount);\n          _totalSupply = safeAdd(_totalSupply, amount);\n\n      }\n\n      function redeem() public{\n\n          address roundWinner = winner();\n          getCoins(roundWinner, 1e21);\n          getCoins(tx.origin, 1e19);\n          activity();\n\n      }\n\n\n  }\n",
  "sourcePath": "contracts/Token.sol",
  "compiler": {
    "name": "solc",
    "version": "0.4.24+commit.e67f0147.Emscripten.clang"
  },
  "schemaVersion": "2.0.1",
  "updatedAt": "2018-09-27T01:18:16.034Z"
}