{
  "contractName": "MyToken",
  "abi": [
    {
      "constant": true,
      "inputs": [],
      "name": "creator",
      "outputs": [
        {
          "name": "",
          "type": "address"
        }
      ],
      "payable": false,
      "stateMutability": "view",
      "type": "function"
    },
    {
      "constant": true,
      "inputs": [],
      "name": "name",
      "outputs": [
        {
          "name": "",
          "type": "string"
        }
      ],
      "payable": false,
      "stateMutability": "view",
      "type": "function"
    },
    {
      "constant": true,
      "inputs": [],
      "name": "decimals",
      "outputs": [
        {
          "name": "",
          "type": "uint8"
        }
      ],
      "payable": false,
      "stateMutability": "view",
      "type": "function"
    },
    {
      "constant": true,
      "inputs": [],
      "name": "_totalSupply",
      "outputs": [
        {
          "name": "",
          "type": "uint256"
        }
      ],
      "payable": false,
      "stateMutability": "view",
      "type": "function"
    },
    {
      "constant": true,
      "inputs": [],
      "name": "symbol",
      "outputs": [
        {
          "name": "",
          "type": "string"
        }
      ],
      "payable": false,
      "stateMutability": "view",
      "type": "function"
    },
    {
      "constant": true,
      "inputs": [
        {
          "name": "a",
          "type": "uint256"
        },
        {
          "name": "b",
          "type": "uint256"
        }
      ],
      "name": "safeSub",
      "outputs": [
        {
          "name": "c",
          "type": "uint256"
        }
      ],
      "payable": false,
      "stateMutability": "pure",
      "type": "function"
    },
    {
      "constant": true,
      "inputs": [],
      "name": "hashes",
      "outputs": [
        {
          "name": "",
          "type": "address"
        }
      ],
      "payable": false,
      "stateMutability": "view",
      "type": "function"
    },
    {
      "constant": true,
      "inputs": [
        {
          "name": "a",
          "type": "uint256"
        },
        {
          "name": "b",
          "type": "uint256"
        }
      ],
      "name": "safeDiv",
      "outputs": [
        {
          "name": "c",
          "type": "uint256"
        }
      ],
      "payable": false,
      "stateMutability": "pure",
      "type": "function"
    },
    {
      "constant": true,
      "inputs": [
        {
          "name": "a",
          "type": "uint256"
        },
        {
          "name": "b",
          "type": "uint256"
        }
      ],
      "name": "safeMul",
      "outputs": [
        {
          "name": "c",
          "type": "uint256"
        }
      ],
      "payable": false,
      "stateMutability": "pure",
      "type": "function"
    },
    {
      "constant": true,
      "inputs": [
        {
          "name": "a",
          "type": "uint256"
        },
        {
          "name": "b",
          "type": "uint256"
        },
        {
          "name": "precision",
          "type": "uint256"
        }
      ],
      "name": "precisionDiv",
      "outputs": [
        {
          "name": "c",
          "type": "uint256"
        }
      ],
      "payable": false,
      "stateMutability": "pure",
      "type": "function"
    },
    {
      "constant": true,
      "inputs": [
        {
          "name": "a",
          "type": "uint256"
        },
        {
          "name": "b",
          "type": "uint256"
        }
      ],
      "name": "safeAdd",
      "outputs": [
        {
          "name": "c",
          "type": "uint256"
        }
      ],
      "payable": false,
      "stateMutability": "pure",
      "type": "function"
    },
    {
      "inputs": [],
      "payable": false,
      "stateMutability": "nonpayable",
      "type": "constructor"
    },
    {
      "constant": false,
      "inputs": [
        {
          "name": "_hashesAddress",
          "type": "address"
        }
      ],
      "name": "setAddress",
      "outputs": [],
      "payable": false,
      "stateMutability": "nonpayable",
      "type": "function"
    },
    {
      "constant": true,
      "inputs": [],
      "name": "returnCreator",
      "outputs": [
        {
          "name": "",
          "type": "address"
        }
      ],
      "payable": false,
      "stateMutability": "view",
      "type": "function"
    },
    {
      "constant": true,
      "inputs": [],
      "name": "totalSupply",
      "outputs": [
        {
          "name": "",
          "type": "uint256"
        }
      ],
      "payable": false,
      "stateMutability": "view",
      "type": "function"
    },
    {
      "constant": true,
      "inputs": [
        {
          "name": "tokenOwner",
          "type": "address"
        }
      ],
      "name": "balanceOf",
      "outputs": [
        {
          "name": "",
          "type": "uint256"
        }
      ],
      "payable": false,
      "stateMutability": "view",
      "type": "function"
    },
    {
      "constant": false,
      "inputs": [
        {
          "name": "to",
          "type": "address"
        },
        {
          "name": "tokens",
          "type": "uint256"
        }
      ],
      "name": "transfer",
      "outputs": [
        {
          "name": "",
          "type": "bool"
        }
      ],
      "payable": false,
      "stateMutability": "nonpayable",
      "type": "function"
    },
    {
      "constant": false,
      "inputs": [],
      "name": "buy",
      "outputs": [],
      "payable": true,
      "stateMutability": "payable",
      "type": "function"
    },
    {
      "constant": false,
      "inputs": [],
      "name": "redeem",
      "outputs": [],
      "payable": false,
      "stateMutability": "nonpayable",
      "type": "function"
    }
  ],
  "bytecode": "0x60806040526000600660146101000a81548160ff0219169083151502179055503480156200002c57600080fd5b506040805190810160405280600381526020017f5241430000000000000000000000000000000000000000000000000000000000815250600090805190602001906200007a929190620001a6565b506040805190810160405280600881526020017f4d7920546f6b656e00000000000000000000000000000000000000000000000081525060019080519060200190620000c8929190620001a6565b506012600260006101000a81548160ff021916908360ff1602179055506a52b7d2dcc80cd2e400000060038190555032600560006101000a81548173ffffffffffffffffffffffffffffffffffffffff021916908373ffffffffffffffffffffffffffffffffffffffff16021790555060035460046000600560009054906101000a900473ffffffffffffffffffffffffffffffffffffffff1673ffffffffffffffffffffffffffffffffffffffff1673ffffffffffffffffffffffffffffffffffffffff1681526020019081526020016000208190555062000255565b828054600181600116156101000203166002900490600052602060002090601f016020900481019282601f10620001e957805160ff19168380011785556200021a565b828001600101855582156200021a579182015b8281111562000219578251825591602001919060010190620001fc565b5b5090506200022991906200022d565b5090565b6200025291905b808211156200024e57600081600090555060010162000234565b5090565b90565b61122680620002656000396000f3006080604052600436106100fc576000357c0100000000000000000000000000000000000000000000000000000000900463ffffffff16806302d05d3f1461010157806306fdde031461015857806318160ddd146101e8578063313ce567146102135780633eaaf86b1461024457806370a082311461026f57806395d89b41146102c6578063a293d1e814610356578063a6f2ae3a146103a1578063a81d9bcc146103ab578063a9059cbb14610402578063b5931f7c14610467578063be040fb0146104b2578063d05c78da146104c9578063d12a3edf14610514578063d587b53614610569578063e30081a0146105c0578063e6cb901314610603575b600080fd5b34801561010d57600080fd5b5061011661064e565b604051808273ffffffffffffffffffffffffffffffffffffffff1673ffffffffffffffffffffffffffffffffffffffff16815260200191505060405180910390f35b34801561016457600080fd5b5061016d610674565b6040518080602001828103825283818151815260200191508051906020019080838360005b838110156101ad578082015181840152602081019050610192565b50505050905090810190601f1680156101da5780820380516001836020036101000a031916815260200191505b509250505060405180910390f35b3480156101f457600080fd5b506101fd610712565b6040518082815260200191505060405180910390f35b34801561021f57600080fd5b5061022861071c565b604051808260ff1660ff16815260200191505060405180910390f35b34801561025057600080fd5b5061025961072f565b6040518082815260200191505060405180910390f35b34801561027b57600080fd5b506102b0600480360381019080803573ffffffffffffffffffffffffffffffffffffffff169060200190929190505050610735565b6040518082815260200191505060405180910390f35b3480156102d257600080fd5b506102db61077e565b6040518080602001828103825283818151815260200191508051906020019080838360005b8381101561031b578082015181840152602081019050610300565b50505050905090810190601f1680156103485780820380516001836020036101000a031916815260200191505b509250505060405180910390f35b34801561036257600080fd5b5061038b600480360381019080803590602001909291908035906020019092919050505061081c565b6040518082815260200191505060405180910390f35b6103a9610838565b005b3480156103b757600080fd5b506103c061094a565b604051808273ffffffffffffffffffffffffffffffffffffffff1673ffffffffffffffffffffffffffffffffffffffff16815260200191505060405180910390f35b34801561040e57600080fd5b5061044d600480360381019080803573ffffffffffffffffffffffffffffffffffffffff16906020019092919080359060200190929190505050610970565b604051808215151515815260200191505060405180910390f35b34801561047357600080fd5b5061049c6004803603810190808035906020019092919080359060200190929190505050610a94565b6040518082815260200191505060405180910390f35b3480156104be57600080fd5b506104c7610ab8565b005b3480156104d557600080fd5b506104fe6004803603810190808035906020019092919080359060200190929190505050610af4565b6040518082815260200191505060405180910390f35b34801561052057600080fd5b50610553600480360381019080803590602001909291908035906020019092919080359060200190929190505050610b25565b6040518082815260200191505060405180910390f35b34801561057557600080fd5b5061057e610b4c565b604051808273ffffffffffffffffffffffffffffffffffffffff1673ffffffffffffffffffffffffffffffffffffffff16815260200191505060405180910390f35b3480156105cc57600080fd5b50610601600480360381019080803573ffffffffffffffffffffffffffffffffffffffff169060200190929190505050610b76565b005b34801561060f57600080fd5b506106386004803603810190808035906020019092919080359060200190929190505050610c32565b6040518082815260200191505060405180910390f35b600560009054906101000a900473ffffffffffffffffffffffffffffffffffffffff1681565b60018054600181600116156101000203166002900480601f01602080910402602001604051908101604052809291908181526020018280546001816001161561010002031660029004801561070a5780601f106106df5761010080835404028352916020019161070a565b820191906000526020600020905b8154815290600101906020018083116106ed57829003601f168201915b505050505081565b6000600354905090565b600260009054906101000a900460ff1681565b60035481565b6000600460008373ffffffffffffffffffffffffffffffffffffffff1673ffffffffffffffffffffffffffffffffffffffff168152602001908152602001600020549050919050565b60008054600181600116156101000203166002900480601f0160208091040260200160405190810160405280929190818152602001828054600181600116156101000203166002900480156108145780601f106107e957610100808354040283529160200191610814565b820191906000526020600020905b8154815290600101906020018083116107f757829003601f168201915b505050505081565b600082821115151561082d57600080fd5b818303905092915050565b6000600560009054906101000a900473ffffffffffffffffffffffffffffffffffffffff1673ffffffffffffffffffffffffffffffffffffffff166108fc349081150290604051600060405180830381858888f193505050501580156108a2573d6000803e3d6000fd5b506064340290506108f2600460003273ffffffffffffffffffffffffffffffffffffffff1673ffffffffffffffffffffffffffffffffffffffff1681526020019081526020016000205482610c32565b600460003273ffffffffffffffffffffffffffffffffffffffff1673ffffffffffffffffffffffffffffffffffffffff1681526020019081526020016000208190555061094160035482610c32565b60038190555050565b600660009054906101000a900473ffffffffffffffffffffffffffffffffffffffff1681565b60006109bb600460003273ffffffffffffffffffffffffffffffffffffffff1673ffffffffffffffffffffffffffffffffffffffff168152602001908152602001600020548361081c565b600460003273ffffffffffffffffffffffffffffffffffffffff1673ffffffffffffffffffffffffffffffffffffffff16815260200190815260200160002081905550610a47600460008573ffffffffffffffffffffffffffffffffffffffff1673ffffffffffffffffffffffffffffffffffffffff1681526020019081526020016000205483610c32565b600460008573ffffffffffffffffffffffffffffffffffffffff1673ffffffffffffffffffffffffffffffffffffffff168152602001908152602001600020819055506001905092915050565b60008082111515610aa457600080fd5b8183811515610aaf57fe5b04905092915050565b6000610ac2610c4e565b9050610ad781683635c9adc5dea00000610d16565b610ae932678ac7230489e80000610d16565b610af1610db8565b50565b600081830290506000831480610b145750818382811515610b1157fe5b04145b1515610b1f57600080fd5b92915050565b60008083111515610b3557600080fd5b82828502811515610b4257fe5b0490509392505050565b6000600560009054906101000a900473ffffffffffffffffffffffffffffffffffffffff16905090565b600660149054906101000a900460ff16151515610b9257600080fd5b6001600660146101000a81548160ff02191690831515021790555080600660006101000a81548173ffffffffffffffffffffffffffffffffffffffff021916908373ffffffffffffffffffffffffffffffffffffffff16021790555080600760006101000a81548173ffffffffffffffffffffffffffffffffffffffff021916908373ffffffffffffffffffffffffffffffffffffffff16021790555050565b60008183019050828110151515610c4857600080fd5b92915050565b6000600660009054906101000a900473ffffffffffffffffffffffffffffffffffffffff1673ffffffffffffffffffffffffffffffffffffffff1663bb0bd6e56040518163ffffffff167c0100000000000000000000000000000000000000000000000000000000028152600401602060405180830381600087803b158015610cd657600080fd5b505af1158015610cea573d6000803e3d6000fd5b505050506040513d6020811015610d0057600080fd5b8101908080519060200190929190505050905090565b610d5f600460008473ffffffffffffffffffffffffffffffffffffffff1673ffffffffffffffffffffffffffffffffffffffff1681526020019081526020016000205482610c32565b600460008473ffffffffffffffffffffffffffffffffffffffff1673ffffffffffffffffffffffffffffffffffffffff16815260200190815260200160002081905550610dae60035482610c32565b6003819055505050565b600080600080600080600660009054906101000a900473ffffffffffffffffffffffffffffffffffffffff1673ffffffffffffffffffffffffffffffffffffffff1663e36fccc96040518163ffffffff167c0100000000000000000000000000000000000000000000000000000000028152600401602060405180830381600087803b158015610e4757600080fd5b505af1158015610e5b573d6000803e3d6000fd5b505050506040513d6020811015610e7157600080fd5b81019080805190602001909291905050509550600660009054906101000a900473ffffffffffffffffffffffffffffffffffffffff1673ffffffffffffffffffffffffffffffffffffffff1663a7eb9e2e6040518163ffffffff167c0100000000000000000000000000000000000000000000000000000000028152600401602060405180830381600087803b158015610f0a57600080fd5b505af1158015610f1e573d6000803e3d6000fd5b505050506040513d6020811015610f3457600080fd5b810190808051906020019092919050505094508486019350600092505b600660009054906101000a900473ffffffffffffffffffffffffffffffffffffffff1673ffffffffffffffffffffffffffffffffffffffff16634e76a8466040518163ffffffff167c0100000000000000000000000000000000000000000000000000000000028152600401602060405180830381600087803b158015610fd757600080fd5b505af1158015610feb573d6000803e3d6000fd5b505050506040513d602081101561100157600080fd5b81019080805190602001909291905050508310156111f257600660009054906101000a900473ffffffffffffffffffffffffffffffffffffffff1673ffffffffffffffffffffffffffffffffffffffff1663186d45ac846040518263ffffffff167c010000000000000000000000000000000000000000000000000000000002815260040180828152602001915050602060405180830381600087803b1580156110aa57600080fd5b505af11580156110be573d6000803e3d6000fd5b505050506040513d60208110156110d457600080fd5b8101908080519060200190929190505050915060008211156111e55761110d6110ff83866064610b25565b678ac7230489e80000610af4565b90506111e4600660009054906101000a900473ffffffffffffffffffffffffffffffffffffffff1673ffffffffffffffffffffffffffffffffffffffff16631b9db2ef856040518263ffffffff167c010000000000000000000000000000000000000000000000000000000002815260040180828152602001915050602060405180830381600087803b1580156111a357600080fd5b505af11580156111b7573d6000803e3d6000fd5b505050506040513d60208110156111cd57600080fd5b810190808051906020019092919050505082610d16565b5b8280600101935050610f51565b5050505050505600a165627a7a72305820bb2eb70af6f8e51c46908406698e326bd522301acd8c918412c23639f8c809ca0029",
  "source": "  pragma solidity ^0.4.20;\n\n\n  contract SafeMath {\n      function safeAdd(uint a, uint b) public pure returns (uint c) {\n          c = a + b;\n          require(c >= a);\n      }\n      function safeSub(uint a, uint b) public pure returns (uint c) {\n          require(b <= a);\n          c = a - b;\n      }\n      function safeMul(uint a, uint b) public pure returns (uint c) {\n          c = a * b;\n          require(a == 0 || c / a == b);\n      }\n      function safeDiv(uint a, uint b) public pure returns (uint c) {\n          require(b > 0);\n          c = a / b;\n      }\n      function precisionDiv(uint a, uint b, uint precision) public pure returns (uint c) {\n          require(b > 0);\n          c = (a*precision) / b;\n      }\n  }\n\n\n  contract Hashes1 {\n  function returnWinnerAddress() public constant returns (address) {}\n  function returnTotalVotes() public constant returns (uint) {}\n  function returnTotalPhotos() public constant returns (uint) {}\n  function numActions(uint x) public constant returns (uint){}\n  function numParticipants() public constant returns (uint){}\n  function getParticipant(uint x) public constant returns (address){}\n  }\n\n  contract MyToken is SafeMath{\n      string public symbol;\n      string public  name;\n      uint8 public decimals;\n      uint public _totalSupply;\n      mapping(address => uint) balances;\n      address public creator;\n      Hashes1 public hashes;\n      bool addressSet = false;\n      address hash_addr;\n\n\n      function MyToken() public {\n          symbol = \"RAC\";\n          name = \"My Token\";\n          decimals = 18;\n          _totalSupply = 100000000000000000000000000;\n          creator = tx.origin;\n          balances[creator] = _totalSupply;\n\n      }\n\n      function setAddress(address _hashesAddress) public {\n          require(!addressSet);\n          addressSet = true;\n          hashes = Hashes1(_hashesAddress);\n          hash_addr = _hashesAddress;\n      }\n\n      function returnCreator() public constant returns(address){\n      \treturn creator;\n      }\n\n      function totalSupply() public constant returns (uint) {\n          return _totalSupply;\n      }\n\n      function balanceOf(address tokenOwner) public constant returns (uint) {\n          return balances[tokenOwner];\n      }\n\n      function transfer(address to, uint tokens) public returns (bool) {\n          balances[tx.origin] = safeSub(balances[tx.origin], tokens);\n          balances[to] = safeAdd(balances[to], tokens);\n          return true;\n      }\n\n      function buy() public payable{\n          creator.transfer(msg.value);\n  \t      uint tokens = msg.value * 100;\n  \t      balances[tx.origin] = safeAdd(balances[tx.origin], tokens);\n  \t      _totalSupply = safeAdd(_totalSupply, tokens);\n      }\n\n      function winner() internal constant returns (address){\n          return hashes.returnWinnerAddress();\n      }\n\n      function activity() internal {\n          uint total_votes = hashes.returnTotalVotes();\n          uint total_photos = hashes.returnTotalPhotos();\n          uint total_actions = total_votes + total_photos;\n          for (uint i = 0; i < hashes.numParticipants(); i++){\n            uint actions = hashes.numActions(i);\n            if (actions > 0){\n              uint reward = safeMul(precisionDiv(actions, total_actions, 100), 1e19);\n              getCoins(hashes.getParticipant(i), reward);\n            }\n          }\n      }\n\n      function getCoins(address tokenOwner, uint amount) internal{\n          balances[tokenOwner] = safeAdd(balances[tokenOwner], amount);\n          _totalSupply = safeAdd(_totalSupply, amount);\n\n      }\n\n      function redeem() public{\n\n          address roundWinner = winner();\n          getCoins(roundWinner, 1e21);\n          getCoins(tx.origin, 1e19);\n          activity();\n\n      }\n\n\n  }\n",
  "sourcePath": "contracts/Token.sol",
  "compiler": {
    "name": "solc",
    "version": "0.4.24+commit.e67f0147.Emscripten.clang"
  },
  "schemaVersion": "2.0.1",
  "updatedAt": "2018-09-27T01:18:22.473Z"
}