{
  "contractName": "MyTrophy",
  "abi": [
    {
      "constant": true,
      "inputs": [],
      "name": "creator",
      "outputs": [
        {
          "name": "",
          "type": "address"
        }
      ],
      "payable": false,
      "stateMutability": "view",
      "type": "function"
    },
    {
      "constant": true,
      "inputs": [],
      "name": "name",
      "outputs": [
        {
          "name": "",
          "type": "string"
        }
      ],
      "payable": false,
      "stateMutability": "view",
      "type": "function"
    },
    {
      "constant": false,
      "inputs": [
        {
          "name": "_to",
          "type": "address"
        },
        {
          "name": "_tokenId",
          "type": "uint256"
        }
      ],
      "name": "approve",
      "outputs": [],
      "payable": false,
      "stateMutability": "nonpayable",
      "type": "function"
    },
    {
      "constant": false,
      "inputs": [
        {
          "name": "_from",
          "type": "address"
        },
        {
          "name": "_to",
          "type": "address"
        },
        {
          "name": "_tokenId",
          "type": "uint256"
        }
      ],
      "name": "transferFrom",
      "outputs": [],
      "payable": false,
      "stateMutability": "nonpayable",
      "type": "function"
    },
    {
      "constant": true,
      "inputs": [],
      "name": "decimals",
      "outputs": [
        {
          "name": "",
          "type": "uint8"
        }
      ],
      "payable": false,
      "stateMutability": "view",
      "type": "function"
    },
    {
      "constant": true,
      "inputs": [],
      "name": "_totalSupply",
      "outputs": [
        {
          "name": "",
          "type": "uint256"
        }
      ],
      "payable": false,
      "stateMutability": "view",
      "type": "function"
    },
    {
      "constant": true,
      "inputs": [],
      "name": "symbol",
      "outputs": [
        {
          "name": "",
          "type": "string"
        }
      ],
      "payable": false,
      "stateMutability": "view",
      "type": "function"
    },
    {
      "constant": true,
      "inputs": [],
      "name": "hashes",
      "outputs": [
        {
          "name": "",
          "type": "address"
        }
      ],
      "payable": false,
      "stateMutability": "view",
      "type": "function"
    },
    {
      "inputs": [],
      "payable": false,
      "stateMutability": "nonpayable",
      "type": "constructor"
    },
    {
      "anonymous": false,
      "inputs": [
        {
          "indexed": false,
          "name": "from",
          "type": "address"
        },
        {
          "indexed": false,
          "name": "to",
          "type": "address"
        },
        {
          "indexed": false,
          "name": "tokenId",
          "type": "uint256"
        }
      ],
      "name": "Transfer",
      "type": "event"
    },
    {
      "anonymous": false,
      "inputs": [
        {
          "indexed": false,
          "name": "owner",
          "type": "address"
        },
        {
          "indexed": false,
          "name": "approved",
          "type": "address"
        },
        {
          "indexed": false,
          "name": "tokenId",
          "type": "uint256"
        }
      ],
      "name": "Approval",
      "type": "event"
    },
    {
      "constant": false,
      "inputs": [
        {
          "name": "_hashesAddress",
          "type": "address"
        }
      ],
      "name": "setAddress",
      "outputs": [],
      "payable": false,
      "stateMutability": "nonpayable",
      "type": "function"
    },
    {
      "constant": true,
      "inputs": [],
      "name": "totalSupply",
      "outputs": [
        {
          "name": "",
          "type": "uint256"
        }
      ],
      "payable": false,
      "stateMutability": "view",
      "type": "function"
    },
    {
      "constant": true,
      "inputs": [
        {
          "name": "_tokenOwner",
          "type": "address"
        }
      ],
      "name": "balanceOf",
      "outputs": [
        {
          "name": "",
          "type": "uint256"
        }
      ],
      "payable": false,
      "stateMutability": "view",
      "type": "function"
    },
    {
      "constant": true,
      "inputs": [
        {
          "name": "_tokenId",
          "type": "uint256"
        }
      ],
      "name": "ownerOf",
      "outputs": [
        {
          "name": "owner",
          "type": "address"
        }
      ],
      "payable": false,
      "stateMutability": "view",
      "type": "function"
    },
    {
      "constant": false,
      "inputs": [
        {
          "name": "_to",
          "type": "address"
        },
        {
          "name": "_tokenId",
          "type": "uint256"
        }
      ],
      "name": "transfer",
      "outputs": [],
      "payable": false,
      "stateMutability": "nonpayable",
      "type": "function"
    },
    {
      "constant": true,
      "inputs": [
        {
          "name": "_tokenId",
          "type": "uint256"
        }
      ],
      "name": "tokenMetadata",
      "outputs": [
        {
          "name": "infoUrl",
          "type": "string"
        }
      ],
      "payable": false,
      "stateMutability": "view",
      "type": "function"
    },
    {
      "constant": true,
      "inputs": [
        {
          "name": "_tokenId",
          "type": "uint256"
        }
      ],
      "name": "tokenValue",
      "outputs": [
        {
          "name": "value",
          "type": "uint256"
        }
      ],
      "payable": false,
      "stateMutability": "view",
      "type": "function"
    },
    {
      "constant": true,
      "inputs": [
        {
          "name": "_tokenOwner",
          "type": "address"
        }
      ],
      "name": "tokensOfOwner",
      "outputs": [
        {
          "name": "tokenIds",
          "type": "uint256[]"
        }
      ],
      "payable": false,
      "stateMutability": "view",
      "type": "function"
    },
    {
      "constant": false,
      "inputs": [
        {
          "name": "_trophyLink",
          "type": "string"
        }
      ],
      "name": "createTrophy",
      "outputs": [],
      "payable": false,
      "stateMutability": "nonpayable",
      "type": "function"
    }
  ],
  "bytecode": "0x60806040523480156200001157600080fd5b506040805190810160405280600381526020017f5452500000000000000000000000000000000000000000000000000000000000815250600090805190602001906200005f9291906200019c565b506040805190810160405280600981526020017f4d792054726f706879000000000000000000000000000000000000000000000081525060019080519060200190620000ad9291906200019c565b506000600260006101000a81548160ff021916908360ff160217905550600060038190555033600460006101000a81548173ffffffffffffffffffffffffffffffffffffffff021916908373ffffffffffffffffffffffffffffffffffffffff16021790555060035460056000600460009054906101000a900473ffffffffffffffffffffffffffffffffffffffff1673ffffffffffffffffffffffffffffffffffffffff1673ffffffffffffffffffffffffffffffffffffffff168152602001908152602001600020819055506000600b60146101000a81548160ff0219169083151502179055506200024b565b828054600181600116156101000203166002900490600052602060002090601f016020900481019282601f10620001df57805160ff191683800117855562000210565b8280016001018555821562000210579182015b828111156200020f578251825591602001919060010190620001f2565b5b5090506200021f919062000223565b5090565b6200024891905b80821115620002445760008160009055506001016200022a565b5090565b90565b6114ff806200025b6000396000f3006080604052600436106100f1576000357c0100000000000000000000000000000000000000000000000000000000900463ffffffff16806302d05d3f146100f657806306fdde031461014d578063095ea7b3146101dd57806318160ddd1461022a57806323b872dd14610255578063313ce567146102c25780633eaaf86b146102f35780636352211e1461031e5780636914db601461038b57806370a082311461043157806380f66c8b146104885780638462151c146104f157806395d89b4114610589578063a81d9bcc14610619578063a9059cbb14610670578063cb914491146106bd578063e30081a0146106fe575b600080fd5b34801561010257600080fd5b5061010b610741565b604051808273ffffffffffffffffffffffffffffffffffffffff1673ffffffffffffffffffffffffffffffffffffffff16815260200191505060405180910390f35b34801561015957600080fd5b50610162610767565b6040518080602001828103825283818151815260200191508051906020019080838360005b838110156101a2578082015181840152602081019050610187565b50505050905090810190601f1680156101cf5780820380516001836020036101000a031916815260200191505b509250505060405180910390f35b3480156101e957600080fd5b50610228600480360381019080803573ffffffffffffffffffffffffffffffffffffffff16906020019092919080359060200190929190505050610805565b005b34801561023657600080fd5b5061023f610809565b6040518082815260200191505060405180910390f35b34801561026157600080fd5b506102c0600480360381019080803573ffffffffffffffffffffffffffffffffffffffff169060200190929190803573ffffffffffffffffffffffffffffffffffffffff16906020019092919080359060200190929190505050610813565b005b3480156102ce57600080fd5b506102d7610818565b604051808260ff1660ff16815260200191505060405180910390f35b3480156102ff57600080fd5b5061030861082b565b6040518082815260200191505060405180910390f35b34801561032a57600080fd5b5061034960048036038101908080359060200190929190505050610831565b604051808273ffffffffffffffffffffffffffffffffffffffff1673ffffffffffffffffffffffffffffffffffffffff16815260200191505060405180910390f35b34801561039757600080fd5b506103b66004803603810190808035906020019092919050505061089a565b6040518080602001828103825283818151815260200191508051906020019080838360005b838110156103f65780820151818401526020810190506103db565b50505050905090810190601f1680156104235780820380516001836020036101000a031916815260200191505b509250505060405180910390f35b34801561043d57600080fd5b50610472600480360381019080803573ffffffffffffffffffffffffffffffffffffffff16906020019092919050505061097b565b6040518082815260200191505060405180910390f35b34801561049457600080fd5b506104ef600480360381019080803590602001908201803590602001908080601f01602080910402602001604051908101604052809392919081815260200183838082843782019150505050505091929192905050506109c4565b005b3480156104fd57600080fd5b50610532600480360381019080803573ffffffffffffffffffffffffffffffffffffffff169060200190929190505050610ebc565b6040518080602001828103825283818151815260200191508051906020019060200280838360005b8381101561057557808201518184015260208101905061055a565b505050509050019250505060405180910390f35b34801561059557600080fd5b5061059e610f53565b6040518080602001828103825283818151815260200191508051906020019080838360005b838110156105de5780820151818401526020810190506105c3565b50505050905090810190601f16801561060b5780820380516001836020036101000a031916815260200191505b509250505060405180910390f35b34801561062557600080fd5b5061062e610ff1565b604051808273ffffffffffffffffffffffffffffffffffffffff1673ffffffffffffffffffffffffffffffffffffffff16815260200191505060405180910390f35b34801561067c57600080fd5b506106bb600480360381019080803573ffffffffffffffffffffffffffffffffffffffff16906020019092919080359060200190929190505050611017565b005b3480156106c957600080fd5b506106e860048036038101908080359060200190929190505050611328565b6040518082815260200191505060405180910390f35b34801561070a57600080fd5b5061073f600480360381019080803573ffffffffffffffffffffffffffffffffffffffff169060200190929190505050611371565b005b600460009054906101000a900473ffffffffffffffffffffffffffffffffffffffff1681565b60018054600181600116156101000203166002900480601f0160208091040260200160405190810160405280929190818152602001828054600181600116156101000203166002900480156107fd5780601f106107d2576101008083540402835291602001916107fd565b820191906000526020600020905b8154815290600101906020018083116107e057829003601f168201915b505050505081565b5050565b6000600354905090565b505050565b600260009054906101000a900460ff1681565b60035481565b60006007600083815260200190815260200160002060009054906101000a900460ff16151561085f57600080fd5b6006600083815260200190815260200160002060009054906101000a900473ffffffffffffffffffffffffffffffffffffffff169050919050565b60606007600083815260200190815260200160002060009054906101000a900460ff1615156108c857600080fd5b600860008381526020019081526020016000208054600181600116156101000203166002900480601f01602080910402602001604051908101604052809291908181526020018280546001816001161561010002031660029004801561096f5780601f106109445761010080835404028352916020019161096f565b820191906000526020600020905b81548152906001019060200180831161095257829003601f168201915b50505050509050919050565b6000600560008373ffffffffffffffffffffffffffffffffffffffff1673ffffffffffffffffffffffffffffffffffffffff168152602001908152602001600020549050919050565b600080600080339350600b60009054906101000a900473ffffffffffffffffffffffffffffffffffffffff1673ffffffffffffffffffffffffffffffffffffffff1663bb0bd6e56040518163ffffffff167c0100000000000000000000000000000000000000000000000000000000028152600401602060405180830381600087803b158015610a5357600080fd5b505af1158015610a67573d6000803e3d6000fd5b505050506040513d6020811015610a7d57600080fd5b8101908080519060200190929190505050925082604051808273ffffffffffffffffffffffffffffffffffffffff1673ffffffffffffffffffffffffffffffffffffffff166c0100000000000000000000000002815260140191505060405180910390206000191684604051808273ffffffffffffffffffffffffffffffffffffffff1673ffffffffffffffffffffffffffffffffffffffff166c01000000000000000000000000028152601401915050604051809103902060001916141515610b4657600080fd5b610b5c60016003546113ec90919063ffffffff16565b9150610bb16001600560008773ffffffffffffffffffffffffffffffffffffffff1673ffffffffffffffffffffffffffffffffffffffff168152602001908152602001600020546113ec90919063ffffffff16565b600560008673ffffffffffffffffffffffffffffffffffffffff1673ffffffffffffffffffffffffffffffffffffffff1681526020019081526020016000208190555060016007600084815260200190815260200160002060006101000a81548160ff021916908315150217905550836006600084815260200190815260200160002060006101000a81548173ffffffffffffffffffffffffffffffffffffffff021916908373ffffffffffffffffffffffffffffffffffffffff16021790555084600860008481526020019081526020016000209080519060200190610c9992919061142e565b50600a60008573ffffffffffffffffffffffffffffffffffffffff1673ffffffffffffffffffffffffffffffffffffffff168152602001908152602001600020829080600181540180825580915050906001820390600052602060002001600090919290919091505550600b60009054906101000a900473ffffffffffffffffffffffffffffffffffffffff1673ffffffffffffffffffffffffffffffffffffffff16634041ef54846040518263ffffffff167c0100000000000000000000000000000000000000000000000000000000028152600401808273ffffffffffffffffffffffffffffffffffffffff1673ffffffffffffffffffffffffffffffffffffffff168152602001915050602060405180830381600087803b158015610dc057600080fd5b505af1158015610dd4573d6000803e3d6000fd5b505050506040513d6020811015610dea57600080fd5b810190808051906020019092919050505090508060096000848152602001908152602001600020819055507fddf252ad1be2c89b69c2b068fc378daa952ba7f163c4a11628f55a4df523b3ef60008584604051808473ffffffffffffffffffffffffffffffffffffffff1673ffffffffffffffffffffffffffffffffffffffff1681526020018373ffffffffffffffffffffffffffffffffffffffff1673ffffffffffffffffffffffffffffffffffffffff168152602001828152602001935050505060405180910390a15050505050565b6060600a60008373ffffffffffffffffffffffffffffffffffffffff1673ffffffffffffffffffffffffffffffffffffffff168152602001908152602001600020805480602002602001604051908101604052809291908181526020018280548015610f4757602002820191906000526020600020905b815481526020019060010190808311610f33575b50505050509050919050565b60008054600181600116156101000203166002900480601f016020809104026020016040519081016040528092919081815260200182805460018160011615610100020316600290048015610fe95780601f10610fbe57610100808354040283529160200191610fe9565b820191906000526020600020905b815481529060010190602001808311610fcc57829003601f168201915b505050505081565b600b60009054906101000a900473ffffffffffffffffffffffffffffffffffffffff1681565b6000803391508390506007600084815260200190815260200160002060009054906101000a900460ff16151561104c57600080fd5b61105583610831565b73ffffffffffffffffffffffffffffffffffffffff168273ffffffffffffffffffffffffffffffffffffffff1614151561108e57600080fd5b8073ffffffffffffffffffffffffffffffffffffffff168273ffffffffffffffffffffffffffffffffffffffff16141515156110c957600080fd5b600073ffffffffffffffffffffffffffffffffffffffff168173ffffffffffffffffffffffffffffffffffffffff161415151561110557600080fd5b6111586001600560008573ffffffffffffffffffffffffffffffffffffffff1673ffffffffffffffffffffffffffffffffffffffff1681526020019081526020016000205461140d90919063ffffffff16565b600560008473ffffffffffffffffffffffffffffffffffffffff1673ffffffffffffffffffffffffffffffffffffffff16815260200190815260200160002081905550806006600085815260200190815260200160002060006101000a81548173ffffffffffffffffffffffffffffffffffffffff021916908373ffffffffffffffffffffffffffffffffffffffff1602179055506112406001600560008473ffffffffffffffffffffffffffffffffffffffff1673ffffffffffffffffffffffffffffffffffffffff168152602001908152602001600020546113ec90919063ffffffff16565b600560008373ffffffffffffffffffffffffffffffffffffffff1673ffffffffffffffffffffffffffffffffffffffff168152602001908152602001600020819055507fddf252ad1be2c89b69c2b068fc378daa952ba7f163c4a11628f55a4df523b3ef338585604051808473ffffffffffffffffffffffffffffffffffffffff1673ffffffffffffffffffffffffffffffffffffffff1681526020018373ffffffffffffffffffffffffffffffffffffffff1673ffffffffffffffffffffffffffffffffffffffff168152602001828152602001935050505060405180910390a150505050565b60006007600083815260200190815260200160002060009054906101000a900460ff16151561135657600080fd5b60096000838152602001908152602001600020549050919050565b600b60149054906101000a900460ff1615151561138d57600080fd5b6001600b60146101000a81548160ff02191690831515021790555080600b60006101000a81548173ffffffffffffffffffffffffffffffffffffffff021916908373ffffffffffffffffffffffffffffffffffffffff16021790555050565b600080828401905083811015151561140357600080fd5b8091505092915050565b60008083831115151561141f57600080fd5b82840390508091505092915050565b828054600181600116156101000203166002900490600052602060002090601f016020900481019282601f1061146f57805160ff191683800117855561149d565b8280016001018555821561149d579182015b8281111561149c578251825591602001919060010190611481565b5b5090506114aa91906114ae565b5090565b6114d091905b808211156114cc5760008160009055506001016114b4565b5090565b905600a165627a7a7230582077a8261615e7d09b67dd6704fa6477f17b2ab790403186c73a6d21ed06d4b1100029",
  "source": "pragma solidity ^0.4.20;\n\nimport \"Token.sol\";\nimport \"SafeMath.sol\";\nimport \"ERC721.sol\";\n\ncontract MyTrophy is ERC721{\n\n  using SafeMath for uint256;\n\n  string public symbol;\n  string public  name;\n  uint8 public decimals;\n  uint public _totalSupply;\n  address public creator;\n  mapping(address => uint) balances;\n  mapping(uint256 => address) tokenOwners;\n  mapping(uint256 => bool) tokenExists;\n  mapping(uint256 => string) tokenLinks;\n  mapping(uint256 => uint) trophyValue;\n  mapping (address => uint256[]) ownedTokens;\n  Hashes1 public hashes;\n  bool addressSet;\n\n\n  function MyTrophy() public {\n      symbol = \"TRP\";\n      name = \"My Trophy\";\n      decimals = 0;\n      _totalSupply = 0;\n      creator = msg.sender;\n      balances[creator] = _totalSupply;\n      addressSet = false;\n\n  }\n\n  function setAddress(address _hashesAddress) public {\n      require(!addressSet);\n      addressSet = true;\n      hashes = Hashes1(_hashesAddress);\n\n  }\n\n  function totalSupply() public view returns (uint) {\n      return _totalSupply;\n  }\n\n  function balanceOf(address _tokenOwner) public view returns (uint) {\n      return balances[_tokenOwner];\n  }\n\n  function ownerOf(uint256 _tokenId) public view returns (address owner) {\n    require(tokenExists[_tokenId]);\n    return tokenOwners[_tokenId];\n  }\n\n  function transfer(address _to, uint256 _tokenId){\n    address currentOwner = msg.sender;\n    address newOwner = _to;\n    require(tokenExists[_tokenId]);\n    require(currentOwner == ownerOf(_tokenId));\n    require(currentOwner != newOwner);\n    require(newOwner != address(0));\n    balances[currentOwner] = balances[currentOwner].sub(1);\n    tokenOwners[_tokenId] = newOwner;\n    balances[newOwner] = balances[newOwner].add(1);\n\n    Transfer(msg.sender, _to, _tokenId);\n\n  }\n\n  function tokenMetadata(uint256 _tokenId) public view returns (string infoUrl) {\n    require(tokenExists[_tokenId]);\n    return tokenLinks[_tokenId];\n  }\n\n  function tokenValue(uint256 _tokenId) public view returns (uint value) {\n    require(tokenExists[_tokenId]);\n    return trophyValue[_tokenId];\n  }\n\n  function tokensOfOwner(address _tokenOwner) public view returns (uint256[] tokenIds){\n    return ownedTokens[_tokenOwner];\n  }\n\n  function createTrophy(string _trophyLink) public {\n\n    address tokenOwner = msg.sender;\n    address winner = hashes.returnWinnerAddress();\n    require (keccak256(tokenOwner) == keccak256(winner));\n    uint256 tokenIndex = _totalSupply.add(1);\n    balances[tokenOwner] = balances[tokenOwner].add(1);\n    tokenExists[tokenIndex] = true;\n    tokenOwners[tokenIndex] = tokenOwner;\n    tokenLinks[tokenIndex] = _trophyLink;\n    ownedTokens[tokenOwner].push(tokenIndex);\n    uint value = hashes.totalVotesFor(winner);\n    trophyValue[tokenIndex] = value;\n    Transfer(address(0), tokenOwner, tokenIndex);\n\n  }\n\n}\n",
  "sourcePath": "/Users/ryachen/Desktop/Quest/eth-chain/app/contracts/Trophies.sol",
  "compiler": {
    "name": "solc",
    "version": "0.4.24+commit.e67f0147.Emscripten.clang"
  },
  "schemaVersion": "2.0.1",
  "updatedAt": "2019-01-08T02:30:54.361Z"
}